{
	"data": {
		"bytecode": {
			"linkReferences": {},
			"object": "608060405234801561001057600080fd5b50610525806100206000396000f3fe608060405234801561001057600080fd5b506004361061004c5760003560e01c80631fe09da114610051578063317fce5414610081578063e1e0485e1461009d578063e7778f39146100cd575b600080fd5b61006b60048036038101906100669190610393565b6100fd565b60405161007891906103cf565b60405180910390f35b61009b60048036038101906100969190610393565b61015b565b005b6100b760048036038101906100b29190610393565b61015e565b6040516100c4919061047a565b60405180910390f35b6100e760048036038101906100e2919061049c565b61026d565b6040516100f4919061047a565b60405180910390f35b6000600c8210156101115760059050610156565b600c8210158015610123575060128211155b1561013157600a9050610156565b60138210158015610143575060198211155b1561015157600f9050610156565b601490505b919050565b50565b6060605a82106101a5576040518060400160405280600181526020017f41000000000000000000000000000000000000000000000000000000000000008152509050610268565b605082106101ea576040518060400160405280600181526020017f42000000000000000000000000000000000000000000000000000000000000008152509050610268565b6046821061022f576040518060400160405280600181526020017f43000000000000000000000000000000000000000000000000000000000000008152509050610268565b6040518060400160405280600181526020017f460000000000000000000000000000000000000000000000000000000000000081525090505b919050565b6060828414801561027d57508183145b156102bf576040518060400160405280600b81526020017f457175696c61746572616c0000000000000000000000000000000000000000008152509050610351565b828414806102cc57508183145b806102d657508184145b15610318576040518060400160405280600981526020017f49736f7363656c657300000000000000000000000000000000000000000000008152509050610351565b6040518060400160405280600781526020017f5363616c656e650000000000000000000000000000000000000000000000000081525090505b9392505050565b600080fd5b6000819050919050565b6103708161035d565b811461037b57600080fd5b50565b60008135905061038d81610367565b92915050565b6000602082840312156103a9576103a8610358565b5b60006103b78482850161037e565b91505092915050565b6103c98161035d565b82525050565b60006020820190506103e460008301846103c0565b92915050565b600081519050919050565b600082825260208201905092915050565b60005b83811015610424578082015181840152602081019050610409565b60008484015250505050565b6000601f19601f8301169050919050565b600061044c826103ea565b61045681856103f5565b9350610466818560208601610406565b61046f81610430565b840191505092915050565b600060208201905081810360008301526104948184610441565b905092915050565b6000806000606084860312156104b5576104b4610358565b5b60006104c38682870161037e565b93505060206104d48682870161037e565b92505060406104e58682870161037e565b915050925092509256fea2646970667358221220c06859d765bd5e6b32480abb80229afea0c42641e36a7038333f94de91ebd34b64736f6c63430008110033",
			"opcodes": "PUSH1 0x80 PUSH1 0x40 MSTORE CALLVALUE DUP1 ISZERO PUSH2 0x10 JUMPI PUSH1 0x0 DUP1 REVERT JUMPDEST POP PUSH2 0x525 DUP1 PUSH2 0x20 PUSH1 0x0 CODECOPY PUSH1 0x0 RETURN INVALID PUSH1 0x80 PUSH1 0x40 MSTORE CALLVALUE DUP1 ISZERO PUSH2 0x10 JUMPI PUSH1 0x0 DUP1 REVERT JUMPDEST POP PUSH1 0x4 CALLDATASIZE LT PUSH2 0x4C JUMPI PUSH1 0x0 CALLDATALOAD PUSH1 0xE0 SHR DUP1 PUSH4 0x1FE09DA1 EQ PUSH2 0x51 JUMPI DUP1 PUSH4 0x317FCE54 EQ PUSH2 0x81 JUMPI DUP1 PUSH4 0xE1E0485E EQ PUSH2 0x9D JUMPI DUP1 PUSH4 0xE7778F39 EQ PUSH2 0xCD JUMPI JUMPDEST PUSH1 0x0 DUP1 REVERT JUMPDEST PUSH2 0x6B PUSH1 0x4 DUP1 CALLDATASIZE SUB DUP2 ADD SWAP1 PUSH2 0x66 SWAP2 SWAP1 PUSH2 0x393 JUMP JUMPDEST PUSH2 0xFD JUMP JUMPDEST PUSH1 0x40 MLOAD PUSH2 0x78 SWAP2 SWAP1 PUSH2 0x3CF JUMP JUMPDEST PUSH1 0x40 MLOAD DUP1 SWAP2 SUB SWAP1 RETURN JUMPDEST PUSH2 0x9B PUSH1 0x4 DUP1 CALLDATASIZE SUB DUP2 ADD SWAP1 PUSH2 0x96 SWAP2 SWAP1 PUSH2 0x393 JUMP JUMPDEST PUSH2 0x15B JUMP JUMPDEST STOP JUMPDEST PUSH2 0xB7 PUSH1 0x4 DUP1 CALLDATASIZE SUB DUP2 ADD SWAP1 PUSH2 0xB2 SWAP2 SWAP1 PUSH2 0x393 JUMP JUMPDEST PUSH2 0x15E JUMP JUMPDEST PUSH1 0x40 MLOAD PUSH2 0xC4 SWAP2 SWAP1 PUSH2 0x47A JUMP JUMPDEST PUSH1 0x40 MLOAD DUP1 SWAP2 SUB SWAP1 RETURN JUMPDEST PUSH2 0xE7 PUSH1 0x4 DUP1 CALLDATASIZE SUB DUP2 ADD SWAP1 PUSH2 0xE2 SWAP2 SWAP1 PUSH2 0x49C JUMP JUMPDEST PUSH2 0x26D JUMP JUMPDEST PUSH1 0x40 MLOAD PUSH2 0xF4 SWAP2 SWAP1 PUSH2 0x47A JUMP JUMPDEST PUSH1 0x40 MLOAD DUP1 SWAP2 SUB SWAP1 RETURN JUMPDEST PUSH1 0x0 PUSH1 0xC DUP3 LT ISZERO PUSH2 0x111 JUMPI PUSH1 0x5 SWAP1 POP PUSH2 0x156 JUMP JUMPDEST PUSH1 0xC DUP3 LT ISZERO DUP1 ISZERO PUSH2 0x123 JUMPI POP PUSH1 0x12 DUP3 GT ISZERO JUMPDEST ISZERO PUSH2 0x131 JUMPI PUSH1 0xA SWAP1 POP PUSH2 0x156 JUMP JUMPDEST PUSH1 0x13 DUP3 LT ISZERO DUP1 ISZERO PUSH2 0x143 JUMPI POP PUSH1 0x19 DUP3 GT ISZERO JUMPDEST ISZERO PUSH2 0x151 JUMPI PUSH1 0xF SWAP1 POP PUSH2 0x156 JUMP JUMPDEST PUSH1 0x14 SWAP1 POP JUMPDEST SWAP2 SWAP1 POP JUMP JUMPDEST POP JUMP JUMPDEST PUSH1 0x60 PUSH1 0x5A DUP3 LT PUSH2 0x1A5 JUMPI PUSH1 0x40 MLOAD DUP1 PUSH1 0x40 ADD PUSH1 0x40 MSTORE DUP1 PUSH1 0x1 DUP2 MSTORE PUSH1 0x20 ADD PUSH32 0x4100000000000000000000000000000000000000000000000000000000000000 DUP2 MSTORE POP SWAP1 POP PUSH2 0x268 JUMP JUMPDEST PUSH1 0x50 DUP3 LT PUSH2 0x1EA JUMPI PUSH1 0x40 MLOAD DUP1 PUSH1 0x40 ADD PUSH1 0x40 MSTORE DUP1 PUSH1 0x1 DUP2 MSTORE PUSH1 0x20 ADD PUSH32 0x4200000000000000000000000000000000000000000000000000000000000000 DUP2 MSTORE POP SWAP1 POP PUSH2 0x268 JUMP JUMPDEST PUSH1 0x46 DUP3 LT PUSH2 0x22F JUMPI PUSH1 0x40 MLOAD DUP1 PUSH1 0x40 ADD PUSH1 0x40 MSTORE DUP1 PUSH1 0x1 DUP2 MSTORE PUSH1 0x20 ADD PUSH32 0x4300000000000000000000000000000000000000000000000000000000000000 DUP2 MSTORE POP SWAP1 POP PUSH2 0x268 JUMP JUMPDEST PUSH1 0x40 MLOAD DUP1 PUSH1 0x40 ADD PUSH1 0x40 MSTORE DUP1 PUSH1 0x1 DUP2 MSTORE PUSH1 0x20 ADD PUSH32 0x4600000000000000000000000000000000000000000000000000000000000000 DUP2 MSTORE POP SWAP1 POP JUMPDEST SWAP2 SWAP1 POP JUMP JUMPDEST PUSH1 0x60 DUP3 DUP5 EQ DUP1 ISZERO PUSH2 0x27D JUMPI POP DUP2 DUP4 EQ JUMPDEST ISZERO PUSH2 0x2BF JUMPI PUSH1 0x40 MLOAD DUP1 PUSH1 0x40 ADD PUSH1 0x40 MSTORE DUP1 PUSH1 0xB DUP2 MSTORE PUSH1 0x20 ADD PUSH32 0x457175696C61746572616C000000000000000000000000000000000000000000 DUP2 MSTORE POP SWAP1 POP PUSH2 0x351 JUMP JUMPDEST DUP3 DUP5 EQ DUP1 PUSH2 0x2CC JUMPI POP DUP2 DUP4 EQ JUMPDEST DUP1 PUSH2 0x2D6 JUMPI POP DUP2 DUP5 EQ JUMPDEST ISZERO PUSH2 0x318 JUMPI PUSH1 0x40 MLOAD DUP1 PUSH1 0x40 ADD PUSH1 0x40 MSTORE DUP1 PUSH1 0x9 DUP2 MSTORE PUSH1 0x20 ADD PUSH32 0x49736F7363656C65730000000000000000000000000000000000000000000000 DUP2 MSTORE POP SWAP1 POP PUSH2 0x351 JUMP JUMPDEST PUSH1 0x40 MLOAD DUP1 PUSH1 0x40 ADD PUSH1 0x40 MSTORE DUP1 PUSH1 0x7 DUP2 MSTORE PUSH1 0x20 ADD PUSH32 0x5363616C656E6500000000000000000000000000000000000000000000000000 DUP2 MSTORE POP SWAP1 POP JUMPDEST SWAP4 SWAP3 POP POP POP JUMP JUMPDEST PUSH1 0x0 DUP1 REVERT JUMPDEST PUSH1 0x0 DUP2 SWAP1 POP SWAP2 SWAP1 POP JUMP JUMPDEST PUSH2 0x370 DUP2 PUSH2 0x35D JUMP JUMPDEST DUP2 EQ PUSH2 0x37B JUMPI PUSH1 0x0 DUP1 REVERT JUMPDEST POP JUMP JUMPDEST PUSH1 0x0 DUP2 CALLDATALOAD SWAP1 POP PUSH2 0x38D DUP2 PUSH2 0x367 JUMP JUMPDEST SWAP3 SWAP2 POP POP JUMP JUMPDEST PUSH1 0x0 PUSH1 0x20 DUP3 DUP5 SUB SLT ISZERO PUSH2 0x3A9 JUMPI PUSH2 0x3A8 PUSH2 0x358 JUMP JUMPDEST JUMPDEST PUSH1 0x0 PUSH2 0x3B7 DUP5 DUP3 DUP6 ADD PUSH2 0x37E JUMP JUMPDEST SWAP2 POP POP SWAP3 SWAP2 POP POP JUMP JUMPDEST PUSH2 0x3C9 DUP2 PUSH2 0x35D JUMP JUMPDEST DUP3 MSTORE POP POP JUMP JUMPDEST PUSH1 0x0 PUSH1 0x20 DUP3 ADD SWAP1 POP PUSH2 0x3E4 PUSH1 0x0 DUP4 ADD DUP5 PUSH2 0x3C0 JUMP JUMPDEST SWAP3 SWAP2 POP POP JUMP JUMPDEST PUSH1 0x0 DUP2 MLOAD SWAP1 POP SWAP2 SWAP1 POP JUMP JUMPDEST PUSH1 0x0 DUP3 DUP3 MSTORE PUSH1 0x20 DUP3 ADD SWAP1 POP SWAP3 SWAP2 POP POP JUMP JUMPDEST PUSH1 0x0 JUMPDEST DUP4 DUP2 LT ISZERO PUSH2 0x424 JUMPI DUP1 DUP3 ADD MLOAD DUP2 DUP5 ADD MSTORE PUSH1 0x20 DUP2 ADD SWAP1 POP PUSH2 0x409 JUMP JUMPDEST PUSH1 0x0 DUP5 DUP5 ADD MSTORE POP POP POP POP JUMP JUMPDEST PUSH1 0x0 PUSH1 0x1F NOT PUSH1 0x1F DUP4 ADD AND SWAP1 POP SWAP2 SWAP1 POP JUMP JUMPDEST PUSH1 0x0 PUSH2 0x44C DUP3 PUSH2 0x3EA JUMP JUMPDEST PUSH2 0x456 DUP2 DUP6 PUSH2 0x3F5 JUMP JUMPDEST SWAP4 POP PUSH2 0x466 DUP2 DUP6 PUSH1 0x20 DUP7 ADD PUSH2 0x406 JUMP JUMPDEST PUSH2 0x46F DUP2 PUSH2 0x430 JUMP JUMPDEST DUP5 ADD SWAP2 POP POP SWAP3 SWAP2 POP POP JUMP JUMPDEST PUSH1 0x0 PUSH1 0x20 DUP3 ADD SWAP1 POP DUP2 DUP2 SUB PUSH1 0x0 DUP4 ADD MSTORE PUSH2 0x494 DUP2 DUP5 PUSH2 0x441 JUMP JUMPDEST SWAP1 POP SWAP3 SWAP2 POP POP JUMP JUMPDEST PUSH1 0x0 DUP1 PUSH1 0x0 PUSH1 0x60 DUP5 DUP7 SUB SLT ISZERO PUSH2 0x4B5 JUMPI PUSH2 0x4B4 PUSH2 0x358 JUMP JUMPDEST JUMPDEST PUSH1 0x0 PUSH2 0x4C3 DUP7 DUP3 DUP8 ADD PUSH2 0x37E JUMP JUMPDEST SWAP4 POP POP PUSH1 0x20 PUSH2 0x4D4 DUP7 DUP3 DUP8 ADD PUSH2 0x37E JUMP JUMPDEST SWAP3 POP POP PUSH1 0x40 PUSH2 0x4E5 DUP7 DUP3 DUP8 ADD PUSH2 0x37E JUMP JUMPDEST SWAP2 POP POP SWAP3 POP SWAP3 POP SWAP3 JUMP INVALID LOG2 PUSH5 0x6970667358 0x22 SLT KECCAK256 0xC0 PUSH9 0x59D765BD5E6B32480A 0xBB DUP1 0x22 SWAP11 INVALID LOG0 0xC4 0x26 COINBASE 0xE3 PUSH11 0x7038333F94DE91EBD34B64 PUSH20 0x6F6C634300081100330000000000000000000000 "
		},
		"gasEstimates": {
			"creation": {
				"codeDepositCost": "263400",
				"executionCost": "306",
				"totalCost": "263706"
			},
			"external": {
				"calculateTicketPrice(uint256)": "infinite",
				"checkTriangleType(uint256,uint256,uint256)": "infinite",
				"exampleConditional(uint256)": "406",
				"getGrade(uint256)": "infinite"
			}
		},
		"methodIdentifiers": {
			"calculateTicketPrice(uint256)": "1fe09da1",
			"checkTriangleType(uint256,uint256,uint256)": "e7778f39",
			"exampleConditional(uint256)": "317fce54",
			"getGrade(uint256)": "e1e0485e"
		}
	},
	"abi": [
		{
			"inputs": [
				{
					"internalType": "uint256",
					"name": "age",
					"type": "uint256"
				}
			],
			"name": "calculateTicketPrice",
			"outputs": [
				{
					"internalType": "uint256",
					"name": "price",
					"type": "uint256"
				}
			],
			"stateMutability": "pure",
			"type": "function"
		},
		{
			"inputs": [
				{
					"internalType": "uint256",
					"name": "a",
					"type": "uint256"
				},
				{
					"internalType": "uint256",
					"name": "b",
					"type": "uint256"
				},
				{
					"internalType": "uint256",
					"name": "c",
					"type": "uint256"
				}
			],
			"name": "checkTriangleType",
			"outputs": [
				{
					"internalType": "string",
					"name": "",
					"type": "string"
				}
			],
			"stateMutability": "pure",
			"type": "function"
		},
		{
			"inputs": [
				{
					"internalType": "uint256",
					"name": "number",
					"type": "uint256"
				}
			],
			"name": "exampleConditional",
			"outputs": [],
			"stateMutability": "pure",
			"type": "function"
		},
		{
			"inputs": [
				{
					"internalType": "uint256",
					"name": "score",
					"type": "uint256"
				}
			],
			"name": "getGrade",
			"outputs": [
				{
					"internalType": "string",
					"name": "",
					"type": "string"
				}
			],
			"stateMutability": "pure",
			"type": "function"
		}
	]
}