{
	"Week-5/inheritanceExercise.sol": {
		"Motorcycle": {
			"abi": [
				{
					"inputs": [
						{
							"internalType": "string",
							"name": "_color",
							"type": "string"
						}
					],
					"name": "setColor",
					"outputs": [],
					"stateMutability": "nonpayable",
					"type": "function"
				},
				{
					"inputs": [
						{
							"internalType": "uint256",
							"name": "_engineSize",
							"type": "uint256"
						}
					],
					"name": "setengineSize",
					"outputs": [],
					"stateMutability": "nonpayable",
					"type": "function"
				}
			],
			"devdoc": {
				"kind": "dev",
				"methods": {},
				"version": 1
			},
			"evm": {
				"assembly": "    /* \"Week-5/inheritanceExercise.sol\":1087:1237  contract Motorcycle is Vehicle {... */\n  mstore(0x40, 0x80)\n  callvalue\n  dup1\n  iszero\n  tag_1\n  jumpi\n  0x00\n  dup1\n  revert\ntag_1:\n  pop\n  dataSize(sub_0)\n  dup1\n  dataOffset(sub_0)\n  0x00\n  codecopy\n  0x00\n  return\nstop\n\nsub_0: assembly {\n        /* \"Week-5/inheritanceExercise.sol\":1087:1237  contract Motorcycle is Vehicle {... */\n      mstore(0x40, 0x80)\n      callvalue\n      dup1\n      iszero\n      tag_1\n      jumpi\n      0x00\n      dup1\n      revert\n    tag_1:\n      pop\n      jumpi(tag_2, lt(calldatasize, 0x04))\n      shr(0xe0, calldataload(0x00))\n      dup1\n      0x12d3e2\n      eq\n      tag_3\n      jumpi\n      dup1\n      0x9988fa69\n      eq\n      tag_4\n      jumpi\n    tag_2:\n      0x00\n      dup1\n      revert\n        /* \"Week-5/inheritanceExercise.sol\":1145:1235  function setengineSize(uint _engineSize) public {... */\n    tag_3:\n      tag_5\n      0x04\n      dup1\n      calldatasize\n      sub\n      dup2\n      add\n      swap1\n      tag_6\n      swap2\n      swap1\n      tag_7\n      jump\t// in\n    tag_6:\n      tag_8\n      jump\t// in\n    tag_5:\n      stop\n        /* \"Week-5/inheritanceExercise.sol\":875:953  function setColor(string memory _color) public{... */\n    tag_4:\n      tag_9\n      0x04\n      dup1\n      calldatasize\n      sub\n      dup2\n      add\n      swap1\n      tag_10\n      swap2\n      swap1\n      tag_11\n      jump\t// in\n    tag_10:\n      tag_12\n      jump\t// in\n    tag_9:\n      stop\n        /* \"Week-5/inheritanceExercise.sol\":1145:1235  function setengineSize(uint _engineSize) public {... */\n    tag_8:\n        /* \"Week-5/inheritanceExercise.sol\":1216:1227  _engineSize */\n      dup1\n        /* \"Week-5/inheritanceExercise.sol\":1203:1213  engineSize */\n      0x01\n        /* \"Week-5/inheritanceExercise.sol\":1203:1227  engineSize = _engineSize */\n      dup2\n      swap1\n      sstore\n      pop\n        /* \"Week-5/inheritanceExercise.sol\":1145:1235  function setengineSize(uint _engineSize) public {... */\n      pop\n      jump\t// out\n        /* \"Week-5/inheritanceExercise.sol\":875:953  function setColor(string memory _color) public{... */\n    tag_12:\n        /* \"Week-5/inheritanceExercise.sol\":939:945  _color */\n      dup1\n        /* \"Week-5/inheritanceExercise.sol\":931:936  color */\n      0x00\n        /* \"Week-5/inheritanceExercise.sol\":931:945  color = _color */\n      swap1\n      dup2\n      tag_15\n      swap2\n      swap1\n      tag_16\n      jump\t// in\n    tag_15:\n      pop\n        /* \"Week-5/inheritanceExercise.sol\":875:953  function setColor(string memory _color) public{... */\n      pop\n      jump\t// out\n        /* \"#utility.yul\":7:82   */\n    tag_17:\n        /* \"#utility.yul\":40:46   */\n      0x00\n        /* \"#utility.yul\":73:75   */\n      0x40\n        /* \"#utility.yul\":67:76   */\n      mload\n        /* \"#utility.yul\":57:76   */\n      swap1\n      pop\n        /* \"#utility.yul\":7:82   */\n      swap1\n      jump\t// out\n        /* \"#utility.yul\":88:205   */\n    tag_18:\n        /* \"#utility.yul\":197:198   */\n      0x00\n        /* \"#utility.yul\":194:195   */\n      dup1\n        /* \"#utility.yul\":187:199   */\n      revert\n        /* \"#utility.yul\":211:328   */\n    tag_19:\n        /* \"#utility.yul\":320:321   */\n      0x00\n        /* \"#utility.yul\":317:318   */\n      dup1\n        /* \"#utility.yul\":310:322   */\n      revert\n        /* \"#utility.yul\":334:411   */\n    tag_20:\n        /* \"#utility.yul\":371:378   */\n      0x00\n        /* \"#utility.yul\":400:405   */\n      dup2\n        /* \"#utility.yul\":389:405   */\n      swap1\n      pop\n        /* \"#utility.yul\":334:411   */\n      swap2\n      swap1\n      pop\n      jump\t// out\n        /* \"#utility.yul\":417:539   */\n    tag_21:\n        /* \"#utility.yul\":490:514   */\n      tag_57\n        /* \"#utility.yul\":508:513   */\n      dup2\n        /* \"#utility.yul\":490:514   */\n      tag_20\n      jump\t// in\n    tag_57:\n        /* \"#utility.yul\":483:488   */\n      dup2\n        /* \"#utility.yul\":480:515   */\n      eq\n        /* \"#utility.yul\":470:533   */\n      tag_58\n      jumpi\n        /* \"#utility.yul\":529:530   */\n      0x00\n        /* \"#utility.yul\":526:527   */\n      dup1\n        /* \"#utility.yul\":519:531   */\n      revert\n        /* \"#utility.yul\":470:533   */\n    tag_58:\n        /* \"#utility.yul\":417:539   */\n      pop\n      jump\t// out\n        /* \"#utility.yul\":545:684   */\n    tag_22:\n        /* \"#utility.yul\":591:596   */\n      0x00\n        /* \"#utility.yul\":629:635   */\n      dup2\n        /* \"#utility.yul\":616:636   */\n      calldataload\n        /* \"#utility.yul\":607:636   */\n      swap1\n      pop\n        /* \"#utility.yul\":645:678   */\n      tag_60\n        /* \"#utility.yul\":672:677   */\n      dup2\n        /* \"#utility.yul\":645:678   */\n      tag_21\n      jump\t// in\n    tag_60:\n        /* \"#utility.yul\":545:684   */\n      swap3\n      swap2\n      pop\n      pop\n      jump\t// out\n        /* \"#utility.yul\":690:1019   */\n    tag_7:\n        /* \"#utility.yul\":749:755   */\n      0x00\n        /* \"#utility.yul\":798:800   */\n      0x20\n        /* \"#utility.yul\":786:795   */\n      dup3\n        /* \"#utility.yul\":777:784   */\n      dup5\n        /* \"#utility.yul\":773:796   */\n      sub\n        /* \"#utility.yul\":769:801   */\n      slt\n        /* \"#utility.yul\":766:885   */\n      iszero\n      tag_62\n      jumpi\n        /* \"#utility.yul\":804:883   */\n      tag_63\n      tag_18\n      jump\t// in\n    tag_63:\n        /* \"#utility.yul\":766:885   */\n    tag_62:\n        /* \"#utility.yul\":924:925   */\n      0x00\n        /* \"#utility.yul\":949:1002   */\n      tag_64\n        /* \"#utility.yul\":994:1001   */\n      dup5\n        /* \"#utility.yul\":985:991   */\n      dup3\n        /* \"#utility.yul\":974:983   */\n      dup6\n        /* \"#utility.yul\":970:992   */\n      add\n        /* \"#utility.yul\":949:1002   */\n      tag_22\n      jump\t// in\n    tag_64:\n        /* \"#utility.yul\":939:1002   */\n      swap2\n      pop\n        /* \"#utility.yul\":895:1012   */\n      pop\n        /* \"#utility.yul\":690:1019   */\n      swap3\n      swap2\n      pop\n      pop\n      jump\t// out\n        /* \"#utility.yul\":1025:1142   */\n    tag_23:\n        /* \"#utility.yul\":1134:1135   */\n      0x00\n        /* \"#utility.yul\":1131:1132   */\n      dup1\n        /* \"#utility.yul\":1124:1136   */\n      revert\n        /* \"#utility.yul\":1148:1265   */\n    tag_24:\n        /* \"#utility.yul\":1257:1258   */\n      0x00\n        /* \"#utility.yul\":1254:1255   */\n      dup1\n        /* \"#utility.yul\":1247:1259   */\n      revert\n        /* \"#utility.yul\":1271:1373   */\n    tag_25:\n        /* \"#utility.yul\":1312:1318   */\n      0x00\n        /* \"#utility.yul\":1363:1365   */\n      0x1f\n        /* \"#utility.yul\":1359:1366   */\n      not\n        /* \"#utility.yul\":1354:1356   */\n      0x1f\n        /* \"#utility.yul\":1347:1352   */\n      dup4\n        /* \"#utility.yul\":1343:1357   */\n      add\n        /* \"#utility.yul\":1339:1367   */\n      and\n        /* \"#utility.yul\":1329:1367   */\n      swap1\n      pop\n        /* \"#utility.yul\":1271:1373   */\n      swap2\n      swap1\n      pop\n      jump\t// out\n        /* \"#utility.yul\":1379:1559   */\n    tag_26:\n        /* \"#utility.yul\":1427:1504   */\n      0x4e487b7100000000000000000000000000000000000000000000000000000000\n        /* \"#utility.yul\":1424:1425   */\n      0x00\n        /* \"#utility.yul\":1417:1505   */\n      mstore\n        /* \"#utility.yul\":1524:1528   */\n      0x41\n        /* \"#utility.yul\":1521:1522   */\n      0x04\n        /* \"#utility.yul\":1514:1529   */\n      mstore\n        /* \"#utility.yul\":1548:1552   */\n      0x24\n        /* \"#utility.yul\":1545:1546   */\n      0x00\n        /* \"#utility.yul\":1538:1553   */\n      revert\n        /* \"#utility.yul\":1565:1846   */\n    tag_27:\n        /* \"#utility.yul\":1648:1675   */\n      tag_70\n        /* \"#utility.yul\":1670:1674   */\n      dup3\n        /* \"#utility.yul\":1648:1675   */\n      tag_25\n      jump\t// in\n    tag_70:\n        /* \"#utility.yul\":1640:1646   */\n      dup2\n        /* \"#utility.yul\":1636:1676   */\n      add\n        /* \"#utility.yul\":1778:1784   */\n      dup2\n        /* \"#utility.yul\":1766:1776   */\n      dup2\n        /* \"#utility.yul\":1763:1785   */\n      lt\n        /* \"#utility.yul\":1742:1760   */\n      0xffffffffffffffff\n        /* \"#utility.yul\":1730:1740   */\n      dup3\n        /* \"#utility.yul\":1727:1761   */\n      gt\n        /* \"#utility.yul\":1724:1786   */\n      or\n        /* \"#utility.yul\":1721:1809   */\n      iszero\n      tag_71\n      jumpi\n        /* \"#utility.yul\":1789:1807   */\n      tag_72\n      tag_26\n      jump\t// in\n    tag_72:\n        /* \"#utility.yul\":1721:1809   */\n    tag_71:\n        /* \"#utility.yul\":1829:1839   */\n      dup1\n        /* \"#utility.yul\":1825:1827   */\n      0x40\n        /* \"#utility.yul\":1818:1840   */\n      mstore\n        /* \"#utility.yul\":1608:1846   */\n      pop\n        /* \"#utility.yul\":1565:1846   */\n      pop\n      pop\n      jump\t// out\n        /* \"#utility.yul\":1852:1981   */\n    tag_28:\n        /* \"#utility.yul\":1886:1892   */\n      0x00\n        /* \"#utility.yul\":1913:1933   */\n      tag_74\n      tag_17\n      jump\t// in\n    tag_74:\n        /* \"#utility.yul\":1903:1933   */\n      swap1\n      pop\n        /* \"#utility.yul\":1942:1975   */\n      tag_75\n        /* \"#utility.yul\":1970:1974   */\n      dup3\n        /* \"#utility.yul\":1962:1968   */\n      dup3\n        /* \"#utility.yul\":1942:1975   */\n      tag_27\n      jump\t// in\n    tag_75:\n        /* \"#utility.yul\":1852:1981   */\n      swap2\n      swap1\n      pop\n      jump\t// out\n        /* \"#utility.yul\":1987:2295   */\n    tag_29:\n        /* \"#utility.yul\":2049:2053   */\n      0x00\n        /* \"#utility.yul\":2139:2157   */\n      0xffffffffffffffff\n        /* \"#utility.yul\":2131:2137   */\n      dup3\n        /* \"#utility.yul\":2128:2158   */\n      gt\n        /* \"#utility.yul\":2125:2181   */\n      iszero\n      tag_77\n      jumpi\n        /* \"#utility.yul\":2161:2179   */\n      tag_78\n      tag_26\n      jump\t// in\n    tag_78:\n        /* \"#utility.yul\":2125:2181   */\n    tag_77:\n        /* \"#utility.yul\":2199:2228   */\n      tag_79\n        /* \"#utility.yul\":2221:2227   */\n      dup3\n        /* \"#utility.yul\":2199:2228   */\n      tag_25\n      jump\t// in\n    tag_79:\n        /* \"#utility.yul\":2191:2228   */\n      swap1\n      pop\n        /* \"#utility.yul\":2283:2287   */\n      0x20\n        /* \"#utility.yul\":2277:2281   */\n      dup2\n        /* \"#utility.yul\":2273:2288   */\n      add\n        /* \"#utility.yul\":2265:2288   */\n      swap1\n      pop\n        /* \"#utility.yul\":1987:2295   */\n      swap2\n      swap1\n      pop\n      jump\t// out\n        /* \"#utility.yul\":2301:2447   */\n    tag_30:\n        /* \"#utility.yul\":2398:2404   */\n      dup3\n        /* \"#utility.yul\":2393:2396   */\n      dup2\n        /* \"#utility.yul\":2388:2391   */\n      dup4\n        /* \"#utility.yul\":2375:2405   */\n      calldatacopy\n        /* \"#utility.yul\":2439:2440   */\n      0x00\n        /* \"#utility.yul\":2430:2436   */\n      dup4\n        /* \"#utility.yul\":2425:2428   */\n      dup4\n        /* \"#utility.yul\":2421:2437   */\n      add\n        /* \"#utility.yul\":2414:2441   */\n      mstore\n        /* \"#utility.yul\":2301:2447   */\n      pop\n      pop\n      pop\n      jump\t// out\n        /* \"#utility.yul\":2453:2878   */\n    tag_31:\n        /* \"#utility.yul\":2531:2536   */\n      0x00\n        /* \"#utility.yul\":2556:2622   */\n      tag_82\n        /* \"#utility.yul\":2572:2621   */\n      tag_83\n        /* \"#utility.yul\":2614:2620   */\n      dup5\n        /* \"#utility.yul\":2572:2621   */\n      tag_29\n      jump\t// in\n    tag_83:\n        /* \"#utility.yul\":2556:2622   */\n      tag_28\n      jump\t// in\n    tag_82:\n        /* \"#utility.yul\":2547:2622   */\n      swap1\n      pop\n        /* \"#utility.yul\":2645:2651   */\n      dup3\n        /* \"#utility.yul\":2638:2643   */\n      dup2\n        /* \"#utility.yul\":2631:2652   */\n      mstore\n        /* \"#utility.yul\":2683:2687   */\n      0x20\n        /* \"#utility.yul\":2676:2681   */\n      dup2\n        /* \"#utility.yul\":2672:2688   */\n      add\n        /* \"#utility.yul\":2721:2724   */\n      dup5\n        /* \"#utility.yul\":2712:2718   */\n      dup5\n        /* \"#utility.yul\":2707:2710   */\n      dup5\n        /* \"#utility.yul\":2703:2719   */\n      add\n        /* \"#utility.yul\":2700:2725   */\n      gt\n        /* \"#utility.yul\":2697:2809   */\n      iszero\n      tag_84\n      jumpi\n        /* \"#utility.yul\":2728:2807   */\n      tag_85\n      tag_24\n      jump\t// in\n    tag_85:\n        /* \"#utility.yul\":2697:2809   */\n    tag_84:\n        /* \"#utility.yul\":2818:2872   */\n      tag_86\n        /* \"#utility.yul\":2865:2871   */\n      dup5\n        /* \"#utility.yul\":2860:2863   */\n      dup3\n        /* \"#utility.yul\":2855:2858   */\n      dup6\n        /* \"#utility.yul\":2818:2872   */\n      tag_30\n      jump\t// in\n    tag_86:\n        /* \"#utility.yul\":2537:2878   */\n      pop\n        /* \"#utility.yul\":2453:2878   */\n      swap4\n      swap3\n      pop\n      pop\n      pop\n      jump\t// out\n        /* \"#utility.yul\":2898:3238   */\n    tag_32:\n        /* \"#utility.yul\":2954:2959   */\n      0x00\n        /* \"#utility.yul\":3003:3006   */\n      dup3\n        /* \"#utility.yul\":2996:3000   */\n      0x1f\n        /* \"#utility.yul\":2988:2994   */\n      dup4\n        /* \"#utility.yul\":2984:3001   */\n      add\n        /* \"#utility.yul\":2980:3007   */\n      slt\n        /* \"#utility.yul\":2970:3092   */\n      tag_88\n      jumpi\n        /* \"#utility.yul\":3011:3090   */\n      tag_89\n      tag_23\n      jump\t// in\n    tag_89:\n        /* \"#utility.yul\":2970:3092   */\n    tag_88:\n        /* \"#utility.yul\":3128:3134   */\n      dup2\n        /* \"#utility.yul\":3115:3135   */\n      calldataload\n        /* \"#utility.yul\":3153:3232   */\n      tag_90\n        /* \"#utility.yul\":3228:3231   */\n      dup5\n        /* \"#utility.yul\":3220:3226   */\n      dup3\n        /* \"#utility.yul\":3213:3217   */\n      0x20\n        /* \"#utility.yul\":3205:3211   */\n      dup7\n        /* \"#utility.yul\":3201:3218   */\n      add\n        /* \"#utility.yul\":3153:3232   */\n      tag_31\n      jump\t// in\n    tag_90:\n        /* \"#utility.yul\":3144:3232   */\n      swap2\n      pop\n        /* \"#utility.yul\":2960:3238   */\n      pop\n        /* \"#utility.yul\":2898:3238   */\n      swap3\n      swap2\n      pop\n      pop\n      jump\t// out\n        /* \"#utility.yul\":3244:3753   */\n    tag_11:\n        /* \"#utility.yul\":3313:3319   */\n      0x00\n        /* \"#utility.yul\":3362:3364   */\n      0x20\n        /* \"#utility.yul\":3350:3359   */\n      dup3\n        /* \"#utility.yul\":3341:3348   */\n      dup5\n        /* \"#utility.yul\":3337:3360   */\n      sub\n        /* \"#utility.yul\":3333:3365   */\n      slt\n        /* \"#utility.yul\":3330:3449   */\n      iszero\n      tag_92\n      jumpi\n        /* \"#utility.yul\":3368:3447   */\n      tag_93\n      tag_18\n      jump\t// in\n    tag_93:\n        /* \"#utility.yul\":3330:3449   */\n    tag_92:\n        /* \"#utility.yul\":3516:3517   */\n      0x00\n        /* \"#utility.yul\":3505:3514   */\n      dup3\n        /* \"#utility.yul\":3501:3518   */\n      add\n        /* \"#utility.yul\":3488:3519   */\n      calldataload\n        /* \"#utility.yul\":3546:3564   */\n      0xffffffffffffffff\n        /* \"#utility.yul\":3538:3544   */\n      dup2\n        /* \"#utility.yul\":3535:3565   */\n      gt\n        /* \"#utility.yul\":3532:3649   */\n      iszero\n      tag_94\n      jumpi\n        /* \"#utility.yul\":3568:3647   */\n      tag_95\n      tag_19\n      jump\t// in\n    tag_95:\n        /* \"#utility.yul\":3532:3649   */\n    tag_94:\n        /* \"#utility.yul\":3673:3736   */\n      tag_96\n        /* \"#utility.yul\":3728:3735   */\n      dup5\n        /* \"#utility.yul\":3719:3725   */\n      dup3\n        /* \"#utility.yul\":3708:3717   */\n      dup6\n        /* \"#utility.yul\":3704:3726   */\n      add\n        /* \"#utility.yul\":3673:3736   */\n      tag_32\n      jump\t// in\n    tag_96:\n        /* \"#utility.yul\":3663:3736   */\n      swap2\n      pop\n        /* \"#utility.yul\":3459:3746   */\n      pop\n        /* \"#utility.yul\":3244:3753   */\n      swap3\n      swap2\n      pop\n      pop\n      jump\t// out\n        /* \"#utility.yul\":3759:3858   */\n    tag_33:\n        /* \"#utility.yul\":3811:3817   */\n      0x00\n        /* \"#utility.yul\":3845:3850   */\n      dup2\n        /* \"#utility.yul\":3839:3851   */\n      mload\n        /* \"#utility.yul\":3829:3851   */\n      swap1\n      pop\n        /* \"#utility.yul\":3759:3858   */\n      swap2\n      swap1\n      pop\n      jump\t// out\n        /* \"#utility.yul\":3864:4044   */\n    tag_34:\n        /* \"#utility.yul\":3912:3989   */\n      0x4e487b7100000000000000000000000000000000000000000000000000000000\n        /* \"#utility.yul\":3909:3910   */\n      0x00\n        /* \"#utility.yul\":3902:3990   */\n      mstore\n        /* \"#utility.yul\":4009:4013   */\n      0x22\n        /* \"#utility.yul\":4006:4007   */\n      0x04\n        /* \"#utility.yul\":3999:4014   */\n      mstore\n        /* \"#utility.yul\":4033:4037   */\n      0x24\n        /* \"#utility.yul\":4030:4031   */\n      0x00\n        /* \"#utility.yul\":4023:4038   */\n      revert\n        /* \"#utility.yul\":4050:4370   */\n    tag_35:\n        /* \"#utility.yul\":4094:4100   */\n      0x00\n        /* \"#utility.yul\":4131:4132   */\n      0x02\n        /* \"#utility.yul\":4125:4129   */\n      dup3\n        /* \"#utility.yul\":4121:4133   */\n      div\n        /* \"#utility.yul\":4111:4133   */\n      swap1\n      pop\n        /* \"#utility.yul\":4178:4179   */\n      0x01\n        /* \"#utility.yul\":4172:4176   */\n      dup3\n        /* \"#utility.yul\":4168:4180   */\n      and\n        /* \"#utility.yul\":4199:4217   */\n      dup1\n        /* \"#utility.yul\":4189:4270   */\n      tag_100\n      jumpi\n        /* \"#utility.yul\":4255:4259   */\n      0x7f\n        /* \"#utility.yul\":4247:4253   */\n      dup3\n        /* \"#utility.yul\":4243:4260   */\n      and\n        /* \"#utility.yul\":4233:4260   */\n      swap2\n      pop\n        /* \"#utility.yul\":4189:4270   */\n    tag_100:\n        /* \"#utility.yul\":4317:4319   */\n      0x20\n        /* \"#utility.yul\":4309:4315   */\n      dup3\n        /* \"#utility.yul\":4306:4320   */\n      lt\n        /* \"#utility.yul\":4286:4304   */\n      dup2\n        /* \"#utility.yul\":4283:4321   */\n      sub\n        /* \"#utility.yul\":4280:4364   */\n      tag_101\n      jumpi\n        /* \"#utility.yul\":4336:4354   */\n      tag_102\n      tag_34\n      jump\t// in\n    tag_102:\n        /* \"#utility.yul\":4280:4364   */\n    tag_101:\n        /* \"#utility.yul\":4101:4370   */\n      pop\n        /* \"#utility.yul\":4050:4370   */\n      swap2\n      swap1\n      pop\n      jump\t// out\n        /* \"#utility.yul\":4376:4517   */\n    tag_36:\n        /* \"#utility.yul\":4425:4429   */\n      0x00\n        /* \"#utility.yul\":4448:4451   */\n      dup2\n        /* \"#utility.yul\":4440:4451   */\n      swap1\n      pop\n        /* \"#utility.yul\":4471:4474   */\n      dup2\n        /* \"#utility.yul\":4468:4469   */\n      0x00\n        /* \"#utility.yul\":4461:4475   */\n      mstore\n        /* \"#utility.yul\":4505:4509   */\n      0x20\n        /* \"#utility.yul\":4502:4503   */\n      0x00\n        /* \"#utility.yul\":4492:4510   */\n      keccak256\n        /* \"#utility.yul\":4484:4510   */\n      swap1\n      pop\n        /* \"#utility.yul\":4376:4517   */\n      swap2\n      swap1\n      pop\n      jump\t// out\n        /* \"#utility.yul\":4523:4616   */\n    tag_37:\n        /* \"#utility.yul\":4560:4566   */\n      0x00\n        /* \"#utility.yul\":4607:4609   */\n      0x20\n        /* \"#utility.yul\":4602:4604   */\n      0x1f\n        /* \"#utility.yul\":4595:4600   */\n      dup4\n        /* \"#utility.yul\":4591:4605   */\n      add\n        /* \"#utility.yul\":4587:4610   */\n      div\n        /* \"#utility.yul\":4577:4610   */\n      swap1\n      pop\n        /* \"#utility.yul\":4523:4616   */\n      swap2\n      swap1\n      pop\n      jump\t// out\n        /* \"#utility.yul\":4622:4729   */\n    tag_38:\n        /* \"#utility.yul\":4666:4674   */\n      0x00\n        /* \"#utility.yul\":4716:4721   */\n      dup3\n        /* \"#utility.yul\":4710:4714   */\n      dup3\n        /* \"#utility.yul\":4706:4722   */\n      shl\n        /* \"#utility.yul\":4685:4722   */\n      swap1\n      pop\n        /* \"#utility.yul\":4622:4729   */\n      swap3\n      swap2\n      pop\n      pop\n      jump\t// out\n        /* \"#utility.yul\":4735:5128   */\n    tag_39:\n        /* \"#utility.yul\":4804:4810   */\n      0x00\n        /* \"#utility.yul\":4854:4855   */\n      0x08\n        /* \"#utility.yul\":4842:4852   */\n      dup4\n        /* \"#utility.yul\":4838:4856   */\n      mul\n        /* \"#utility.yul\":4877:4974   */\n      tag_107\n        /* \"#utility.yul\":4907:4973   */\n      0xffffffffffffffffffffffffffffffffffffffffffffffffffffffffffffffff\n        /* \"#utility.yul\":4896:4905   */\n      dup3\n        /* \"#utility.yul\":4877:4974   */\n      tag_38\n      jump\t// in\n    tag_107:\n        /* \"#utility.yul\":4995:5034   */\n      tag_108\n        /* \"#utility.yul\":5025:5033   */\n      dup7\n        /* \"#utility.yul\":5014:5023   */\n      dup4\n        /* \"#utility.yul\":4995:5034   */\n      tag_38\n      jump\t// in\n    tag_108:\n        /* \"#utility.yul\":4983:5034   */\n      swap6\n      pop\n        /* \"#utility.yul\":5067:5071   */\n      dup1\n        /* \"#utility.yul\":5063:5072   */\n      not\n        /* \"#utility.yul\":5056:5061   */\n      dup5\n        /* \"#utility.yul\":5052:5073   */\n      and\n        /* \"#utility.yul\":5043:5073   */\n      swap4\n      pop\n        /* \"#utility.yul\":5116:5120   */\n      dup1\n        /* \"#utility.yul\":5106:5114   */\n      dup7\n        /* \"#utility.yul\":5102:5121   */\n      and\n        /* \"#utility.yul\":5095:5100   */\n      dup5\n        /* \"#utility.yul\":5092:5122   */\n      or\n        /* \"#utility.yul\":5082:5122   */\n      swap3\n      pop\n        /* \"#utility.yul\":4811:5128   */\n      pop\n      pop\n        /* \"#utility.yul\":4735:5128   */\n      swap4\n      swap3\n      pop\n      pop\n      pop\n      jump\t// out\n        /* \"#utility.yul\":5134:5194   */\n    tag_40:\n        /* \"#utility.yul\":5162:5165   */\n      0x00\n        /* \"#utility.yul\":5183:5188   */\n      dup2\n        /* \"#utility.yul\":5176:5188   */\n      swap1\n      pop\n        /* \"#utility.yul\":5134:5194   */\n      swap2\n      swap1\n      pop\n      jump\t// out\n        /* \"#utility.yul\":5200:5342   */\n    tag_41:\n        /* \"#utility.yul\":5250:5259   */\n      0x00\n        /* \"#utility.yul\":5283:5336   */\n      tag_111\n        /* \"#utility.yul\":5301:5335   */\n      tag_112\n        /* \"#utility.yul\":5310:5334   */\n      tag_113\n        /* \"#utility.yul\":5328:5333   */\n      dup5\n        /* \"#utility.yul\":5310:5334   */\n      tag_20\n      jump\t// in\n    tag_113:\n        /* \"#utility.yul\":5301:5335   */\n      tag_40\n      jump\t// in\n    tag_112:\n        /* \"#utility.yul\":5283:5336   */\n      tag_20\n      jump\t// in\n    tag_111:\n        /* \"#utility.yul\":5270:5336   */\n      swap1\n      pop\n        /* \"#utility.yul\":5200:5342   */\n      swap2\n      swap1\n      pop\n      jump\t// out\n        /* \"#utility.yul\":5348:5423   */\n    tag_42:\n        /* \"#utility.yul\":5391:5394   */\n      0x00\n        /* \"#utility.yul\":5412:5417   */\n      dup2\n        /* \"#utility.yul\":5405:5417   */\n      swap1\n      pop\n        /* \"#utility.yul\":5348:5423   */\n      swap2\n      swap1\n      pop\n      jump\t// out\n        /* \"#utility.yul\":5429:5698   */\n    tag_43:\n        /* \"#utility.yul\":5539:5578   */\n      tag_116\n        /* \"#utility.yul\":5570:5577   */\n      dup4\n        /* \"#utility.yul\":5539:5578   */\n      tag_41\n      jump\t// in\n    tag_116:\n        /* \"#utility.yul\":5600:5691   */\n      tag_117\n        /* \"#utility.yul\":5649:5690   */\n      tag_118\n        /* \"#utility.yul\":5673:5689   */\n      dup3\n        /* \"#utility.yul\":5649:5690   */\n      tag_42\n      jump\t// in\n    tag_118:\n        /* \"#utility.yul\":5641:5647   */\n      dup5\n        /* \"#utility.yul\":5634:5638   */\n      dup5\n        /* \"#utility.yul\":5628:5639   */\n      sload\n        /* \"#utility.yul\":5600:5691   */\n      tag_39\n      jump\t// in\n    tag_117:\n        /* \"#utility.yul\":5594:5598   */\n      dup3\n        /* \"#utility.yul\":5587:5692   */\n      sstore\n        /* \"#utility.yul\":5505:5698   */\n      pop\n        /* \"#utility.yul\":5429:5698   */\n      pop\n      pop\n      pop\n      jump\t// out\n        /* \"#utility.yul\":5704:5777   */\n    tag_44:\n        /* \"#utility.yul\":5749:5752   */\n      0x00\n        /* \"#utility.yul\":5704:5777   */\n      swap1\n      jump\t// out\n        /* \"#utility.yul\":5783:5972   */\n    tag_45:\n        /* \"#utility.yul\":5860:5892   */\n      tag_121\n      tag_44\n      jump\t// in\n    tag_121:\n        /* \"#utility.yul\":5901:5966   */\n      tag_122\n        /* \"#utility.yul\":5959:5965   */\n      dup2\n        /* \"#utility.yul\":5951:5957   */\n      dup5\n        /* \"#utility.yul\":5945:5949   */\n      dup5\n        /* \"#utility.yul\":5901:5966   */\n      tag_43\n      jump\t// in\n    tag_122:\n        /* \"#utility.yul\":5836:5972   */\n      pop\n        /* \"#utility.yul\":5783:5972   */\n      pop\n      pop\n      jump\t// out\n        /* \"#utility.yul\":5978:6164   */\n    tag_46:\n        /* \"#utility.yul\":6038:6158   */\n    tag_124:\n        /* \"#utility.yul\":6055:6058   */\n      dup2\n        /* \"#utility.yul\":6048:6053   */\n      dup2\n        /* \"#utility.yul\":6045:6059   */\n      lt\n        /* \"#utility.yul\":6038:6158   */\n      iszero\n      tag_126\n      jumpi\n        /* \"#utility.yul\":6109:6148   */\n      tag_127\n        /* \"#utility.yul\":6146:6147   */\n      0x00\n        /* \"#utility.yul\":6139:6144   */\n      dup3\n        /* \"#utility.yul\":6109:6148   */\n      tag_45\n      jump\t// in\n    tag_127:\n        /* \"#utility.yul\":6082:6083   */\n      0x01\n        /* \"#utility.yul\":6075:6080   */\n      dup2\n        /* \"#utility.yul\":6071:6084   */\n      add\n        /* \"#utility.yul\":6062:6084   */\n      swap1\n      pop\n        /* \"#utility.yul\":6038:6158   */\n      jump(tag_124)\n    tag_126:\n        /* \"#utility.yul\":5978:6164   */\n      pop\n      pop\n      jump\t// out\n        /* \"#utility.yul\":6170:6713   */\n    tag_47:\n        /* \"#utility.yul\":6271:6273   */\n      0x1f\n        /* \"#utility.yul\":6266:6269   */\n      dup3\n        /* \"#utility.yul\":6263:6274   */\n      gt\n        /* \"#utility.yul\":6260:6706   */\n      iszero\n      tag_129\n      jumpi\n        /* \"#utility.yul\":6305:6343   */\n      tag_130\n        /* \"#utility.yul\":6337:6342   */\n      dup2\n        /* \"#utility.yul\":6305:6343   */\n      tag_36\n      jump\t// in\n    tag_130:\n        /* \"#utility.yul\":6389:6418   */\n      tag_131\n        /* \"#utility.yul\":6407:6417   */\n      dup5\n        /* \"#utility.yul\":6389:6418   */\n      tag_37\n      jump\t// in\n    tag_131:\n        /* \"#utility.yul\":6379:6387   */\n      dup2\n        /* \"#utility.yul\":6375:6419   */\n      add\n        /* \"#utility.yul\":6572:6574   */\n      0x20\n        /* \"#utility.yul\":6560:6570   */\n      dup6\n        /* \"#utility.yul\":6557:6575   */\n      lt\n        /* \"#utility.yul\":6554:6603   */\n      iszero\n      tag_132\n      jumpi\n        /* \"#utility.yul\":6593:6601   */\n      dup2\n        /* \"#utility.yul\":6578:6601   */\n      swap1\n      pop\n        /* \"#utility.yul\":6554:6603   */\n    tag_132:\n        /* \"#utility.yul\":6616:6696   */\n      tag_133\n        /* \"#utility.yul\":6672:6694   */\n      tag_134\n        /* \"#utility.yul\":6690:6693   */\n      dup6\n        /* \"#utility.yul\":6672:6694   */\n      tag_37\n      jump\t// in\n    tag_134:\n        /* \"#utility.yul\":6662:6670   */\n      dup4\n        /* \"#utility.yul\":6658:6695   */\n      add\n        /* \"#utility.yul\":6645:6656   */\n      dup3\n        /* \"#utility.yul\":6616:6696   */\n      tag_46\n      jump\t// in\n    tag_133:\n        /* \"#utility.yul\":6275:6706   */\n      pop\n      pop\n        /* \"#utility.yul\":6260:6706   */\n    tag_129:\n        /* \"#utility.yul\":6170:6713   */\n      pop\n      pop\n      pop\n      jump\t// out\n        /* \"#utility.yul\":6719:6836   */\n    tag_48:\n        /* \"#utility.yul\":6773:6781   */\n      0x00\n        /* \"#utility.yul\":6823:6828   */\n      dup3\n        /* \"#utility.yul\":6817:6821   */\n      dup3\n        /* \"#utility.yul\":6813:6829   */\n      shr\n        /* \"#utility.yul\":6792:6829   */\n      swap1\n      pop\n        /* \"#utility.yul\":6719:6836   */\n      swap3\n      swap2\n      pop\n      pop\n      jump\t// out\n        /* \"#utility.yul\":6842:7011   */\n    tag_49:\n        /* \"#utility.yul\":6886:6892   */\n      0x00\n        /* \"#utility.yul\":6919:6970   */\n      tag_137\n        /* \"#utility.yul\":6967:6968   */\n      0x00\n        /* \"#utility.yul\":6963:6969   */\n      not\n        /* \"#utility.yul\":6955:6960   */\n      dup5\n        /* \"#utility.yul\":6952:6953   */\n      0x08\n        /* \"#utility.yul\":6948:6961   */\n      mul\n        /* \"#utility.yul\":6919:6970   */\n      tag_48\n      jump\t// in\n    tag_137:\n        /* \"#utility.yul\":6915:6971   */\n      not\n        /* \"#utility.yul\":7000:7004   */\n      dup1\n        /* \"#utility.yul\":6994:6998   */\n      dup4\n        /* \"#utility.yul\":6990:7005   */\n      and\n        /* \"#utility.yul\":6980:7005   */\n      swap2\n      pop\n        /* \"#utility.yul\":6893:7011   */\n      pop\n        /* \"#utility.yul\":6842:7011   */\n      swap3\n      swap2\n      pop\n      pop\n      jump\t// out\n        /* \"#utility.yul\":7016:7311   */\n    tag_50:\n        /* \"#utility.yul\":7092:7096   */\n      0x00\n        /* \"#utility.yul\":7238:7267   */\n      tag_139\n        /* \"#utility.yul\":7263:7266   */\n      dup4\n        /* \"#utility.yul\":7257:7261   */\n      dup4\n        /* \"#utility.yul\":7238:7267   */\n      tag_49\n      jump\t// in\n    tag_139:\n        /* \"#utility.yul\":7230:7267   */\n      swap2\n      pop\n        /* \"#utility.yul\":7300:7303   */\n      dup3\n        /* \"#utility.yul\":7297:7298   */\n      0x02\n        /* \"#utility.yul\":7293:7304   */\n      mul\n        /* \"#utility.yul\":7287:7291   */\n      dup3\n        /* \"#utility.yul\":7284:7305   */\n      or\n        /* \"#utility.yul\":7276:7305   */\n      swap1\n      pop\n        /* \"#utility.yul\":7016:7311   */\n      swap3\n      swap2\n      pop\n      pop\n      jump\t// out\n        /* \"#utility.yul\":7316:8711   */\n    tag_16:\n        /* \"#utility.yul\":7433:7470   */\n      tag_141\n        /* \"#utility.yul\":7466:7469   */\n      dup3\n        /* \"#utility.yul\":7433:7470   */\n      tag_33\n      jump\t// in\n    tag_141:\n        /* \"#utility.yul\":7535:7553   */\n      0xffffffffffffffff\n        /* \"#utility.yul\":7527:7533   */\n      dup2\n        /* \"#utility.yul\":7524:7554   */\n      gt\n        /* \"#utility.yul\":7521:7577   */\n      iszero\n      tag_142\n      jumpi\n        /* \"#utility.yul\":7557:7575   */\n      tag_143\n      tag_26\n      jump\t// in\n    tag_143:\n        /* \"#utility.yul\":7521:7577   */\n    tag_142:\n        /* \"#utility.yul\":7601:7639   */\n      tag_144\n        /* \"#utility.yul\":7633:7637   */\n      dup3\n        /* \"#utility.yul\":7627:7638   */\n      sload\n        /* \"#utility.yul\":7601:7639   */\n      tag_35\n      jump\t// in\n    tag_144:\n        /* \"#utility.yul\":7686:7753   */\n      tag_145\n        /* \"#utility.yul\":7746:7752   */\n      dup3\n        /* \"#utility.yul\":7738:7744   */\n      dup3\n        /* \"#utility.yul\":7732:7736   */\n      dup6\n        /* \"#utility.yul\":7686:7753   */\n      tag_47\n      jump\t// in\n    tag_145:\n        /* \"#utility.yul\":7780:7781   */\n      0x00\n        /* \"#utility.yul\":7804:7808   */\n      0x20\n        /* \"#utility.yul\":7791:7808   */\n      swap1\n      pop\n        /* \"#utility.yul\":7836:7838   */\n      0x1f\n        /* \"#utility.yul\":7828:7834   */\n      dup4\n        /* \"#utility.yul\":7825:7839   */\n      gt\n        /* \"#utility.yul\":7853:7854   */\n      0x01\n        /* \"#utility.yul\":7848:8466   */\n      dup2\n      eq\n      tag_147\n      jumpi\n        /* \"#utility.yul\":8510:8511   */\n      0x00\n        /* \"#utility.yul\":8527:8533   */\n      dup5\n        /* \"#utility.yul\":8524:8601   */\n      iszero\n      tag_148\n      jumpi\n        /* \"#utility.yul\":8576:8585   */\n      dup3\n        /* \"#utility.yul\":8571:8574   */\n      dup8\n        /* \"#utility.yul\":8567:8586   */\n      add\n        /* \"#utility.yul\":8561:8587   */\n      mload\n        /* \"#utility.yul\":8552:8587   */\n      swap1\n      pop\n        /* \"#utility.yul\":8524:8601   */\n    tag_148:\n        /* \"#utility.yul\":8627:8694   */\n      tag_149\n        /* \"#utility.yul\":8687:8693   */\n      dup6\n        /* \"#utility.yul\":8680:8685   */\n      dup3\n        /* \"#utility.yul\":8627:8694   */\n      tag_50\n      jump\t// in\n    tag_149:\n        /* \"#utility.yul\":8621:8625   */\n      dup7\n        /* \"#utility.yul\":8614:8695   */\n      sstore\n        /* \"#utility.yul\":8483:8705   */\n      pop\n        /* \"#utility.yul\":7818:8705   */\n      jump(tag_146)\n        /* \"#utility.yul\":7848:8466   */\n    tag_147:\n        /* \"#utility.yul\":7900:7904   */\n      0x1f\n        /* \"#utility.yul\":7896:7905   */\n      not\n        /* \"#utility.yul\":7888:7894   */\n      dup5\n        /* \"#utility.yul\":7884:7906   */\n      and\n        /* \"#utility.yul\":7934:7971   */\n      tag_150\n        /* \"#utility.yul\":7966:7970   */\n      dup7\n        /* \"#utility.yul\":7934:7971   */\n      tag_36\n      jump\t// in\n    tag_150:\n        /* \"#utility.yul\":7993:7994   */\n      0x00\n        /* \"#utility.yul\":8007:8215   */\n    tag_151:\n        /* \"#utility.yul\":8021:8028   */\n      dup3\n        /* \"#utility.yul\":8018:8019   */\n      dup2\n        /* \"#utility.yul\":8015:8029   */\n      lt\n        /* \"#utility.yul\":8007:8215   */\n      iszero\n      tag_153\n      jumpi\n        /* \"#utility.yul\":8100:8109   */\n      dup5\n        /* \"#utility.yul\":8095:8098   */\n      dup10\n        /* \"#utility.yul\":8091:8110   */\n      add\n        /* \"#utility.yul\":8085:8111   */\n      mload\n        /* \"#utility.yul\":8077:8083   */\n      dup3\n        /* \"#utility.yul\":8070:8112   */\n      sstore\n        /* \"#utility.yul\":8151:8152   */\n      0x01\n        /* \"#utility.yul\":8143:8149   */\n      dup3\n        /* \"#utility.yul\":8139:8153   */\n      add\n        /* \"#utility.yul\":8129:8153   */\n      swap2\n      pop\n        /* \"#utility.yul\":8198:8200   */\n      0x20\n        /* \"#utility.yul\":8187:8196   */\n      dup6\n        /* \"#utility.yul\":8183:8201   */\n      add\n        /* \"#utility.yul\":8170:8201   */\n      swap5\n      pop\n        /* \"#utility.yul\":8044:8048   */\n      0x20\n        /* \"#utility.yul\":8041:8042   */\n      dup2\n        /* \"#utility.yul\":8037:8049   */\n      add\n        /* \"#utility.yul\":8032:8049   */\n      swap1\n      pop\n        /* \"#utility.yul\":8007:8215   */\n      jump(tag_151)\n    tag_153:\n        /* \"#utility.yul\":8243:8249   */\n      dup7\n        /* \"#utility.yul\":8234:8241   */\n      dup4\n        /* \"#utility.yul\":8231:8250   */\n      lt\n        /* \"#utility.yul\":8228:8407   */\n      iszero\n      tag_154\n      jumpi\n        /* \"#utility.yul\":8301:8310   */\n      dup5\n        /* \"#utility.yul\":8296:8299   */\n      dup10\n        /* \"#utility.yul\":8292:8311   */\n      add\n        /* \"#utility.yul\":8286:8312   */\n      mload\n        /* \"#utility.yul\":8344:8392   */\n      tag_155\n        /* \"#utility.yul\":8386:8390   */\n      0x1f\n        /* \"#utility.yul\":8378:8384   */\n      dup10\n        /* \"#utility.yul\":8374:8391   */\n      and\n        /* \"#utility.yul\":8363:8372   */\n      dup3\n        /* \"#utility.yul\":8344:8392   */\n      tag_49\n      jump\t// in\n    tag_155:\n        /* \"#utility.yul\":8336:8342   */\n      dup4\n        /* \"#utility.yul\":8329:8393   */\n      sstore\n        /* \"#utility.yul\":8251:8407   */\n      pop\n        /* \"#utility.yul\":8228:8407   */\n    tag_154:\n        /* \"#utility.yul\":8453:8454   */\n      0x01\n        /* \"#utility.yul\":8449:8450   */\n      0x02\n        /* \"#utility.yul\":8441:8447   */\n      dup9\n        /* \"#utility.yul\":8437:8451   */\n      mul\n        /* \"#utility.yul\":8433:8455   */\n      add\n        /* \"#utility.yul\":8427:8431   */\n      dup9\n        /* \"#utility.yul\":8420:8456   */\n      sstore\n        /* \"#utility.yul\":7855:8466   */\n      pop\n      pop\n      pop\n        /* \"#utility.yul\":7818:8705   */\n    tag_146:\n      pop\n        /* \"#utility.yul\":7408:8711   */\n      pop\n      pop\n      pop\n        /* \"#utility.yul\":7316:8711   */\n      pop\n      pop\n      jump\t// out\n\n    auxdata: 0xa2646970667358221220ace3f0813157ad358ba829e7e61d622f284f4ae65311c649000d99950eaa078164736f6c63430008110033\n}\n",
				"bytecode": {
					"linkReferences": {},
					"object": "608060405234801561001057600080fd5b506105b4806100206000396000f3fe608060405234801561001057600080fd5b50600436106100355760003560e01c806212d3e21461003a5780639988fa6914610056575b600080fd5b610054600480360381019061004f91906100d9565b610072565b005b610070600480360381019061006b919061024c565b61007c565b005b8060018190555050565b806000908161008b91906104ac565b5050565b6000604051905090565b600080fd5b600080fd5b6000819050919050565b6100b6816100a3565b81146100c157600080fd5b50565b6000813590506100d3816100ad565b92915050565b6000602082840312156100ef576100ee610099565b5b60006100fd848285016100c4565b91505092915050565b600080fd5b600080fd5b6000601f19601f8301169050919050565b7f4e487b7100000000000000000000000000000000000000000000000000000000600052604160045260246000fd5b61015982610110565b810181811067ffffffffffffffff8211171561017857610177610121565b5b80604052505050565b600061018b61008f565b90506101978282610150565b919050565b600067ffffffffffffffff8211156101b7576101b6610121565b5b6101c082610110565b9050602081019050919050565b82818337600083830152505050565b60006101ef6101ea8461019c565b610181565b90508281526020810184848401111561020b5761020a61010b565b5b6102168482856101cd565b509392505050565b600082601f83011261023357610232610106565b5b81356102438482602086016101dc565b91505092915050565b60006020828403121561026257610261610099565b5b600082013567ffffffffffffffff8111156102805761027f61009e565b5b61028c8482850161021e565b91505092915050565b600081519050919050565b7f4e487b7100000000000000000000000000000000000000000000000000000000600052602260045260246000fd5b600060028204905060018216806102e757607f821691505b6020821081036102fa576102f96102a0565b5b50919050565b60008190508160005260206000209050919050565b60006020601f8301049050919050565b600082821b905092915050565b6000600883026103627fffffffffffffffffffffffffffffffffffffffffffffffffffffffffffffffff82610325565b61036c8683610325565b95508019841693508086168417925050509392505050565b6000819050919050565b60006103a96103a461039f846100a3565b610384565b6100a3565b9050919050565b6000819050919050565b6103c38361038e565b6103d76103cf826103b0565b848454610332565b825550505050565b600090565b6103ec6103df565b6103f78184846103ba565b505050565b5b8181101561041b576104106000826103e4565b6001810190506103fd565b5050565b601f8211156104605761043181610300565b61043a84610315565b81016020851015610449578190505b61045d61045585610315565b8301826103fc565b50505b505050565b600082821c905092915050565b600061048360001984600802610465565b1980831691505092915050565b600061049c8383610472565b9150826002028217905092915050565b6104b582610295565b67ffffffffffffffff8111156104ce576104cd610121565b5b6104d882546102cf565b6104e382828561041f565b600060209050601f8311600181146105165760008415610504578287015190505b61050e8582610490565b865550610576565b601f19841661052486610300565b60005b8281101561054c57848901518255600182019150602085019450602081019050610527565b868310156105695784890151610565601f891682610472565b8355505b6001600288020188555050505b50505050505056fea2646970667358221220ace3f0813157ad358ba829e7e61d622f284f4ae65311c649000d99950eaa078164736f6c63430008110033",
					"opcodes": "PUSH1 0x80 PUSH1 0x40 MSTORE CALLVALUE DUP1 ISZERO PUSH2 0x10 JUMPI PUSH1 0x0 DUP1 REVERT JUMPDEST POP PUSH2 0x5B4 DUP1 PUSH2 0x20 PUSH1 0x0 CODECOPY PUSH1 0x0 RETURN INVALID PUSH1 0x80 PUSH1 0x40 MSTORE CALLVALUE DUP1 ISZERO PUSH2 0x10 JUMPI PUSH1 0x0 DUP1 REVERT JUMPDEST POP PUSH1 0x4 CALLDATASIZE LT PUSH2 0x35 JUMPI PUSH1 0x0 CALLDATALOAD PUSH1 0xE0 SHR DUP1 PUSH3 0x12D3E2 EQ PUSH2 0x3A JUMPI DUP1 PUSH4 0x9988FA69 EQ PUSH2 0x56 JUMPI JUMPDEST PUSH1 0x0 DUP1 REVERT JUMPDEST PUSH2 0x54 PUSH1 0x4 DUP1 CALLDATASIZE SUB DUP2 ADD SWAP1 PUSH2 0x4F SWAP2 SWAP1 PUSH2 0xD9 JUMP JUMPDEST PUSH2 0x72 JUMP JUMPDEST STOP JUMPDEST PUSH2 0x70 PUSH1 0x4 DUP1 CALLDATASIZE SUB DUP2 ADD SWAP1 PUSH2 0x6B SWAP2 SWAP1 PUSH2 0x24C JUMP JUMPDEST PUSH2 0x7C JUMP JUMPDEST STOP JUMPDEST DUP1 PUSH1 0x1 DUP2 SWAP1 SSTORE POP POP JUMP JUMPDEST DUP1 PUSH1 0x0 SWAP1 DUP2 PUSH2 0x8B SWAP2 SWAP1 PUSH2 0x4AC JUMP JUMPDEST POP POP JUMP JUMPDEST PUSH1 0x0 PUSH1 0x40 MLOAD SWAP1 POP SWAP1 JUMP JUMPDEST PUSH1 0x0 DUP1 REVERT JUMPDEST PUSH1 0x0 DUP1 REVERT JUMPDEST PUSH1 0x0 DUP2 SWAP1 POP SWAP2 SWAP1 POP JUMP JUMPDEST PUSH2 0xB6 DUP2 PUSH2 0xA3 JUMP JUMPDEST DUP2 EQ PUSH2 0xC1 JUMPI PUSH1 0x0 DUP1 REVERT JUMPDEST POP JUMP JUMPDEST PUSH1 0x0 DUP2 CALLDATALOAD SWAP1 POP PUSH2 0xD3 DUP2 PUSH2 0xAD JUMP JUMPDEST SWAP3 SWAP2 POP POP JUMP JUMPDEST PUSH1 0x0 PUSH1 0x20 DUP3 DUP5 SUB SLT ISZERO PUSH2 0xEF JUMPI PUSH2 0xEE PUSH2 0x99 JUMP JUMPDEST JUMPDEST PUSH1 0x0 PUSH2 0xFD DUP5 DUP3 DUP6 ADD PUSH2 0xC4 JUMP JUMPDEST SWAP2 POP POP SWAP3 SWAP2 POP POP JUMP JUMPDEST PUSH1 0x0 DUP1 REVERT JUMPDEST PUSH1 0x0 DUP1 REVERT JUMPDEST PUSH1 0x0 PUSH1 0x1F NOT PUSH1 0x1F DUP4 ADD AND SWAP1 POP SWAP2 SWAP1 POP JUMP JUMPDEST PUSH32 0x4E487B7100000000000000000000000000000000000000000000000000000000 PUSH1 0x0 MSTORE PUSH1 0x41 PUSH1 0x4 MSTORE PUSH1 0x24 PUSH1 0x0 REVERT JUMPDEST PUSH2 0x159 DUP3 PUSH2 0x110 JUMP JUMPDEST DUP2 ADD DUP2 DUP2 LT PUSH8 0xFFFFFFFFFFFFFFFF DUP3 GT OR ISZERO PUSH2 0x178 JUMPI PUSH2 0x177 PUSH2 0x121 JUMP JUMPDEST JUMPDEST DUP1 PUSH1 0x40 MSTORE POP POP POP JUMP JUMPDEST PUSH1 0x0 PUSH2 0x18B PUSH2 0x8F JUMP JUMPDEST SWAP1 POP PUSH2 0x197 DUP3 DUP3 PUSH2 0x150 JUMP JUMPDEST SWAP2 SWAP1 POP JUMP JUMPDEST PUSH1 0x0 PUSH8 0xFFFFFFFFFFFFFFFF DUP3 GT ISZERO PUSH2 0x1B7 JUMPI PUSH2 0x1B6 PUSH2 0x121 JUMP JUMPDEST JUMPDEST PUSH2 0x1C0 DUP3 PUSH2 0x110 JUMP JUMPDEST SWAP1 POP PUSH1 0x20 DUP2 ADD SWAP1 POP SWAP2 SWAP1 POP JUMP JUMPDEST DUP3 DUP2 DUP4 CALLDATACOPY PUSH1 0x0 DUP4 DUP4 ADD MSTORE POP POP POP JUMP JUMPDEST PUSH1 0x0 PUSH2 0x1EF PUSH2 0x1EA DUP5 PUSH2 0x19C JUMP JUMPDEST PUSH2 0x181 JUMP JUMPDEST SWAP1 POP DUP3 DUP2 MSTORE PUSH1 0x20 DUP2 ADD DUP5 DUP5 DUP5 ADD GT ISZERO PUSH2 0x20B JUMPI PUSH2 0x20A PUSH2 0x10B JUMP JUMPDEST JUMPDEST PUSH2 0x216 DUP5 DUP3 DUP6 PUSH2 0x1CD JUMP JUMPDEST POP SWAP4 SWAP3 POP POP POP JUMP JUMPDEST PUSH1 0x0 DUP3 PUSH1 0x1F DUP4 ADD SLT PUSH2 0x233 JUMPI PUSH2 0x232 PUSH2 0x106 JUMP JUMPDEST JUMPDEST DUP2 CALLDATALOAD PUSH2 0x243 DUP5 DUP3 PUSH1 0x20 DUP7 ADD PUSH2 0x1DC JUMP JUMPDEST SWAP2 POP POP SWAP3 SWAP2 POP POP JUMP JUMPDEST PUSH1 0x0 PUSH1 0x20 DUP3 DUP5 SUB SLT ISZERO PUSH2 0x262 JUMPI PUSH2 0x261 PUSH2 0x99 JUMP JUMPDEST JUMPDEST PUSH1 0x0 DUP3 ADD CALLDATALOAD PUSH8 0xFFFFFFFFFFFFFFFF DUP2 GT ISZERO PUSH2 0x280 JUMPI PUSH2 0x27F PUSH2 0x9E JUMP JUMPDEST JUMPDEST PUSH2 0x28C DUP5 DUP3 DUP6 ADD PUSH2 0x21E JUMP JUMPDEST SWAP2 POP POP SWAP3 SWAP2 POP POP JUMP JUMPDEST PUSH1 0x0 DUP2 MLOAD SWAP1 POP SWAP2 SWAP1 POP JUMP JUMPDEST PUSH32 0x4E487B7100000000000000000000000000000000000000000000000000000000 PUSH1 0x0 MSTORE PUSH1 0x22 PUSH1 0x4 MSTORE PUSH1 0x24 PUSH1 0x0 REVERT JUMPDEST PUSH1 0x0 PUSH1 0x2 DUP3 DIV SWAP1 POP PUSH1 0x1 DUP3 AND DUP1 PUSH2 0x2E7 JUMPI PUSH1 0x7F DUP3 AND SWAP2 POP JUMPDEST PUSH1 0x20 DUP3 LT DUP2 SUB PUSH2 0x2FA JUMPI PUSH2 0x2F9 PUSH2 0x2A0 JUMP JUMPDEST JUMPDEST POP SWAP2 SWAP1 POP JUMP JUMPDEST PUSH1 0x0 DUP2 SWAP1 POP DUP2 PUSH1 0x0 MSTORE PUSH1 0x20 PUSH1 0x0 KECCAK256 SWAP1 POP SWAP2 SWAP1 POP JUMP JUMPDEST PUSH1 0x0 PUSH1 0x20 PUSH1 0x1F DUP4 ADD DIV SWAP1 POP SWAP2 SWAP1 POP JUMP JUMPDEST PUSH1 0x0 DUP3 DUP3 SHL SWAP1 POP SWAP3 SWAP2 POP POP JUMP JUMPDEST PUSH1 0x0 PUSH1 0x8 DUP4 MUL PUSH2 0x362 PUSH32 0xFFFFFFFFFFFFFFFFFFFFFFFFFFFFFFFFFFFFFFFFFFFFFFFFFFFFFFFFFFFFFFFF DUP3 PUSH2 0x325 JUMP JUMPDEST PUSH2 0x36C DUP7 DUP4 PUSH2 0x325 JUMP JUMPDEST SWAP6 POP DUP1 NOT DUP5 AND SWAP4 POP DUP1 DUP7 AND DUP5 OR SWAP3 POP POP POP SWAP4 SWAP3 POP POP POP JUMP JUMPDEST PUSH1 0x0 DUP2 SWAP1 POP SWAP2 SWAP1 POP JUMP JUMPDEST PUSH1 0x0 PUSH2 0x3A9 PUSH2 0x3A4 PUSH2 0x39F DUP5 PUSH2 0xA3 JUMP JUMPDEST PUSH2 0x384 JUMP JUMPDEST PUSH2 0xA3 JUMP JUMPDEST SWAP1 POP SWAP2 SWAP1 POP JUMP JUMPDEST PUSH1 0x0 DUP2 SWAP1 POP SWAP2 SWAP1 POP JUMP JUMPDEST PUSH2 0x3C3 DUP4 PUSH2 0x38E JUMP JUMPDEST PUSH2 0x3D7 PUSH2 0x3CF DUP3 PUSH2 0x3B0 JUMP JUMPDEST DUP5 DUP5 SLOAD PUSH2 0x332 JUMP JUMPDEST DUP3 SSTORE POP POP POP POP JUMP JUMPDEST PUSH1 0x0 SWAP1 JUMP JUMPDEST PUSH2 0x3EC PUSH2 0x3DF JUMP JUMPDEST PUSH2 0x3F7 DUP2 DUP5 DUP5 PUSH2 0x3BA JUMP JUMPDEST POP POP POP JUMP JUMPDEST JUMPDEST DUP2 DUP2 LT ISZERO PUSH2 0x41B JUMPI PUSH2 0x410 PUSH1 0x0 DUP3 PUSH2 0x3E4 JUMP JUMPDEST PUSH1 0x1 DUP2 ADD SWAP1 POP PUSH2 0x3FD JUMP JUMPDEST POP POP JUMP JUMPDEST PUSH1 0x1F DUP3 GT ISZERO PUSH2 0x460 JUMPI PUSH2 0x431 DUP2 PUSH2 0x300 JUMP JUMPDEST PUSH2 0x43A DUP5 PUSH2 0x315 JUMP JUMPDEST DUP2 ADD PUSH1 0x20 DUP6 LT ISZERO PUSH2 0x449 JUMPI DUP2 SWAP1 POP JUMPDEST PUSH2 0x45D PUSH2 0x455 DUP6 PUSH2 0x315 JUMP JUMPDEST DUP4 ADD DUP3 PUSH2 0x3FC JUMP JUMPDEST POP POP JUMPDEST POP POP POP JUMP JUMPDEST PUSH1 0x0 DUP3 DUP3 SHR SWAP1 POP SWAP3 SWAP2 POP POP JUMP JUMPDEST PUSH1 0x0 PUSH2 0x483 PUSH1 0x0 NOT DUP5 PUSH1 0x8 MUL PUSH2 0x465 JUMP JUMPDEST NOT DUP1 DUP4 AND SWAP2 POP POP SWAP3 SWAP2 POP POP JUMP JUMPDEST PUSH1 0x0 PUSH2 0x49C DUP4 DUP4 PUSH2 0x472 JUMP JUMPDEST SWAP2 POP DUP3 PUSH1 0x2 MUL DUP3 OR SWAP1 POP SWAP3 SWAP2 POP POP JUMP JUMPDEST PUSH2 0x4B5 DUP3 PUSH2 0x295 JUMP JUMPDEST PUSH8 0xFFFFFFFFFFFFFFFF DUP2 GT ISZERO PUSH2 0x4CE JUMPI PUSH2 0x4CD PUSH2 0x121 JUMP JUMPDEST JUMPDEST PUSH2 0x4D8 DUP3 SLOAD PUSH2 0x2CF JUMP JUMPDEST PUSH2 0x4E3 DUP3 DUP3 DUP6 PUSH2 0x41F JUMP JUMPDEST PUSH1 0x0 PUSH1 0x20 SWAP1 POP PUSH1 0x1F DUP4 GT PUSH1 0x1 DUP2 EQ PUSH2 0x516 JUMPI PUSH1 0x0 DUP5 ISZERO PUSH2 0x504 JUMPI DUP3 DUP8 ADD MLOAD SWAP1 POP JUMPDEST PUSH2 0x50E DUP6 DUP3 PUSH2 0x490 JUMP JUMPDEST DUP7 SSTORE POP PUSH2 0x576 JUMP JUMPDEST PUSH1 0x1F NOT DUP5 AND PUSH2 0x524 DUP7 PUSH2 0x300 JUMP JUMPDEST PUSH1 0x0 JUMPDEST DUP3 DUP2 LT ISZERO PUSH2 0x54C JUMPI DUP5 DUP10 ADD MLOAD DUP3 SSTORE PUSH1 0x1 DUP3 ADD SWAP2 POP PUSH1 0x20 DUP6 ADD SWAP5 POP PUSH1 0x20 DUP2 ADD SWAP1 POP PUSH2 0x527 JUMP JUMPDEST DUP7 DUP4 LT ISZERO PUSH2 0x569 JUMPI DUP5 DUP10 ADD MLOAD PUSH2 0x565 PUSH1 0x1F DUP10 AND DUP3 PUSH2 0x472 JUMP JUMPDEST DUP4 SSTORE POP JUMPDEST PUSH1 0x1 PUSH1 0x2 DUP9 MUL ADD DUP9 SSTORE POP POP POP JUMPDEST POP POP POP POP POP POP JUMP INVALID LOG2 PUSH5 0x6970667358 0x22 SLT KECCAK256 0xAC 0xE3 CREATE DUP2 BALANCE JUMPI 0xAD CALLDATALOAD DUP12 0xA8 0x29 0xE7 0xE6 SAR PUSH3 0x2F284F 0x4A 0xE6 MSTORE8 GT 0xC6 0x49 STOP 0xD SWAP10 SWAP6 0xE 0xAA SMOD DUP2 PUSH5 0x736F6C6343 STOP ADDMOD GT STOP CALLER "
				},
				"gasEstimates": {
					"creation": {
						"codeDepositCost": "292000",
						"executionCost": "331",
						"totalCost": "292331"
					},
					"external": {
						"setColor(string)": "infinite",
						"setengineSize(uint256)": "22498"
					}
				},
				"methodIdentifiers": {
					"setColor(string)": "9988fa69",
					"setengineSize(uint256)": "0012d3e2"
				}
			},
			"storageLayout": {
				"storage": [
					{
						"astId": 3,
						"contract": "Week-5/inheritanceExercise.sol:Motorcycle",
						"label": "color",
						"offset": 0,
						"slot": "0",
						"type": "t_string_storage"
					},
					{
						"astId": 33,
						"contract": "Week-5/inheritanceExercise.sol:Motorcycle",
						"label": "engineSize",
						"offset": 0,
						"slot": "1",
						"type": "t_uint256"
					}
				],
				"types": {
					"t_string_storage": {
						"encoding": "bytes",
						"label": "string",
						"numberOfBytes": "32"
					},
					"t_uint256": {
						"encoding": "inplace",
						"label": "uint256",
						"numberOfBytes": "32"
					}
				}
			},
			"userdoc": {
				"kind": "user",
				"methods": {},
				"version": 1
			}
		}
	}
}