{
	"Week-5/inheritanceExercise.sol": {
		"Vehicle": {
			"abi": [
				{
					"inputs": [
						{
							"internalType": "string",
							"name": "_color",
							"type": "string"
						}
					],
					"name": "setColor",
					"outputs": [],
					"stateMutability": "nonpayable",
					"type": "function"
				}
			],
			"devdoc": {
				"kind": "dev",
				"methods": {},
				"version": 1
			},
			"evm": {
				"assembly": "    /* \"Week-5/inheritanceExercise.sol\":834:955  contract Vehicle {... */\n  mstore(0x40, 0x80)\n  callvalue\n  dup1\n  iszero\n  tag_1\n  jumpi\n  0x00\n  dup1\n  revert\ntag_1:\n  pop\n  dataSize(sub_0)\n  dup1\n  dataOffset(sub_0)\n  0x00\n  codecopy\n  0x00\n  return\nstop\n\nsub_0: assembly {\n        /* \"Week-5/inheritanceExercise.sol\":834:955  contract Vehicle {... */\n      mstore(0x40, 0x80)\n      callvalue\n      dup1\n      iszero\n      tag_1\n      jumpi\n      0x00\n      dup1\n      revert\n    tag_1:\n      pop\n      jumpi(tag_2, lt(calldatasize, 0x04))\n      shr(0xe0, calldataload(0x00))\n      dup1\n      0x9988fa69\n      eq\n      tag_3\n      jumpi\n    tag_2:\n      0x00\n      dup1\n      revert\n        /* \"Week-5/inheritanceExercise.sol\":875:953  function setColor(string memory _color) public{... */\n    tag_3:\n      tag_4\n      0x04\n      dup1\n      calldatasize\n      sub\n      dup2\n      add\n      swap1\n      tag_5\n      swap2\n      swap1\n      tag_6\n      jump\t// in\n    tag_5:\n      tag_7\n      jump\t// in\n    tag_4:\n      stop\n    tag_7:\n        /* \"Week-5/inheritanceExercise.sol\":939:945  _color */\n      dup1\n        /* \"Week-5/inheritanceExercise.sol\":931:936  color */\n      0x00\n        /* \"Week-5/inheritanceExercise.sol\":931:945  color = _color */\n      swap1\n      dup2\n      tag_9\n      swap2\n      swap1\n      tag_10\n      jump\t// in\n    tag_9:\n      pop\n        /* \"Week-5/inheritanceExercise.sol\":875:953  function setColor(string memory _color) public{... */\n      pop\n      jump\t// out\n        /* \"#utility.yul\":7:82   */\n    tag_11:\n        /* \"#utility.yul\":40:46   */\n      0x00\n        /* \"#utility.yul\":73:75   */\n      0x40\n        /* \"#utility.yul\":67:76   */\n      mload\n        /* \"#utility.yul\":57:76   */\n      swap1\n      pop\n        /* \"#utility.yul\":7:82   */\n      swap1\n      jump\t// out\n        /* \"#utility.yul\":88:205   */\n    tag_12:\n        /* \"#utility.yul\":197:198   */\n      0x00\n        /* \"#utility.yul\":194:195   */\n      dup1\n        /* \"#utility.yul\":187:199   */\n      revert\n        /* \"#utility.yul\":211:328   */\n    tag_13:\n        /* \"#utility.yul\":320:321   */\n      0x00\n        /* \"#utility.yul\":317:318   */\n      dup1\n        /* \"#utility.yul\":310:322   */\n      revert\n        /* \"#utility.yul\":334:451   */\n    tag_14:\n        /* \"#utility.yul\":443:444   */\n      0x00\n        /* \"#utility.yul\":440:441   */\n      dup1\n        /* \"#utility.yul\":433:445   */\n      revert\n        /* \"#utility.yul\":457:574   */\n    tag_15:\n        /* \"#utility.yul\":566:567   */\n      0x00\n        /* \"#utility.yul\":563:564   */\n      dup1\n        /* \"#utility.yul\":556:568   */\n      revert\n        /* \"#utility.yul\":580:682   */\n    tag_16:\n        /* \"#utility.yul\":621:627   */\n      0x00\n        /* \"#utility.yul\":672:674   */\n      0x1f\n        /* \"#utility.yul\":668:675   */\n      not\n        /* \"#utility.yul\":663:665   */\n      0x1f\n        /* \"#utility.yul\":656:661   */\n      dup4\n        /* \"#utility.yul\":652:666   */\n      add\n        /* \"#utility.yul\":648:676   */\n      and\n        /* \"#utility.yul\":638:676   */\n      swap1\n      pop\n        /* \"#utility.yul\":580:682   */\n      swap2\n      swap1\n      pop\n      jump\t// out\n        /* \"#utility.yul\":688:868   */\n    tag_17:\n        /* \"#utility.yul\":736:813   */\n      0x4e487b7100000000000000000000000000000000000000000000000000000000\n        /* \"#utility.yul\":733:734   */\n      0x00\n        /* \"#utility.yul\":726:814   */\n      mstore\n        /* \"#utility.yul\":833:837   */\n      0x41\n        /* \"#utility.yul\":830:831   */\n      0x04\n        /* \"#utility.yul\":823:838   */\n      mstore\n        /* \"#utility.yul\":857:861   */\n      0x24\n        /* \"#utility.yul\":854:855   */\n      0x00\n        /* \"#utility.yul\":847:862   */\n      revert\n        /* \"#utility.yul\":874:1155   */\n    tag_18:\n        /* \"#utility.yul\":957:984   */\n      tag_52\n        /* \"#utility.yul\":979:983   */\n      dup3\n        /* \"#utility.yul\":957:984   */\n      tag_16\n      jump\t// in\n    tag_52:\n        /* \"#utility.yul\":949:955   */\n      dup2\n        /* \"#utility.yul\":945:985   */\n      add\n        /* \"#utility.yul\":1087:1093   */\n      dup2\n        /* \"#utility.yul\":1075:1085   */\n      dup2\n        /* \"#utility.yul\":1072:1094   */\n      lt\n        /* \"#utility.yul\":1051:1069   */\n      0xffffffffffffffff\n        /* \"#utility.yul\":1039:1049   */\n      dup3\n        /* \"#utility.yul\":1036:1070   */\n      gt\n        /* \"#utility.yul\":1033:1095   */\n      or\n        /* \"#utility.yul\":1030:1118   */\n      iszero\n      tag_53\n      jumpi\n        /* \"#utility.yul\":1098:1116   */\n      tag_54\n      tag_17\n      jump\t// in\n    tag_54:\n        /* \"#utility.yul\":1030:1118   */\n    tag_53:\n        /* \"#utility.yul\":1138:1148   */\n      dup1\n        /* \"#utility.yul\":1134:1136   */\n      0x40\n        /* \"#utility.yul\":1127:1149   */\n      mstore\n        /* \"#utility.yul\":917:1155   */\n      pop\n        /* \"#utility.yul\":874:1155   */\n      pop\n      pop\n      jump\t// out\n        /* \"#utility.yul\":1161:1290   */\n    tag_19:\n        /* \"#utility.yul\":1195:1201   */\n      0x00\n        /* \"#utility.yul\":1222:1242   */\n      tag_56\n      tag_11\n      jump\t// in\n    tag_56:\n        /* \"#utility.yul\":1212:1242   */\n      swap1\n      pop\n        /* \"#utility.yul\":1251:1284   */\n      tag_57\n        /* \"#utility.yul\":1279:1283   */\n      dup3\n        /* \"#utility.yul\":1271:1277   */\n      dup3\n        /* \"#utility.yul\":1251:1284   */\n      tag_18\n      jump\t// in\n    tag_57:\n        /* \"#utility.yul\":1161:1290   */\n      swap2\n      swap1\n      pop\n      jump\t// out\n        /* \"#utility.yul\":1296:1604   */\n    tag_20:\n        /* \"#utility.yul\":1358:1362   */\n      0x00\n        /* \"#utility.yul\":1448:1466   */\n      0xffffffffffffffff\n        /* \"#utility.yul\":1440:1446   */\n      dup3\n        /* \"#utility.yul\":1437:1467   */\n      gt\n        /* \"#utility.yul\":1434:1490   */\n      iszero\n      tag_59\n      jumpi\n        /* \"#utility.yul\":1470:1488   */\n      tag_60\n      tag_17\n      jump\t// in\n    tag_60:\n        /* \"#utility.yul\":1434:1490   */\n    tag_59:\n        /* \"#utility.yul\":1508:1537   */\n      tag_61\n        /* \"#utility.yul\":1530:1536   */\n      dup3\n        /* \"#utility.yul\":1508:1537   */\n      tag_16\n      jump\t// in\n    tag_61:\n        /* \"#utility.yul\":1500:1537   */\n      swap1\n      pop\n        /* \"#utility.yul\":1592:1596   */\n      0x20\n        /* \"#utility.yul\":1586:1590   */\n      dup2\n        /* \"#utility.yul\":1582:1597   */\n      add\n        /* \"#utility.yul\":1574:1597   */\n      swap1\n      pop\n        /* \"#utility.yul\":1296:1604   */\n      swap2\n      swap1\n      pop\n      jump\t// out\n        /* \"#utility.yul\":1610:1756   */\n    tag_21:\n        /* \"#utility.yul\":1707:1713   */\n      dup3\n        /* \"#utility.yul\":1702:1705   */\n      dup2\n        /* \"#utility.yul\":1697:1700   */\n      dup4\n        /* \"#utility.yul\":1684:1714   */\n      calldatacopy\n        /* \"#utility.yul\":1748:1749   */\n      0x00\n        /* \"#utility.yul\":1739:1745   */\n      dup4\n        /* \"#utility.yul\":1734:1737   */\n      dup4\n        /* \"#utility.yul\":1730:1746   */\n      add\n        /* \"#utility.yul\":1723:1750   */\n      mstore\n        /* \"#utility.yul\":1610:1756   */\n      pop\n      pop\n      pop\n      jump\t// out\n        /* \"#utility.yul\":1762:2187   */\n    tag_22:\n        /* \"#utility.yul\":1840:1845   */\n      0x00\n        /* \"#utility.yul\":1865:1931   */\n      tag_64\n        /* \"#utility.yul\":1881:1930   */\n      tag_65\n        /* \"#utility.yul\":1923:1929   */\n      dup5\n        /* \"#utility.yul\":1881:1930   */\n      tag_20\n      jump\t// in\n    tag_65:\n        /* \"#utility.yul\":1865:1931   */\n      tag_19\n      jump\t// in\n    tag_64:\n        /* \"#utility.yul\":1856:1931   */\n      swap1\n      pop\n        /* \"#utility.yul\":1954:1960   */\n      dup3\n        /* \"#utility.yul\":1947:1952   */\n      dup2\n        /* \"#utility.yul\":1940:1961   */\n      mstore\n        /* \"#utility.yul\":1992:1996   */\n      0x20\n        /* \"#utility.yul\":1985:1990   */\n      dup2\n        /* \"#utility.yul\":1981:1997   */\n      add\n        /* \"#utility.yul\":2030:2033   */\n      dup5\n        /* \"#utility.yul\":2021:2027   */\n      dup5\n        /* \"#utility.yul\":2016:2019   */\n      dup5\n        /* \"#utility.yul\":2012:2028   */\n      add\n        /* \"#utility.yul\":2009:2034   */\n      gt\n        /* \"#utility.yul\":2006:2118   */\n      iszero\n      tag_66\n      jumpi\n        /* \"#utility.yul\":2037:2116   */\n      tag_67\n      tag_15\n      jump\t// in\n    tag_67:\n        /* \"#utility.yul\":2006:2118   */\n    tag_66:\n        /* \"#utility.yul\":2127:2181   */\n      tag_68\n        /* \"#utility.yul\":2174:2180   */\n      dup5\n        /* \"#utility.yul\":2169:2172   */\n      dup3\n        /* \"#utility.yul\":2164:2167   */\n      dup6\n        /* \"#utility.yul\":2127:2181   */\n      tag_21\n      jump\t// in\n    tag_68:\n        /* \"#utility.yul\":1846:2187   */\n      pop\n        /* \"#utility.yul\":1762:2187   */\n      swap4\n      swap3\n      pop\n      pop\n      pop\n      jump\t// out\n        /* \"#utility.yul\":2207:2547   */\n    tag_23:\n        /* \"#utility.yul\":2263:2268   */\n      0x00\n        /* \"#utility.yul\":2312:2315   */\n      dup3\n        /* \"#utility.yul\":2305:2309   */\n      0x1f\n        /* \"#utility.yul\":2297:2303   */\n      dup4\n        /* \"#utility.yul\":2293:2310   */\n      add\n        /* \"#utility.yul\":2289:2316   */\n      slt\n        /* \"#utility.yul\":2279:2401   */\n      tag_70\n      jumpi\n        /* \"#utility.yul\":2320:2399   */\n      tag_71\n      tag_14\n      jump\t// in\n    tag_71:\n        /* \"#utility.yul\":2279:2401   */\n    tag_70:\n        /* \"#utility.yul\":2437:2443   */\n      dup2\n        /* \"#utility.yul\":2424:2444   */\n      calldataload\n        /* \"#utility.yul\":2462:2541   */\n      tag_72\n        /* \"#utility.yul\":2537:2540   */\n      dup5\n        /* \"#utility.yul\":2529:2535   */\n      dup3\n        /* \"#utility.yul\":2522:2526   */\n      0x20\n        /* \"#utility.yul\":2514:2520   */\n      dup7\n        /* \"#utility.yul\":2510:2527   */\n      add\n        /* \"#utility.yul\":2462:2541   */\n      tag_22\n      jump\t// in\n    tag_72:\n        /* \"#utility.yul\":2453:2541   */\n      swap2\n      pop\n        /* \"#utility.yul\":2269:2547   */\n      pop\n        /* \"#utility.yul\":2207:2547   */\n      swap3\n      swap2\n      pop\n      pop\n      jump\t// out\n        /* \"#utility.yul\":2553:3062   */\n    tag_6:\n        /* \"#utility.yul\":2622:2628   */\n      0x00\n        /* \"#utility.yul\":2671:2673   */\n      0x20\n        /* \"#utility.yul\":2659:2668   */\n      dup3\n        /* \"#utility.yul\":2650:2657   */\n      dup5\n        /* \"#utility.yul\":2646:2669   */\n      sub\n        /* \"#utility.yul\":2642:2674   */\n      slt\n        /* \"#utility.yul\":2639:2758   */\n      iszero\n      tag_74\n      jumpi\n        /* \"#utility.yul\":2677:2756   */\n      tag_75\n      tag_12\n      jump\t// in\n    tag_75:\n        /* \"#utility.yul\":2639:2758   */\n    tag_74:\n        /* \"#utility.yul\":2825:2826   */\n      0x00\n        /* \"#utility.yul\":2814:2823   */\n      dup3\n        /* \"#utility.yul\":2810:2827   */\n      add\n        /* \"#utility.yul\":2797:2828   */\n      calldataload\n        /* \"#utility.yul\":2855:2873   */\n      0xffffffffffffffff\n        /* \"#utility.yul\":2847:2853   */\n      dup2\n        /* \"#utility.yul\":2844:2874   */\n      gt\n        /* \"#utility.yul\":2841:2958   */\n      iszero\n      tag_76\n      jumpi\n        /* \"#utility.yul\":2877:2956   */\n      tag_77\n      tag_13\n      jump\t// in\n    tag_77:\n        /* \"#utility.yul\":2841:2958   */\n    tag_76:\n        /* \"#utility.yul\":2982:3045   */\n      tag_78\n        /* \"#utility.yul\":3037:3044   */\n      dup5\n        /* \"#utility.yul\":3028:3034   */\n      dup3\n        /* \"#utility.yul\":3017:3026   */\n      dup6\n        /* \"#utility.yul\":3013:3035   */\n      add\n        /* \"#utility.yul\":2982:3045   */\n      tag_23\n      jump\t// in\n    tag_78:\n        /* \"#utility.yul\":2972:3045   */\n      swap2\n      pop\n        /* \"#utility.yul\":2768:3055   */\n      pop\n        /* \"#utility.yul\":2553:3062   */\n      swap3\n      swap2\n      pop\n      pop\n      jump\t// out\n        /* \"#utility.yul\":3068:3167   */\n    tag_24:\n        /* \"#utility.yul\":3120:3126   */\n      0x00\n        /* \"#utility.yul\":3154:3159   */\n      dup2\n        /* \"#utility.yul\":3148:3160   */\n      mload\n        /* \"#utility.yul\":3138:3160   */\n      swap1\n      pop\n        /* \"#utility.yul\":3068:3167   */\n      swap2\n      swap1\n      pop\n      jump\t// out\n        /* \"#utility.yul\":3173:3353   */\n    tag_25:\n        /* \"#utility.yul\":3221:3298   */\n      0x4e487b7100000000000000000000000000000000000000000000000000000000\n        /* \"#utility.yul\":3218:3219   */\n      0x00\n        /* \"#utility.yul\":3211:3299   */\n      mstore\n        /* \"#utility.yul\":3318:3322   */\n      0x22\n        /* \"#utility.yul\":3315:3316   */\n      0x04\n        /* \"#utility.yul\":3308:3323   */\n      mstore\n        /* \"#utility.yul\":3342:3346   */\n      0x24\n        /* \"#utility.yul\":3339:3340   */\n      0x00\n        /* \"#utility.yul\":3332:3347   */\n      revert\n        /* \"#utility.yul\":3359:3679   */\n    tag_26:\n        /* \"#utility.yul\":3403:3409   */\n      0x00\n        /* \"#utility.yul\":3440:3441   */\n      0x02\n        /* \"#utility.yul\":3434:3438   */\n      dup3\n        /* \"#utility.yul\":3430:3442   */\n      div\n        /* \"#utility.yul\":3420:3442   */\n      swap1\n      pop\n        /* \"#utility.yul\":3487:3488   */\n      0x01\n        /* \"#utility.yul\":3481:3485   */\n      dup3\n        /* \"#utility.yul\":3477:3489   */\n      and\n        /* \"#utility.yul\":3508:3526   */\n      dup1\n        /* \"#utility.yul\":3498:3579   */\n      tag_82\n      jumpi\n        /* \"#utility.yul\":3564:3568   */\n      0x7f\n        /* \"#utility.yul\":3556:3562   */\n      dup3\n        /* \"#utility.yul\":3552:3569   */\n      and\n        /* \"#utility.yul\":3542:3569   */\n      swap2\n      pop\n        /* \"#utility.yul\":3498:3579   */\n    tag_82:\n        /* \"#utility.yul\":3626:3628   */\n      0x20\n        /* \"#utility.yul\":3618:3624   */\n      dup3\n        /* \"#utility.yul\":3615:3629   */\n      lt\n        /* \"#utility.yul\":3595:3613   */\n      dup2\n        /* \"#utility.yul\":3592:3630   */\n      sub\n        /* \"#utility.yul\":3589:3673   */\n      tag_83\n      jumpi\n        /* \"#utility.yul\":3645:3663   */\n      tag_84\n      tag_25\n      jump\t// in\n    tag_84:\n        /* \"#utility.yul\":3589:3673   */\n    tag_83:\n        /* \"#utility.yul\":3410:3679   */\n      pop\n        /* \"#utility.yul\":3359:3679   */\n      swap2\n      swap1\n      pop\n      jump\t// out\n        /* \"#utility.yul\":3685:3826   */\n    tag_27:\n        /* \"#utility.yul\":3734:3738   */\n      0x00\n        /* \"#utility.yul\":3757:3760   */\n      dup2\n        /* \"#utility.yul\":3749:3760   */\n      swap1\n      pop\n        /* \"#utility.yul\":3780:3783   */\n      dup2\n        /* \"#utility.yul\":3777:3778   */\n      0x00\n        /* \"#utility.yul\":3770:3784   */\n      mstore\n        /* \"#utility.yul\":3814:3818   */\n      0x20\n        /* \"#utility.yul\":3811:3812   */\n      0x00\n        /* \"#utility.yul\":3801:3819   */\n      keccak256\n        /* \"#utility.yul\":3793:3819   */\n      swap1\n      pop\n        /* \"#utility.yul\":3685:3826   */\n      swap2\n      swap1\n      pop\n      jump\t// out\n        /* \"#utility.yul\":3832:3925   */\n    tag_28:\n        /* \"#utility.yul\":3869:3875   */\n      0x00\n        /* \"#utility.yul\":3916:3918   */\n      0x20\n        /* \"#utility.yul\":3911:3913   */\n      0x1f\n        /* \"#utility.yul\":3904:3909   */\n      dup4\n        /* \"#utility.yul\":3900:3914   */\n      add\n        /* \"#utility.yul\":3896:3919   */\n      div\n        /* \"#utility.yul\":3886:3919   */\n      swap1\n      pop\n        /* \"#utility.yul\":3832:3925   */\n      swap2\n      swap1\n      pop\n      jump\t// out\n        /* \"#utility.yul\":3931:4038   */\n    tag_29:\n        /* \"#utility.yul\":3975:3983   */\n      0x00\n        /* \"#utility.yul\":4025:4030   */\n      dup3\n        /* \"#utility.yul\":4019:4023   */\n      dup3\n        /* \"#utility.yul\":4015:4031   */\n      shl\n        /* \"#utility.yul\":3994:4031   */\n      swap1\n      pop\n        /* \"#utility.yul\":3931:4038   */\n      swap3\n      swap2\n      pop\n      pop\n      jump\t// out\n        /* \"#utility.yul\":4044:4437   */\n    tag_30:\n        /* \"#utility.yul\":4113:4119   */\n      0x00\n        /* \"#utility.yul\":4163:4164   */\n      0x08\n        /* \"#utility.yul\":4151:4161   */\n      dup4\n        /* \"#utility.yul\":4147:4165   */\n      mul\n        /* \"#utility.yul\":4186:4283   */\n      tag_89\n        /* \"#utility.yul\":4216:4282   */\n      0xffffffffffffffffffffffffffffffffffffffffffffffffffffffffffffffff\n        /* \"#utility.yul\":4205:4214   */\n      dup3\n        /* \"#utility.yul\":4186:4283   */\n      tag_29\n      jump\t// in\n    tag_89:\n        /* \"#utility.yul\":4304:4343   */\n      tag_90\n        /* \"#utility.yul\":4334:4342   */\n      dup7\n        /* \"#utility.yul\":4323:4332   */\n      dup4\n        /* \"#utility.yul\":4304:4343   */\n      tag_29\n      jump\t// in\n    tag_90:\n        /* \"#utility.yul\":4292:4343   */\n      swap6\n      pop\n        /* \"#utility.yul\":4376:4380   */\n      dup1\n        /* \"#utility.yul\":4372:4381   */\n      not\n        /* \"#utility.yul\":4365:4370   */\n      dup5\n        /* \"#utility.yul\":4361:4382   */\n      and\n        /* \"#utility.yul\":4352:4382   */\n      swap4\n      pop\n        /* \"#utility.yul\":4425:4429   */\n      dup1\n        /* \"#utility.yul\":4415:4423   */\n      dup7\n        /* \"#utility.yul\":4411:4430   */\n      and\n        /* \"#utility.yul\":4404:4409   */\n      dup5\n        /* \"#utility.yul\":4401:4431   */\n      or\n        /* \"#utility.yul\":4391:4431   */\n      swap3\n      pop\n        /* \"#utility.yul\":4120:4437   */\n      pop\n      pop\n        /* \"#utility.yul\":4044:4437   */\n      swap4\n      swap3\n      pop\n      pop\n      pop\n      jump\t// out\n        /* \"#utility.yul\":4443:4520   */\n    tag_31:\n        /* \"#utility.yul\":4480:4487   */\n      0x00\n        /* \"#utility.yul\":4509:4514   */\n      dup2\n        /* \"#utility.yul\":4498:4514   */\n      swap1\n      pop\n        /* \"#utility.yul\":4443:4520   */\n      swap2\n      swap1\n      pop\n      jump\t// out\n        /* \"#utility.yul\":4526:4586   */\n    tag_32:\n        /* \"#utility.yul\":4554:4557   */\n      0x00\n        /* \"#utility.yul\":4575:4580   */\n      dup2\n        /* \"#utility.yul\":4568:4580   */\n      swap1\n      pop\n        /* \"#utility.yul\":4526:4586   */\n      swap2\n      swap1\n      pop\n      jump\t// out\n        /* \"#utility.yul\":4592:4734   */\n    tag_33:\n        /* \"#utility.yul\":4642:4651   */\n      0x00\n        /* \"#utility.yul\":4675:4728   */\n      tag_94\n        /* \"#utility.yul\":4693:4727   */\n      tag_95\n        /* \"#utility.yul\":4702:4726   */\n      tag_96\n        /* \"#utility.yul\":4720:4725   */\n      dup5\n        /* \"#utility.yul\":4702:4726   */\n      tag_31\n      jump\t// in\n    tag_96:\n        /* \"#utility.yul\":4693:4727   */\n      tag_32\n      jump\t// in\n    tag_95:\n        /* \"#utility.yul\":4675:4728   */\n      tag_31\n      jump\t// in\n    tag_94:\n        /* \"#utility.yul\":4662:4728   */\n      swap1\n      pop\n        /* \"#utility.yul\":4592:4734   */\n      swap2\n      swap1\n      pop\n      jump\t// out\n        /* \"#utility.yul\":4740:4815   */\n    tag_34:\n        /* \"#utility.yul\":4783:4786   */\n      0x00\n        /* \"#utility.yul\":4804:4809   */\n      dup2\n        /* \"#utility.yul\":4797:4809   */\n      swap1\n      pop\n        /* \"#utility.yul\":4740:4815   */\n      swap2\n      swap1\n      pop\n      jump\t// out\n        /* \"#utility.yul\":4821:5090   */\n    tag_35:\n        /* \"#utility.yul\":4931:4970   */\n      tag_99\n        /* \"#utility.yul\":4962:4969   */\n      dup4\n        /* \"#utility.yul\":4931:4970   */\n      tag_33\n      jump\t// in\n    tag_99:\n        /* \"#utility.yul\":4992:5083   */\n      tag_100\n        /* \"#utility.yul\":5041:5082   */\n      tag_101\n        /* \"#utility.yul\":5065:5081   */\n      dup3\n        /* \"#utility.yul\":5041:5082   */\n      tag_34\n      jump\t// in\n    tag_101:\n        /* \"#utility.yul\":5033:5039   */\n      dup5\n        /* \"#utility.yul\":5026:5030   */\n      dup5\n        /* \"#utility.yul\":5020:5031   */\n      sload\n        /* \"#utility.yul\":4992:5083   */\n      tag_30\n      jump\t// in\n    tag_100:\n        /* \"#utility.yul\":4986:4990   */\n      dup3\n        /* \"#utility.yul\":4979:5084   */\n      sstore\n        /* \"#utility.yul\":4897:5090   */\n      pop\n        /* \"#utility.yul\":4821:5090   */\n      pop\n      pop\n      pop\n      jump\t// out\n        /* \"#utility.yul\":5096:5169   */\n    tag_36:\n        /* \"#utility.yul\":5141:5144   */\n      0x00\n        /* \"#utility.yul\":5096:5169   */\n      swap1\n      jump\t// out\n        /* \"#utility.yul\":5175:5364   */\n    tag_37:\n        /* \"#utility.yul\":5252:5284   */\n      tag_104\n      tag_36\n      jump\t// in\n    tag_104:\n        /* \"#utility.yul\":5293:5358   */\n      tag_105\n        /* \"#utility.yul\":5351:5357   */\n      dup2\n        /* \"#utility.yul\":5343:5349   */\n      dup5\n        /* \"#utility.yul\":5337:5341   */\n      dup5\n        /* \"#utility.yul\":5293:5358   */\n      tag_35\n      jump\t// in\n    tag_105:\n        /* \"#utility.yul\":5228:5364   */\n      pop\n        /* \"#utility.yul\":5175:5364   */\n      pop\n      pop\n      jump\t// out\n        /* \"#utility.yul\":5370:5556   */\n    tag_38:\n        /* \"#utility.yul\":5430:5550   */\n    tag_107:\n        /* \"#utility.yul\":5447:5450   */\n      dup2\n        /* \"#utility.yul\":5440:5445   */\n      dup2\n        /* \"#utility.yul\":5437:5451   */\n      lt\n        /* \"#utility.yul\":5430:5550   */\n      iszero\n      tag_109\n      jumpi\n        /* \"#utility.yul\":5501:5540   */\n      tag_110\n        /* \"#utility.yul\":5538:5539   */\n      0x00\n        /* \"#utility.yul\":5531:5536   */\n      dup3\n        /* \"#utility.yul\":5501:5540   */\n      tag_37\n      jump\t// in\n    tag_110:\n        /* \"#utility.yul\":5474:5475   */\n      0x01\n        /* \"#utility.yul\":5467:5472   */\n      dup2\n        /* \"#utility.yul\":5463:5476   */\n      add\n        /* \"#utility.yul\":5454:5476   */\n      swap1\n      pop\n        /* \"#utility.yul\":5430:5550   */\n      jump(tag_107)\n    tag_109:\n        /* \"#utility.yul\":5370:5556   */\n      pop\n      pop\n      jump\t// out\n        /* \"#utility.yul\":5562:6105   */\n    tag_39:\n        /* \"#utility.yul\":5663:5665   */\n      0x1f\n        /* \"#utility.yul\":5658:5661   */\n      dup3\n        /* \"#utility.yul\":5655:5666   */\n      gt\n        /* \"#utility.yul\":5652:6098   */\n      iszero\n      tag_112\n      jumpi\n        /* \"#utility.yul\":5697:5735   */\n      tag_113\n        /* \"#utility.yul\":5729:5734   */\n      dup2\n        /* \"#utility.yul\":5697:5735   */\n      tag_27\n      jump\t// in\n    tag_113:\n        /* \"#utility.yul\":5781:5810   */\n      tag_114\n        /* \"#utility.yul\":5799:5809   */\n      dup5\n        /* \"#utility.yul\":5781:5810   */\n      tag_28\n      jump\t// in\n    tag_114:\n        /* \"#utility.yul\":5771:5779   */\n      dup2\n        /* \"#utility.yul\":5767:5811   */\n      add\n        /* \"#utility.yul\":5964:5966   */\n      0x20\n        /* \"#utility.yul\":5952:5962   */\n      dup6\n        /* \"#utility.yul\":5949:5967   */\n      lt\n        /* \"#utility.yul\":5946:5995   */\n      iszero\n      tag_115\n      jumpi\n        /* \"#utility.yul\":5985:5993   */\n      dup2\n        /* \"#utility.yul\":5970:5993   */\n      swap1\n      pop\n        /* \"#utility.yul\":5946:5995   */\n    tag_115:\n        /* \"#utility.yul\":6008:6088   */\n      tag_116\n        /* \"#utility.yul\":6064:6086   */\n      tag_117\n        /* \"#utility.yul\":6082:6085   */\n      dup6\n        /* \"#utility.yul\":6064:6086   */\n      tag_28\n      jump\t// in\n    tag_117:\n        /* \"#utility.yul\":6054:6062   */\n      dup4\n        /* \"#utility.yul\":6050:6087   */\n      add\n        /* \"#utility.yul\":6037:6048   */\n      dup3\n        /* \"#utility.yul\":6008:6088   */\n      tag_38\n      jump\t// in\n    tag_116:\n        /* \"#utility.yul\":5667:6098   */\n      pop\n      pop\n        /* \"#utility.yul\":5652:6098   */\n    tag_112:\n        /* \"#utility.yul\":5562:6105   */\n      pop\n      pop\n      pop\n      jump\t// out\n        /* \"#utility.yul\":6111:6228   */\n    tag_40:\n        /* \"#utility.yul\":6165:6173   */\n      0x00\n        /* \"#utility.yul\":6215:6220   */\n      dup3\n        /* \"#utility.yul\":6209:6213   */\n      dup3\n        /* \"#utility.yul\":6205:6221   */\n      shr\n        /* \"#utility.yul\":6184:6221   */\n      swap1\n      pop\n        /* \"#utility.yul\":6111:6228   */\n      swap3\n      swap2\n      pop\n      pop\n      jump\t// out\n        /* \"#utility.yul\":6234:6403   */\n    tag_41:\n        /* \"#utility.yul\":6278:6284   */\n      0x00\n        /* \"#utility.yul\":6311:6362   */\n      tag_120\n        /* \"#utility.yul\":6359:6360   */\n      0x00\n        /* \"#utility.yul\":6355:6361   */\n      not\n        /* \"#utility.yul\":6347:6352   */\n      dup5\n        /* \"#utility.yul\":6344:6345   */\n      0x08\n        /* \"#utility.yul\":6340:6353   */\n      mul\n        /* \"#utility.yul\":6311:6362   */\n      tag_40\n      jump\t// in\n    tag_120:\n        /* \"#utility.yul\":6307:6363   */\n      not\n        /* \"#utility.yul\":6392:6396   */\n      dup1\n        /* \"#utility.yul\":6386:6390   */\n      dup4\n        /* \"#utility.yul\":6382:6397   */\n      and\n        /* \"#utility.yul\":6372:6397   */\n      swap2\n      pop\n        /* \"#utility.yul\":6285:6403   */\n      pop\n        /* \"#utility.yul\":6234:6403   */\n      swap3\n      swap2\n      pop\n      pop\n      jump\t// out\n        /* \"#utility.yul\":6408:6703   */\n    tag_42:\n        /* \"#utility.yul\":6484:6488   */\n      0x00\n        /* \"#utility.yul\":6630:6659   */\n      tag_122\n        /* \"#utility.yul\":6655:6658   */\n      dup4\n        /* \"#utility.yul\":6649:6653   */\n      dup4\n        /* \"#utility.yul\":6630:6659   */\n      tag_41\n      jump\t// in\n    tag_122:\n        /* \"#utility.yul\":6622:6659   */\n      swap2\n      pop\n        /* \"#utility.yul\":6692:6695   */\n      dup3\n        /* \"#utility.yul\":6689:6690   */\n      0x02\n        /* \"#utility.yul\":6685:6696   */\n      mul\n        /* \"#utility.yul\":6679:6683   */\n      dup3\n        /* \"#utility.yul\":6676:6697   */\n      or\n        /* \"#utility.yul\":6668:6697   */\n      swap1\n      pop\n        /* \"#utility.yul\":6408:6703   */\n      swap3\n      swap2\n      pop\n      pop\n      jump\t// out\n        /* \"#utility.yul\":6708:8103   */\n    tag_10:\n        /* \"#utility.yul\":6825:6862   */\n      tag_124\n        /* \"#utility.yul\":6858:6861   */\n      dup3\n        /* \"#utility.yul\":6825:6862   */\n      tag_24\n      jump\t// in\n    tag_124:\n        /* \"#utility.yul\":6927:6945   */\n      0xffffffffffffffff\n        /* \"#utility.yul\":6919:6925   */\n      dup2\n        /* \"#utility.yul\":6916:6946   */\n      gt\n        /* \"#utility.yul\":6913:6969   */\n      iszero\n      tag_125\n      jumpi\n        /* \"#utility.yul\":6949:6967   */\n      tag_126\n      tag_17\n      jump\t// in\n    tag_126:\n        /* \"#utility.yul\":6913:6969   */\n    tag_125:\n        /* \"#utility.yul\":6993:7031   */\n      tag_127\n        /* \"#utility.yul\":7025:7029   */\n      dup3\n        /* \"#utility.yul\":7019:7030   */\n      sload\n        /* \"#utility.yul\":6993:7031   */\n      tag_26\n      jump\t// in\n    tag_127:\n        /* \"#utility.yul\":7078:7145   */\n      tag_128\n        /* \"#utility.yul\":7138:7144   */\n      dup3\n        /* \"#utility.yul\":7130:7136   */\n      dup3\n        /* \"#utility.yul\":7124:7128   */\n      dup6\n        /* \"#utility.yul\":7078:7145   */\n      tag_39\n      jump\t// in\n    tag_128:\n        /* \"#utility.yul\":7172:7173   */\n      0x00\n        /* \"#utility.yul\":7196:7200   */\n      0x20\n        /* \"#utility.yul\":7183:7200   */\n      swap1\n      pop\n        /* \"#utility.yul\":7228:7230   */\n      0x1f\n        /* \"#utility.yul\":7220:7226   */\n      dup4\n        /* \"#utility.yul\":7217:7231   */\n      gt\n        /* \"#utility.yul\":7245:7246   */\n      0x01\n        /* \"#utility.yul\":7240:7858   */\n      dup2\n      eq\n      tag_130\n      jumpi\n        /* \"#utility.yul\":7902:7903   */\n      0x00\n        /* \"#utility.yul\":7919:7925   */\n      dup5\n        /* \"#utility.yul\":7916:7993   */\n      iszero\n      tag_131\n      jumpi\n        /* \"#utility.yul\":7968:7977   */\n      dup3\n        /* \"#utility.yul\":7963:7966   */\n      dup8\n        /* \"#utility.yul\":7959:7978   */\n      add\n        /* \"#utility.yul\":7953:7979   */\n      mload\n        /* \"#utility.yul\":7944:7979   */\n      swap1\n      pop\n        /* \"#utility.yul\":7916:7993   */\n    tag_131:\n        /* \"#utility.yul\":8019:8086   */\n      tag_132\n        /* \"#utility.yul\":8079:8085   */\n      dup6\n        /* \"#utility.yul\":8072:8077   */\n      dup3\n        /* \"#utility.yul\":8019:8086   */\n      tag_42\n      jump\t// in\n    tag_132:\n        /* \"#utility.yul\":8013:8017   */\n      dup7\n        /* \"#utility.yul\":8006:8087   */\n      sstore\n        /* \"#utility.yul\":7875:8097   */\n      pop\n        /* \"#utility.yul\":7210:8097   */\n      jump(tag_129)\n        /* \"#utility.yul\":7240:7858   */\n    tag_130:\n        /* \"#utility.yul\":7292:7296   */\n      0x1f\n        /* \"#utility.yul\":7288:7297   */\n      not\n        /* \"#utility.yul\":7280:7286   */\n      dup5\n        /* \"#utility.yul\":7276:7298   */\n      and\n        /* \"#utility.yul\":7326:7363   */\n      tag_133\n        /* \"#utility.yul\":7358:7362   */\n      dup7\n        /* \"#utility.yul\":7326:7363   */\n      tag_27\n      jump\t// in\n    tag_133:\n        /* \"#utility.yul\":7385:7386   */\n      0x00\n        /* \"#utility.yul\":7399:7607   */\n    tag_134:\n        /* \"#utility.yul\":7413:7420   */\n      dup3\n        /* \"#utility.yul\":7410:7411   */\n      dup2\n        /* \"#utility.yul\":7407:7421   */\n      lt\n        /* \"#utility.yul\":7399:7607   */\n      iszero\n      tag_136\n      jumpi\n        /* \"#utility.yul\":7492:7501   */\n      dup5\n        /* \"#utility.yul\":7487:7490   */\n      dup10\n        /* \"#utility.yul\":7483:7502   */\n      add\n        /* \"#utility.yul\":7477:7503   */\n      mload\n        /* \"#utility.yul\":7469:7475   */\n      dup3\n        /* \"#utility.yul\":7462:7504   */\n      sstore\n        /* \"#utility.yul\":7543:7544   */\n      0x01\n        /* \"#utility.yul\":7535:7541   */\n      dup3\n        /* \"#utility.yul\":7531:7545   */\n      add\n        /* \"#utility.yul\":7521:7545   */\n      swap2\n      pop\n        /* \"#utility.yul\":7590:7592   */\n      0x20\n        /* \"#utility.yul\":7579:7588   */\n      dup6\n        /* \"#utility.yul\":7575:7593   */\n      add\n        /* \"#utility.yul\":7562:7593   */\n      swap5\n      pop\n        /* \"#utility.yul\":7436:7440   */\n      0x20\n        /* \"#utility.yul\":7433:7434   */\n      dup2\n        /* \"#utility.yul\":7429:7441   */\n      add\n        /* \"#utility.yul\":7424:7441   */\n      swap1\n      pop\n        /* \"#utility.yul\":7399:7607   */\n      jump(tag_134)\n    tag_136:\n        /* \"#utility.yul\":7635:7641   */\n      dup7\n        /* \"#utility.yul\":7626:7633   */\n      dup4\n        /* \"#utility.yul\":7623:7642   */\n      lt\n        /* \"#utility.yul\":7620:7799   */\n      iszero\n      tag_137\n      jumpi\n        /* \"#utility.yul\":7693:7702   */\n      dup5\n        /* \"#utility.yul\":7688:7691   */\n      dup10\n        /* \"#utility.yul\":7684:7703   */\n      add\n        /* \"#utility.yul\":7678:7704   */\n      mload\n        /* \"#utility.yul\":7736:7784   */\n      tag_138\n        /* \"#utility.yul\":7778:7782   */\n      0x1f\n        /* \"#utility.yul\":7770:7776   */\n      dup10\n        /* \"#utility.yul\":7766:7783   */\n      and\n        /* \"#utility.yul\":7755:7764   */\n      dup3\n        /* \"#utility.yul\":7736:7784   */\n      tag_41\n      jump\t// in\n    tag_138:\n        /* \"#utility.yul\":7728:7734   */\n      dup4\n        /* \"#utility.yul\":7721:7785   */\n      sstore\n        /* \"#utility.yul\":7643:7799   */\n      pop\n        /* \"#utility.yul\":7620:7799   */\n    tag_137:\n        /* \"#utility.yul\":7845:7846   */\n      0x01\n        /* \"#utility.yul\":7841:7842   */\n      0x02\n        /* \"#utility.yul\":7833:7839   */\n      dup9\n        /* \"#utility.yul\":7829:7843   */\n      mul\n        /* \"#utility.yul\":7825:7847   */\n      add\n        /* \"#utility.yul\":7819:7823   */\n      dup9\n        /* \"#utility.yul\":7812:7848   */\n      sstore\n        /* \"#utility.yul\":7247:7858   */\n      pop\n      pop\n      pop\n        /* \"#utility.yul\":7210:8097   */\n    tag_129:\n      pop\n        /* \"#utility.yul\":6800:8103   */\n      pop\n      pop\n      pop\n        /* \"#utility.yul\":6708:8103   */\n      pop\n      pop\n      jump\t// out\n\n    auxdata: 0xa2646970667358221220390fd9a90e49a6bbdfaf09b2e2c5ef62b7601e1e4957cab718fc37e887a6b5b164736f6c63430008110033\n}\n",
				"bytecode": {
					"linkReferences": {},
					"object": "608060405234801561001057600080fd5b5061052b806100206000396000f3fe608060405234801561001057600080fd5b506004361061002b5760003560e01c80639988fa6914610030575b600080fd5b61004a600480360381019061004591906101b9565b61004c565b005b806000908161005b9190610423565b5050565b6000604051905090565b600080fd5b600080fd5b600080fd5b600080fd5b6000601f19601f8301169050919050565b7f4e487b7100000000000000000000000000000000000000000000000000000000600052604160045260246000fd5b6100c68261007d565b810181811067ffffffffffffffff821117156100e5576100e461008e565b5b80604052505050565b60006100f861005f565b905061010482826100bd565b919050565b600067ffffffffffffffff8211156101245761012361008e565b5b61012d8261007d565b9050602081019050919050565b82818337600083830152505050565b600061015c61015784610109565b6100ee565b90508281526020810184848401111561017857610177610078565b5b61018384828561013a565b509392505050565b600082601f8301126101a05761019f610073565b5b81356101b0848260208601610149565b91505092915050565b6000602082840312156101cf576101ce610069565b5b600082013567ffffffffffffffff8111156101ed576101ec61006e565b5b6101f98482850161018b565b91505092915050565b600081519050919050565b7f4e487b7100000000000000000000000000000000000000000000000000000000600052602260045260246000fd5b6000600282049050600182168061025457607f821691505b6020821081036102675761026661020d565b5b50919050565b60008190508160005260206000209050919050565b60006020601f8301049050919050565b600082821b905092915050565b6000600883026102cf7fffffffffffffffffffffffffffffffffffffffffffffffffffffffffffffffff82610292565b6102d98683610292565b95508019841693508086168417925050509392505050565b6000819050919050565b6000819050919050565b600061032061031b610316846102f1565b6102fb565b6102f1565b9050919050565b6000819050919050565b61033a83610305565b61034e61034682610327565b84845461029f565b825550505050565b600090565b610363610356565b61036e818484610331565b505050565b5b818110156103925761038760008261035b565b600181019050610374565b5050565b601f8211156103d7576103a88161026d565b6103b184610282565b810160208510156103c0578190505b6103d46103cc85610282565b830182610373565b50505b505050565b600082821c905092915050565b60006103fa600019846008026103dc565b1980831691505092915050565b600061041383836103e9565b9150826002028217905092915050565b61042c82610202565b67ffffffffffffffff8111156104455761044461008e565b5b61044f825461023c565b61045a828285610396565b600060209050601f83116001811461048d576000841561047b578287015190505b6104858582610407565b8655506104ed565b601f19841661049b8661026d565b60005b828110156104c35784890151825560018201915060208501945060208101905061049e565b868310156104e057848901516104dc601f8916826103e9565b8355505b6001600288020188555050505b50505050505056fea2646970667358221220390fd9a90e49a6bbdfaf09b2e2c5ef62b7601e1e4957cab718fc37e887a6b5b164736f6c63430008110033",
					"opcodes": "PUSH1 0x80 PUSH1 0x40 MSTORE CALLVALUE DUP1 ISZERO PUSH2 0x10 JUMPI PUSH1 0x0 DUP1 REVERT JUMPDEST POP PUSH2 0x52B DUP1 PUSH2 0x20 PUSH1 0x0 CODECOPY PUSH1 0x0 RETURN INVALID PUSH1 0x80 PUSH1 0x40 MSTORE CALLVALUE DUP1 ISZERO PUSH2 0x10 JUMPI PUSH1 0x0 DUP1 REVERT JUMPDEST POP PUSH1 0x4 CALLDATASIZE LT PUSH2 0x2B JUMPI PUSH1 0x0 CALLDATALOAD PUSH1 0xE0 SHR DUP1 PUSH4 0x9988FA69 EQ PUSH2 0x30 JUMPI JUMPDEST PUSH1 0x0 DUP1 REVERT JUMPDEST PUSH2 0x4A PUSH1 0x4 DUP1 CALLDATASIZE SUB DUP2 ADD SWAP1 PUSH2 0x45 SWAP2 SWAP1 PUSH2 0x1B9 JUMP JUMPDEST PUSH2 0x4C JUMP JUMPDEST STOP JUMPDEST DUP1 PUSH1 0x0 SWAP1 DUP2 PUSH2 0x5B SWAP2 SWAP1 PUSH2 0x423 JUMP JUMPDEST POP POP JUMP JUMPDEST PUSH1 0x0 PUSH1 0x40 MLOAD SWAP1 POP SWAP1 JUMP JUMPDEST PUSH1 0x0 DUP1 REVERT JUMPDEST PUSH1 0x0 DUP1 REVERT JUMPDEST PUSH1 0x0 DUP1 REVERT JUMPDEST PUSH1 0x0 DUP1 REVERT JUMPDEST PUSH1 0x0 PUSH1 0x1F NOT PUSH1 0x1F DUP4 ADD AND SWAP1 POP SWAP2 SWAP1 POP JUMP JUMPDEST PUSH32 0x4E487B7100000000000000000000000000000000000000000000000000000000 PUSH1 0x0 MSTORE PUSH1 0x41 PUSH1 0x4 MSTORE PUSH1 0x24 PUSH1 0x0 REVERT JUMPDEST PUSH2 0xC6 DUP3 PUSH2 0x7D JUMP JUMPDEST DUP2 ADD DUP2 DUP2 LT PUSH8 0xFFFFFFFFFFFFFFFF DUP3 GT OR ISZERO PUSH2 0xE5 JUMPI PUSH2 0xE4 PUSH2 0x8E JUMP JUMPDEST JUMPDEST DUP1 PUSH1 0x40 MSTORE POP POP POP JUMP JUMPDEST PUSH1 0x0 PUSH2 0xF8 PUSH2 0x5F JUMP JUMPDEST SWAP1 POP PUSH2 0x104 DUP3 DUP3 PUSH2 0xBD JUMP JUMPDEST SWAP2 SWAP1 POP JUMP JUMPDEST PUSH1 0x0 PUSH8 0xFFFFFFFFFFFFFFFF DUP3 GT ISZERO PUSH2 0x124 JUMPI PUSH2 0x123 PUSH2 0x8E JUMP JUMPDEST JUMPDEST PUSH2 0x12D DUP3 PUSH2 0x7D JUMP JUMPDEST SWAP1 POP PUSH1 0x20 DUP2 ADD SWAP1 POP SWAP2 SWAP1 POP JUMP JUMPDEST DUP3 DUP2 DUP4 CALLDATACOPY PUSH1 0x0 DUP4 DUP4 ADD MSTORE POP POP POP JUMP JUMPDEST PUSH1 0x0 PUSH2 0x15C PUSH2 0x157 DUP5 PUSH2 0x109 JUMP JUMPDEST PUSH2 0xEE JUMP JUMPDEST SWAP1 POP DUP3 DUP2 MSTORE PUSH1 0x20 DUP2 ADD DUP5 DUP5 DUP5 ADD GT ISZERO PUSH2 0x178 JUMPI PUSH2 0x177 PUSH2 0x78 JUMP JUMPDEST JUMPDEST PUSH2 0x183 DUP5 DUP3 DUP6 PUSH2 0x13A JUMP JUMPDEST POP SWAP4 SWAP3 POP POP POP JUMP JUMPDEST PUSH1 0x0 DUP3 PUSH1 0x1F DUP4 ADD SLT PUSH2 0x1A0 JUMPI PUSH2 0x19F PUSH2 0x73 JUMP JUMPDEST JUMPDEST DUP2 CALLDATALOAD PUSH2 0x1B0 DUP5 DUP3 PUSH1 0x20 DUP7 ADD PUSH2 0x149 JUMP JUMPDEST SWAP2 POP POP SWAP3 SWAP2 POP POP JUMP JUMPDEST PUSH1 0x0 PUSH1 0x20 DUP3 DUP5 SUB SLT ISZERO PUSH2 0x1CF JUMPI PUSH2 0x1CE PUSH2 0x69 JUMP JUMPDEST JUMPDEST PUSH1 0x0 DUP3 ADD CALLDATALOAD PUSH8 0xFFFFFFFFFFFFFFFF DUP2 GT ISZERO PUSH2 0x1ED JUMPI PUSH2 0x1EC PUSH2 0x6E JUMP JUMPDEST JUMPDEST PUSH2 0x1F9 DUP5 DUP3 DUP6 ADD PUSH2 0x18B JUMP JUMPDEST SWAP2 POP POP SWAP3 SWAP2 POP POP JUMP JUMPDEST PUSH1 0x0 DUP2 MLOAD SWAP1 POP SWAP2 SWAP1 POP JUMP JUMPDEST PUSH32 0x4E487B7100000000000000000000000000000000000000000000000000000000 PUSH1 0x0 MSTORE PUSH1 0x22 PUSH1 0x4 MSTORE PUSH1 0x24 PUSH1 0x0 REVERT JUMPDEST PUSH1 0x0 PUSH1 0x2 DUP3 DIV SWAP1 POP PUSH1 0x1 DUP3 AND DUP1 PUSH2 0x254 JUMPI PUSH1 0x7F DUP3 AND SWAP2 POP JUMPDEST PUSH1 0x20 DUP3 LT DUP2 SUB PUSH2 0x267 JUMPI PUSH2 0x266 PUSH2 0x20D JUMP JUMPDEST JUMPDEST POP SWAP2 SWAP1 POP JUMP JUMPDEST PUSH1 0x0 DUP2 SWAP1 POP DUP2 PUSH1 0x0 MSTORE PUSH1 0x20 PUSH1 0x0 KECCAK256 SWAP1 POP SWAP2 SWAP1 POP JUMP JUMPDEST PUSH1 0x0 PUSH1 0x20 PUSH1 0x1F DUP4 ADD DIV SWAP1 POP SWAP2 SWAP1 POP JUMP JUMPDEST PUSH1 0x0 DUP3 DUP3 SHL SWAP1 POP SWAP3 SWAP2 POP POP JUMP JUMPDEST PUSH1 0x0 PUSH1 0x8 DUP4 MUL PUSH2 0x2CF PUSH32 0xFFFFFFFFFFFFFFFFFFFFFFFFFFFFFFFFFFFFFFFFFFFFFFFFFFFFFFFFFFFFFFFF DUP3 PUSH2 0x292 JUMP JUMPDEST PUSH2 0x2D9 DUP7 DUP4 PUSH2 0x292 JUMP JUMPDEST SWAP6 POP DUP1 NOT DUP5 AND SWAP4 POP DUP1 DUP7 AND DUP5 OR SWAP3 POP POP POP SWAP4 SWAP3 POP POP POP JUMP JUMPDEST PUSH1 0x0 DUP2 SWAP1 POP SWAP2 SWAP1 POP JUMP JUMPDEST PUSH1 0x0 DUP2 SWAP1 POP SWAP2 SWAP1 POP JUMP JUMPDEST PUSH1 0x0 PUSH2 0x320 PUSH2 0x31B PUSH2 0x316 DUP5 PUSH2 0x2F1 JUMP JUMPDEST PUSH2 0x2FB JUMP JUMPDEST PUSH2 0x2F1 JUMP JUMPDEST SWAP1 POP SWAP2 SWAP1 POP JUMP JUMPDEST PUSH1 0x0 DUP2 SWAP1 POP SWAP2 SWAP1 POP JUMP JUMPDEST PUSH2 0x33A DUP4 PUSH2 0x305 JUMP JUMPDEST PUSH2 0x34E PUSH2 0x346 DUP3 PUSH2 0x327 JUMP JUMPDEST DUP5 DUP5 SLOAD PUSH2 0x29F JUMP JUMPDEST DUP3 SSTORE POP POP POP POP JUMP JUMPDEST PUSH1 0x0 SWAP1 JUMP JUMPDEST PUSH2 0x363 PUSH2 0x356 JUMP JUMPDEST PUSH2 0x36E DUP2 DUP5 DUP5 PUSH2 0x331 JUMP JUMPDEST POP POP POP JUMP JUMPDEST JUMPDEST DUP2 DUP2 LT ISZERO PUSH2 0x392 JUMPI PUSH2 0x387 PUSH1 0x0 DUP3 PUSH2 0x35B JUMP JUMPDEST PUSH1 0x1 DUP2 ADD SWAP1 POP PUSH2 0x374 JUMP JUMPDEST POP POP JUMP JUMPDEST PUSH1 0x1F DUP3 GT ISZERO PUSH2 0x3D7 JUMPI PUSH2 0x3A8 DUP2 PUSH2 0x26D JUMP JUMPDEST PUSH2 0x3B1 DUP5 PUSH2 0x282 JUMP JUMPDEST DUP2 ADD PUSH1 0x20 DUP6 LT ISZERO PUSH2 0x3C0 JUMPI DUP2 SWAP1 POP JUMPDEST PUSH2 0x3D4 PUSH2 0x3CC DUP6 PUSH2 0x282 JUMP JUMPDEST DUP4 ADD DUP3 PUSH2 0x373 JUMP JUMPDEST POP POP JUMPDEST POP POP POP JUMP JUMPDEST PUSH1 0x0 DUP3 DUP3 SHR SWAP1 POP SWAP3 SWAP2 POP POP JUMP JUMPDEST PUSH1 0x0 PUSH2 0x3FA PUSH1 0x0 NOT DUP5 PUSH1 0x8 MUL PUSH2 0x3DC JUMP JUMPDEST NOT DUP1 DUP4 AND SWAP2 POP POP SWAP3 SWAP2 POP POP JUMP JUMPDEST PUSH1 0x0 PUSH2 0x413 DUP4 DUP4 PUSH2 0x3E9 JUMP JUMPDEST SWAP2 POP DUP3 PUSH1 0x2 MUL DUP3 OR SWAP1 POP SWAP3 SWAP2 POP POP JUMP JUMPDEST PUSH2 0x42C DUP3 PUSH2 0x202 JUMP JUMPDEST PUSH8 0xFFFFFFFFFFFFFFFF DUP2 GT ISZERO PUSH2 0x445 JUMPI PUSH2 0x444 PUSH2 0x8E JUMP JUMPDEST JUMPDEST PUSH2 0x44F DUP3 SLOAD PUSH2 0x23C JUMP JUMPDEST PUSH2 0x45A DUP3 DUP3 DUP6 PUSH2 0x396 JUMP JUMPDEST PUSH1 0x0 PUSH1 0x20 SWAP1 POP PUSH1 0x1F DUP4 GT PUSH1 0x1 DUP2 EQ PUSH2 0x48D JUMPI PUSH1 0x0 DUP5 ISZERO PUSH2 0x47B JUMPI DUP3 DUP8 ADD MLOAD SWAP1 POP JUMPDEST PUSH2 0x485 DUP6 DUP3 PUSH2 0x407 JUMP JUMPDEST DUP7 SSTORE POP PUSH2 0x4ED JUMP JUMPDEST PUSH1 0x1F NOT DUP5 AND PUSH2 0x49B DUP7 PUSH2 0x26D JUMP JUMPDEST PUSH1 0x0 JUMPDEST DUP3 DUP2 LT ISZERO PUSH2 0x4C3 JUMPI DUP5 DUP10 ADD MLOAD DUP3 SSTORE PUSH1 0x1 DUP3 ADD SWAP2 POP PUSH1 0x20 DUP6 ADD SWAP5 POP PUSH1 0x20 DUP2 ADD SWAP1 POP PUSH2 0x49E JUMP JUMPDEST DUP7 DUP4 LT ISZERO PUSH2 0x4E0 JUMPI DUP5 DUP10 ADD MLOAD PUSH2 0x4DC PUSH1 0x1F DUP10 AND DUP3 PUSH2 0x3E9 JUMP JUMPDEST DUP4 SSTORE POP JUMPDEST PUSH1 0x1 PUSH1 0x2 DUP9 MUL ADD DUP9 SSTORE POP POP POP JUMPDEST POP POP POP POP POP POP JUMP INVALID LOG2 PUSH5 0x6970667358 0x22 SLT KECCAK256 CODECOPY 0xF 0xD9 0xA9 0xE 0x49 0xA6 0xBB 0xDF 0xAF MULMOD 0xB2 0xE2 0xC5 0xEF PUSH3 0xB7601E 0x1E 0x49 JUMPI 0xCA 0xB7 XOR 0xFC CALLDATACOPY 0xE8 DUP8 0xA6 0xB5 0xB1 PUSH5 0x736F6C6343 STOP ADDMOD GT STOP CALLER "
				},
				"gasEstimates": {
					"creation": {
						"codeDepositCost": "264600",
						"executionCost": "306",
						"totalCost": "264906"
					},
					"external": {
						"setColor(string)": "infinite"
					}
				},
				"methodIdentifiers": {
					"setColor(string)": "9988fa69"
				}
			},
			"storageLayout": {
				"storage": [
					{
						"astId": 3,
						"contract": "Week-5/inheritanceExercise.sol:Vehicle",
						"label": "color",
						"offset": 0,
						"slot": "0",
						"type": "t_string_storage"
					}
				],
				"types": {
					"t_string_storage": {
						"encoding": "bytes",
						"label": "string",
						"numberOfBytes": "32"
					}
				}
			},
			"userdoc": {
				"kind": "user",
				"methods": {},
				"version": 1
			}
		}
	}
}