{
	"Week-3/loops.sol": {
		"loops": {
			"abi": [
				{
					"inputs": [
						{
							"internalType": "uint256",
							"name": "n",
							"type": "uint256"
						}
					],
					"name": "calculateFactorial",
					"outputs": [
						{
							"internalType": "uint256",
							"name": "",
							"type": "uint256"
						}
					],
					"stateMutability": "pure",
					"type": "function"
				},
				{
					"inputs": [
						{
							"internalType": "uint256",
							"name": "n",
							"type": "uint256"
						}
					],
					"name": "calculateSum",
					"outputs": [
						{
							"internalType": "uint256",
							"name": "",
							"type": "uint256"
						}
					],
					"stateMutability": "pure",
					"type": "function"
				},
				{
					"inputs": [
						{
							"internalType": "uint256",
							"name": "n",
							"type": "uint256"
						}
					],
					"name": "calculateSumOfSquares",
					"outputs": [
						{
							"internalType": "uint256",
							"name": "",
							"type": "uint256"
						}
					],
					"stateMutability": "pure",
					"type": "function"
				},
				{
					"inputs": [
						{
							"internalType": "uint256",
							"name": "n",
							"type": "uint256"
						}
					],
					"name": "doWhileCalculateFactorial",
					"outputs": [
						{
							"internalType": "uint256",
							"name": "",
							"type": "uint256"
						}
					],
					"stateMutability": "pure",
					"type": "function"
				},
				{
					"inputs": [],
					"name": "exampleLoops",
					"outputs": [],
					"stateMutability": "pure",
					"type": "function"
				}
			],
			"devdoc": {
				"kind": "dev",
				"methods": {},
				"version": 1
			},
			"evm": {
				"assembly": "    /* \"Week-3/loops.sol\":58:1696  contract loops{... */\n  mstore(0x40, 0x80)\n  callvalue\n  dup1\n  iszero\n  tag_1\n  jumpi\n  0x00\n  dup1\n  revert\ntag_1:\n  pop\n  dataSize(sub_0)\n  dup1\n  dataOffset(sub_0)\n  0x00\n  codecopy\n  0x00\n  return\nstop\n\nsub_0: assembly {\n        /* \"Week-3/loops.sol\":58:1696  contract loops{... */\n      mstore(0x40, 0x80)\n      callvalue\n      dup1\n      iszero\n      tag_1\n      jumpi\n      0x00\n      dup1\n      revert\n    tag_1:\n      pop\n      jumpi(tag_2, lt(calldatasize, 0x04))\n      shr(0xe0, calldataload(0x00))\n      dup1\n      0x3d41c222\n      eq\n      tag_3\n      jumpi\n      dup1\n      0x5f8932ff\n      eq\n      tag_4\n      jumpi\n      dup1\n      0xaa509f41\n      eq\n      tag_5\n      jumpi\n      dup1\n      0xd231bfc9\n      eq\n      tag_6\n      jumpi\n      dup1\n      0xdf754454\n      eq\n      tag_7\n      jumpi\n    tag_2:\n      0x00\n      dup1\n      revert\n        /* \"Week-3/loops.sol\":720:934  function calculateFactorial(uint256 n) public pure returns (uint256) {... */\n    tag_3:\n      tag_8\n      0x04\n      dup1\n      calldatasize\n      sub\n      dup2\n      add\n      swap1\n      tag_9\n      swap2\n      swap1\n      tag_10\n      jump\t// in\n    tag_9:\n      tag_11\n      jump\t// in\n    tag_8:\n      mload(0x40)\n      tag_12\n      swap2\n      swap1\n      tag_13\n      jump\t// in\n    tag_12:\n      mload(0x40)\n      dup1\n      swap2\n      sub\n      swap1\n      return\n        /* \"Week-3/loops.sol\":442:654  function calculateSum(uint256 n) public pure returns (uint256) {... */\n    tag_4:\n      tag_14\n      0x04\n      dup1\n      calldatasize\n      sub\n      dup2\n      add\n      swap1\n      tag_15\n      swap2\n      swap1\n      tag_10\n      jump\t// in\n    tag_15:\n      tag_16\n      jump\t// in\n    tag_14:\n      mload(0x40)\n      tag_17\n      swap2\n      swap1\n      tag_13\n      jump\t// in\n    tag_17:\n      mload(0x40)\n      dup1\n      swap2\n      sub\n      swap1\n      return\n        /* \"Week-3/loops.sol\":1008:1255  function doWhileCalculateFactorial(uint256 n) public pure returns (uint256) {... */\n    tag_5:\n      tag_18\n      0x04\n      dup1\n      calldatasize\n      sub\n      dup2\n      add\n      swap1\n      tag_19\n      swap2\n      swap1\n      tag_10\n      jump\t// in\n    tag_19:\n      tag_20\n      jump\t// in\n    tag_18:\n      mload(0x40)\n      tag_21\n      swap2\n      swap1\n      tag_13\n      jump\t// in\n    tag_21:\n      mload(0x40)\n      dup1\n      swap2\n      sub\n      swap1\n      return\n        /* \"Week-3/loops.sol\":113:377  function exampleLoops() public pure {... */\n    tag_6:\n      tag_22\n      tag_23\n      jump\t// in\n    tag_22:\n      stop\n        /* \"Week-3/loops.sol\":1504:1694  function calculateSumOfSquares(uint n) public pure returns (uint) {... */\n    tag_7:\n      tag_24\n      0x04\n      dup1\n      calldatasize\n      sub\n      dup2\n      add\n      swap1\n      tag_25\n      swap2\n      swap1\n      tag_10\n      jump\t// in\n    tag_25:\n      tag_26\n      jump\t// in\n    tag_24:\n      mload(0x40)\n      tag_27\n      swap2\n      swap1\n      tag_13\n      jump\t// in\n    tag_27:\n      mload(0x40)\n      dup1\n      swap2\n      sub\n      swap1\n      return\n        /* \"Week-3/loops.sol\":720:934  function calculateFactorial(uint256 n) public pure returns (uint256) {... */\n    tag_11:\n        /* \"Week-3/loops.sol\":780:787  uint256 */\n      0x00\n        /* \"Week-3/loops.sol\":799:816  uint256 factorial */\n      dup1\n        /* \"Week-3/loops.sol\":819:820  1 */\n      0x01\n        /* \"Week-3/loops.sol\":799:820  uint256 factorial = 1 */\n      swap1\n      pop\n        /* \"Week-3/loops.sol\":835:844  uint256 i */\n      0x00\n        /* \"Week-3/loops.sol\":847:848  1 */\n      0x01\n        /* \"Week-3/loops.sol\":835:848  uint256 i = 1 */\n      swap1\n      pop\n        /* \"Week-3/loops.sol\":830:902  for (uint256 i = 1; i <= n; i++) {... */\n    tag_29:\n        /* \"Week-3/loops.sol\":855:856  n */\n      dup4\n        /* \"Week-3/loops.sol\":850:851  i */\n      dup2\n        /* \"Week-3/loops.sol\":850:856  i <= n */\n      gt\n        /* \"Week-3/loops.sol\":830:902  for (uint256 i = 1; i <= n; i++) {... */\n      tag_30\n      jumpi\n        /* \"Week-3/loops.sol\":890:891  i */\n      dup1\n        /* \"Week-3/loops.sol\":877:891  factorial *= i */\n      dup3\n      tag_32\n      swap2\n      swap1\n      tag_33\n      jump\t// in\n    tag_32:\n      swap2\n      pop\n        /* \"Week-3/loops.sol\":858:861  i++ */\n      dup1\n      dup1\n      tag_34\n      swap1\n      tag_35\n      jump\t// in\n    tag_34:\n      swap2\n      pop\n      pop\n        /* \"Week-3/loops.sol\":830:902  for (uint256 i = 1; i <= n; i++) {... */\n      jump(tag_29)\n    tag_30:\n      pop\n        /* \"Week-3/loops.sol\":918:927  factorial */\n      dup1\n        /* \"Week-3/loops.sol\":911:927  return factorial */\n      swap2\n      pop\n      pop\n        /* \"Week-3/loops.sol\":720:934  function calculateFactorial(uint256 n) public pure returns (uint256) {... */\n      swap2\n      swap1\n      pop\n      jump\t// out\n        /* \"Week-3/loops.sol\":442:654  function calculateSum(uint256 n) public pure returns (uint256) {... */\n    tag_16:\n        /* \"Week-3/loops.sol\":496:503  uint256 */\n      0x00\n        /* \"Week-3/loops.sol\":515:526  uint256 sum */\n      dup1\n        /* \"Week-3/loops.sol\":529:530  0 */\n      0x00\n        /* \"Week-3/loops.sol\":515:530  uint256 sum = 0 */\n      swap1\n      pop\n        /* \"Week-3/loops.sol\":540:549  uint256 i */\n      0x00\n        /* \"Week-3/loops.sol\":552:553  1 */\n      0x01\n        /* \"Week-3/loops.sol\":540:553  uint256 i = 1 */\n      swap1\n      pop\n        /* \"Week-3/loops.sol\":563:628  while (i <= n) {... */\n    tag_37:\n        /* \"Week-3/loops.sol\":575:576  n */\n      dup4\n        /* \"Week-3/loops.sol\":570:571  i */\n      dup2\n        /* \"Week-3/loops.sol\":570:576  i <= n */\n      gt\n        /* \"Week-3/loops.sol\":563:628  while (i <= n) {... */\n      tag_38\n      jumpi\n        /* \"Week-3/loops.sol\":599:600  i */\n      dup1\n        /* \"Week-3/loops.sol\":592:600  sum += i */\n      dup3\n      tag_39\n      swap2\n      swap1\n      tag_40\n      jump\t// in\n    tag_39:\n      swap2\n      pop\n        /* \"Week-3/loops.sol\":614:617  i++ */\n      dup1\n      dup1\n      tag_41\n      swap1\n      tag_35\n      jump\t// in\n    tag_41:\n      swap2\n      pop\n      pop\n        /* \"Week-3/loops.sol\":563:628  while (i <= n) {... */\n      jump(tag_37)\n    tag_38:\n        /* \"Week-3/loops.sol\":644:647  sum */\n      dup2\n        /* \"Week-3/loops.sol\":637:647  return sum */\n      swap3\n      pop\n      pop\n      pop\n        /* \"Week-3/loops.sol\":442:654  function calculateSum(uint256 n) public pure returns (uint256) {... */\n      swap2\n      swap1\n      pop\n      jump\t// out\n        /* \"Week-3/loops.sol\":1008:1255  function doWhileCalculateFactorial(uint256 n) public pure returns (uint256) {... */\n    tag_20:\n        /* \"Week-3/loops.sol\":1075:1082  uint256 */\n      0x00\n        /* \"Week-3/loops.sol\":1094:1111  uint256 factorial */\n      dup1\n        /* \"Week-3/loops.sol\":1114:1115  1 */\n      0x01\n        /* \"Week-3/loops.sol\":1094:1115  uint256 factorial = 1 */\n      swap1\n      pop\n        /* \"Week-3/loops.sol\":1125:1134  uint256 i */\n      0x00\n        /* \"Week-3/loops.sol\":1137:1138  1 */\n      0x01\n        /* \"Week-3/loops.sol\":1125:1138  uint256 i = 1 */\n      swap1\n      pop\n        /* \"Week-3/loops.sol\":1148:1223  do {... */\n    tag_43:\n        /* \"Week-3/loops.sol\":1178:1179  i */\n      dup1\n        /* \"Week-3/loops.sol\":1165:1179  factorial *= i */\n      dup3\n      tag_46\n      swap2\n      swap1\n      tag_33\n      jump\t// in\n    tag_46:\n      swap2\n      pop\n        /* \"Week-3/loops.sol\":1193:1196  i++ */\n      dup1\n      dup1\n      tag_47\n      swap1\n      tag_35\n      jump\t// in\n    tag_47:\n      swap2\n      pop\n      pop\n        /* \"Week-3/loops.sol\":1220:1221  n */\n      dup4\n        /* \"Week-3/loops.sol\":1215:1216  i */\n      dup2\n        /* \"Week-3/loops.sol\":1215:1221  i <= n */\n      gt\n      iszero\n        /* \"Week-3/loops.sol\":1148:1223  do {... */\n      tag_43\n      jumpi\n        /* \"Week-3/loops.sol\":1239:1248  factorial */\n      dup2\n        /* \"Week-3/loops.sol\":1232:1248  return factorial */\n      swap3\n      pop\n      pop\n      pop\n        /* \"Week-3/loops.sol\":1008:1255  function doWhileCalculateFactorial(uint256 n) public pure returns (uint256) {... */\n      swap2\n      swap1\n      pop\n      jump\t// out\n        /* \"Week-3/loops.sol\":113:377  function exampleLoops() public pure {... */\n    tag_23:\n        /* \"Week-3/loops.sol\":164:173  uint256 i */\n      0x00\n        /* \"Week-3/loops.sol\":159:236  for (uint256 i = 0; i < 10; i++) {... */\n    tag_49:\n        /* \"Week-3/loops.sol\":183:185  10 */\n      0x0a\n        /* \"Week-3/loops.sol\":179:180  i */\n      dup2\n        /* \"Week-3/loops.sol\":179:185  i < 10 */\n      lt\n        /* \"Week-3/loops.sol\":159:236  for (uint256 i = 0; i < 10; i++) {... */\n      iszero\n      tag_50\n      jumpi\n        /* \"Week-3/loops.sol\":187:190  i++ */\n      dup1\n      dup1\n      tag_52\n      swap1\n      tag_35\n      jump\t// in\n    tag_52:\n      swap2\n      pop\n      pop\n        /* \"Week-3/loops.sol\":159:236  for (uint256 i = 0; i < 10; i++) {... */\n      jump(tag_49)\n    tag_50:\n      pop\n        /* \"Week-3/loops.sol\":248:257  uint256 j */\n      0x00\n        /* \"Week-3/loops.sol\":271:371  while (j < 10) {... */\n    tag_53:\n        /* \"Week-3/loops.sol\":282:284  10 */\n      0x0a\n        /* \"Week-3/loops.sol\":278:279  j */\n      dup2\n        /* \"Week-3/loops.sol\":278:284  j < 10 */\n      lt\n        /* \"Week-3/loops.sol\":271:371  while (j < 10) {... */\n      iszero\n      tag_54\n      jumpi\n        /* \"Week-3/loops.sol\":357:360  j++ */\n      dup1\n      dup1\n      tag_55\n      swap1\n      tag_35\n      jump\t// in\n    tag_55:\n      swap2\n      pop\n      pop\n        /* \"Week-3/loops.sol\":271:371  while (j < 10) {... */\n      jump(tag_53)\n    tag_54:\n        /* \"Week-3/loops.sol\":149:377  {... */\n      pop\n        /* \"Week-3/loops.sol\":113:377  function exampleLoops() public pure {... */\n      jump\t// out\n        /* \"Week-3/loops.sol\":1504:1694  function calculateSumOfSquares(uint n) public pure returns (uint) {... */\n    tag_26:\n        /* \"Week-3/loops.sol\":1564:1568  uint */\n      0x00\n        /* \"Week-3/loops.sol\":1580:1588  uint sum */\n      dup1\n        /* \"Week-3/loops.sol\":1591:1592  0 */\n      0x00\n        /* \"Week-3/loops.sol\":1580:1592  uint sum = 0 */\n      swap1\n      pop\n        /* \"Week-3/loops.sol\":1607:1613  uint i */\n      0x00\n        /* \"Week-3/loops.sol\":1602:1668  for (uint i = 0; i < n; i++) {... */\n    tag_57:\n        /* \"Week-3/loops.sol\":1623:1624  n */\n      dup4\n        /* \"Week-3/loops.sol\":1619:1620  i */\n      dup2\n        /* \"Week-3/loops.sol\":1619:1624  i < n */\n      lt\n        /* \"Week-3/loops.sol\":1602:1668  for (uint i = 0; i < n; i++) {... */\n      iszero\n      tag_58\n      jumpi\n        /* \"Week-3/loops.sol\":1656:1657  i */\n      dup1\n        /* \"Week-3/loops.sol\":1652:1653  i */\n      dup2\n        /* \"Week-3/loops.sol\":1652:1657  i * i */\n      tag_60\n      swap2\n      swap1\n      tag_33\n      jump\t// in\n    tag_60:\n        /* \"Week-3/loops.sol\":1645:1657  sum += i * i */\n      dup3\n      tag_61\n      swap2\n      swap1\n      tag_40\n      jump\t// in\n    tag_61:\n      swap2\n      pop\n        /* \"Week-3/loops.sol\":1626:1629  i++ */\n      dup1\n      dup1\n      tag_62\n      swap1\n      tag_35\n      jump\t// in\n    tag_62:\n      swap2\n      pop\n      pop\n        /* \"Week-3/loops.sol\":1602:1668  for (uint i = 0; i < n; i++) {... */\n      jump(tag_57)\n    tag_58:\n      pop\n        /* \"Week-3/loops.sol\":1684:1687  sum */\n      dup1\n        /* \"Week-3/loops.sol\":1677:1687  return sum */\n      swap2\n      pop\n      pop\n        /* \"Week-3/loops.sol\":1504:1694  function calculateSumOfSquares(uint n) public pure returns (uint) {... */\n      swap2\n      swap1\n      pop\n      jump\t// out\n        /* \"#utility.yul\":88:205   */\n    tag_64:\n        /* \"#utility.yul\":197:198   */\n      0x00\n        /* \"#utility.yul\":194:195   */\n      dup1\n        /* \"#utility.yul\":187:199   */\n      revert\n        /* \"#utility.yul\":334:411   */\n    tag_66:\n        /* \"#utility.yul\":371:378   */\n      0x00\n        /* \"#utility.yul\":400:405   */\n      dup2\n        /* \"#utility.yul\":389:405   */\n      swap1\n      pop\n        /* \"#utility.yul\":334:411   */\n      swap2\n      swap1\n      pop\n      jump\t// out\n        /* \"#utility.yul\":417:539   */\n    tag_67:\n        /* \"#utility.yul\":490:514   */\n      tag_77\n        /* \"#utility.yul\":508:513   */\n      dup2\n        /* \"#utility.yul\":490:514   */\n      tag_66\n      jump\t// in\n    tag_77:\n        /* \"#utility.yul\":483:488   */\n      dup2\n        /* \"#utility.yul\":480:515   */\n      eq\n        /* \"#utility.yul\":470:533   */\n      tag_78\n      jumpi\n        /* \"#utility.yul\":529:530   */\n      0x00\n        /* \"#utility.yul\":526:527   */\n      dup1\n        /* \"#utility.yul\":519:531   */\n      revert\n        /* \"#utility.yul\":470:533   */\n    tag_78:\n        /* \"#utility.yul\":417:539   */\n      pop\n      jump\t// out\n        /* \"#utility.yul\":545:684   */\n    tag_68:\n        /* \"#utility.yul\":591:596   */\n      0x00\n        /* \"#utility.yul\":629:635   */\n      dup2\n        /* \"#utility.yul\":616:636   */\n      calldataload\n        /* \"#utility.yul\":607:636   */\n      swap1\n      pop\n        /* \"#utility.yul\":645:678   */\n      tag_80\n        /* \"#utility.yul\":672:677   */\n      dup2\n        /* \"#utility.yul\":645:678   */\n      tag_67\n      jump\t// in\n    tag_80:\n        /* \"#utility.yul\":545:684   */\n      swap3\n      swap2\n      pop\n      pop\n      jump\t// out\n        /* \"#utility.yul\":690:1019   */\n    tag_10:\n        /* \"#utility.yul\":749:755   */\n      0x00\n        /* \"#utility.yul\":798:800   */\n      0x20\n        /* \"#utility.yul\":786:795   */\n      dup3\n        /* \"#utility.yul\":777:784   */\n      dup5\n        /* \"#utility.yul\":773:796   */\n      sub\n        /* \"#utility.yul\":769:801   */\n      slt\n        /* \"#utility.yul\":766:885   */\n      iszero\n      tag_82\n      jumpi\n        /* \"#utility.yul\":804:883   */\n      tag_83\n      tag_64\n      jump\t// in\n    tag_83:\n        /* \"#utility.yul\":766:885   */\n    tag_82:\n        /* \"#utility.yul\":924:925   */\n      0x00\n        /* \"#utility.yul\":949:1002   */\n      tag_84\n        /* \"#utility.yul\":994:1001   */\n      dup5\n        /* \"#utility.yul\":985:991   */\n      dup3\n        /* \"#utility.yul\":974:983   */\n      dup6\n        /* \"#utility.yul\":970:992   */\n      add\n        /* \"#utility.yul\":949:1002   */\n      tag_68\n      jump\t// in\n    tag_84:\n        /* \"#utility.yul\":939:1002   */\n      swap2\n      pop\n        /* \"#utility.yul\":895:1012   */\n      pop\n        /* \"#utility.yul\":690:1019   */\n      swap3\n      swap2\n      pop\n      pop\n      jump\t// out\n        /* \"#utility.yul\":1025:1143   */\n    tag_69:\n        /* \"#utility.yul\":1112:1136   */\n      tag_86\n        /* \"#utility.yul\":1130:1135   */\n      dup2\n        /* \"#utility.yul\":1112:1136   */\n      tag_66\n      jump\t// in\n    tag_86:\n        /* \"#utility.yul\":1107:1110   */\n      dup3\n        /* \"#utility.yul\":1100:1137   */\n      mstore\n        /* \"#utility.yul\":1025:1143   */\n      pop\n      pop\n      jump\t// out\n        /* \"#utility.yul\":1149:1371   */\n    tag_13:\n        /* \"#utility.yul\":1242:1246   */\n      0x00\n        /* \"#utility.yul\":1280:1282   */\n      0x20\n        /* \"#utility.yul\":1269:1278   */\n      dup3\n        /* \"#utility.yul\":1265:1283   */\n      add\n        /* \"#utility.yul\":1257:1283   */\n      swap1\n      pop\n        /* \"#utility.yul\":1293:1364   */\n      tag_88\n        /* \"#utility.yul\":1361:1362   */\n      0x00\n        /* \"#utility.yul\":1350:1359   */\n      dup4\n        /* \"#utility.yul\":1346:1363   */\n      add\n        /* \"#utility.yul\":1337:1343   */\n      dup5\n        /* \"#utility.yul\":1293:1364   */\n      tag_69\n      jump\t// in\n    tag_88:\n        /* \"#utility.yul\":1149:1371   */\n      swap3\n      swap2\n      pop\n      pop\n      jump\t// out\n        /* \"#utility.yul\":1377:1557   */\n    tag_70:\n        /* \"#utility.yul\":1425:1502   */\n      0x4e487b7100000000000000000000000000000000000000000000000000000000\n        /* \"#utility.yul\":1422:1423   */\n      0x00\n        /* \"#utility.yul\":1415:1503   */\n      mstore\n        /* \"#utility.yul\":1522:1526   */\n      0x11\n        /* \"#utility.yul\":1519:1520   */\n      0x04\n        /* \"#utility.yul\":1512:1527   */\n      mstore\n        /* \"#utility.yul\":1546:1550   */\n      0x24\n        /* \"#utility.yul\":1543:1544   */\n      0x00\n        /* \"#utility.yul\":1536:1551   */\n      revert\n        /* \"#utility.yul\":1563:1973   */\n    tag_33:\n        /* \"#utility.yul\":1603:1610   */\n      0x00\n        /* \"#utility.yul\":1626:1646   */\n      tag_91\n        /* \"#utility.yul\":1644:1645   */\n      dup3\n        /* \"#utility.yul\":1626:1646   */\n      tag_66\n      jump\t// in\n    tag_91:\n        /* \"#utility.yul\":1621:1646   */\n      swap2\n      pop\n        /* \"#utility.yul\":1660:1680   */\n      tag_92\n        /* \"#utility.yul\":1678:1679   */\n      dup4\n        /* \"#utility.yul\":1660:1680   */\n      tag_66\n      jump\t// in\n    tag_92:\n        /* \"#utility.yul\":1655:1680   */\n      swap3\n      pop\n        /* \"#utility.yul\":1715:1716   */\n      dup3\n        /* \"#utility.yul\":1712:1713   */\n      dup3\n        /* \"#utility.yul\":1708:1717   */\n      mul\n        /* \"#utility.yul\":1737:1767   */\n      tag_93\n        /* \"#utility.yul\":1755:1766   */\n      dup2\n        /* \"#utility.yul\":1737:1767   */\n      tag_66\n      jump\t// in\n    tag_93:\n        /* \"#utility.yul\":1726:1767   */\n      swap2\n      pop\n        /* \"#utility.yul\":1916:1917   */\n      dup3\n        /* \"#utility.yul\":1907:1914   */\n      dup3\n        /* \"#utility.yul\":1903:1918   */\n      div\n        /* \"#utility.yul\":1900:1901   */\n      dup5\n        /* \"#utility.yul\":1897:1919   */\n      eq\n        /* \"#utility.yul\":1877:1878   */\n      dup4\n        /* \"#utility.yul\":1870:1879   */\n      iszero\n        /* \"#utility.yul\":1850:1933   */\n      or\n        /* \"#utility.yul\":1827:1966   */\n      tag_94\n      jumpi\n        /* \"#utility.yul\":1946:1964   */\n      tag_95\n      tag_70\n      jump\t// in\n    tag_95:\n        /* \"#utility.yul\":1827:1966   */\n    tag_94:\n        /* \"#utility.yul\":1611:1973   */\n      pop\n        /* \"#utility.yul\":1563:1973   */\n      swap3\n      swap2\n      pop\n      pop\n      jump\t// out\n        /* \"#utility.yul\":1979:2212   */\n    tag_35:\n        /* \"#utility.yul\":2018:2021   */\n      0x00\n        /* \"#utility.yul\":2041:2065   */\n      tag_97\n        /* \"#utility.yul\":2059:2064   */\n      dup3\n        /* \"#utility.yul\":2041:2065   */\n      tag_66\n      jump\t// in\n    tag_97:\n        /* \"#utility.yul\":2032:2065   */\n      swap2\n      pop\n        /* \"#utility.yul\":2087:2153   */\n      0xffffffffffffffffffffffffffffffffffffffffffffffffffffffffffffffff\n        /* \"#utility.yul\":2080:2085   */\n      dup3\n        /* \"#utility.yul\":2077:2154   */\n      sub\n        /* \"#utility.yul\":2074:2177   */\n      tag_98\n      jumpi\n        /* \"#utility.yul\":2157:2175   */\n      tag_99\n      tag_70\n      jump\t// in\n    tag_99:\n        /* \"#utility.yul\":2074:2177   */\n    tag_98:\n        /* \"#utility.yul\":2204:2205   */\n      0x01\n        /* \"#utility.yul\":2197:2202   */\n      dup3\n        /* \"#utility.yul\":2193:2206   */\n      add\n        /* \"#utility.yul\":2186:2206   */\n      swap1\n      pop\n        /* \"#utility.yul\":1979:2212   */\n      swap2\n      swap1\n      pop\n      jump\t// out\n        /* \"#utility.yul\":2218:2409   */\n    tag_40:\n        /* \"#utility.yul\":2258:2261   */\n      0x00\n        /* \"#utility.yul\":2277:2297   */\n      tag_101\n        /* \"#utility.yul\":2295:2296   */\n      dup3\n        /* \"#utility.yul\":2277:2297   */\n      tag_66\n      jump\t// in\n    tag_101:\n        /* \"#utility.yul\":2272:2297   */\n      swap2\n      pop\n        /* \"#utility.yul\":2311:2331   */\n      tag_102\n        /* \"#utility.yul\":2329:2330   */\n      dup4\n        /* \"#utility.yul\":2311:2331   */\n      tag_66\n      jump\t// in\n    tag_102:\n        /* \"#utility.yul\":2306:2331   */\n      swap3\n      pop\n        /* \"#utility.yul\":2354:2355   */\n      dup3\n        /* \"#utility.yul\":2351:2352   */\n      dup3\n        /* \"#utility.yul\":2347:2356   */\n      add\n        /* \"#utility.yul\":2340:2356   */\n      swap1\n      pop\n        /* \"#utility.yul\":2375:2378   */\n      dup1\n        /* \"#utility.yul\":2372:2373   */\n      dup3\n        /* \"#utility.yul\":2369:2379   */\n      gt\n        /* \"#utility.yul\":2366:2402   */\n      iszero\n      tag_103\n      jumpi\n        /* \"#utility.yul\":2382:2400   */\n      tag_104\n      tag_70\n      jump\t// in\n    tag_104:\n        /* \"#utility.yul\":2366:2402   */\n    tag_103:\n        /* \"#utility.yul\":2218:2409   */\n      swap3\n      swap2\n      pop\n      pop\n      jump\t// out\n\n    auxdata: 0xa26469706673582212200f793501fb90124c9f60b4352efbace7474077a352eb9fd90952c24b2503567464736f6c63430008110033\n}\n",
				"bytecode": {
					"linkReferences": {},
					"object": "608060405234801561001057600080fd5b50610421806100206000396000f3fe608060405234801561001057600080fd5b50600436106100575760003560e01c80633d41c2221461005c5780635f8932ff1461008c578063aa509f41146100bc578063d231bfc9146100ec578063df754454146100f6575b600080fd5b610076600480360381019061007191906102a7565b610126565b60405161008391906102e3565b60405180910390f35b6100a660048036038101906100a191906102a7565b610166565b6040516100b391906102e3565b60405180910390f35b6100d660048036038101906100d191906102a7565b6101a6565b6040516100e391906102e3565b60405180910390f35b6100f46101e2565b005b610110600480360381019061010b91906102a7565b610224565b60405161011d91906102e3565b60405180910390f35b600080600190506000600190505b83811161015c578082610147919061032d565b915080806101549061036f565b915050610134565b5080915050919050565b600080600090506000600190505b83811161019c57808261018791906103b7565b915080806101949061036f565b915050610174565b8192505050919050565b600080600190506000600190505b80826101c0919061032d565b915080806101cd9061036f565b915050838111156101b4578192505050919050565b60005b600a8110156102015780806101f99061036f565b9150506101e5565b5060005b600a8110156102215780806102199061036f565b915050610205565b50565b6000806000905060005b83811015610262578081610242919061032d565b8261024d91906103b7565b9150808061025a9061036f565b91505061022e565b5080915050919050565b600080fd5b6000819050919050565b61028481610271565b811461028f57600080fd5b50565b6000813590506102a18161027b565b92915050565b6000602082840312156102bd576102bc61026c565b5b60006102cb84828501610292565b91505092915050565b6102dd81610271565b82525050565b60006020820190506102f860008301846102d4565b92915050565b7f4e487b7100000000000000000000000000000000000000000000000000000000600052601160045260246000fd5b600061033882610271565b915061034383610271565b925082820261035181610271565b91508282048414831517610368576103676102fe565b5b5092915050565b600061037a82610271565b91507fffffffffffffffffffffffffffffffffffffffffffffffffffffffffffffffff82036103ac576103ab6102fe565b5b600182019050919050565b60006103c282610271565b91506103cd83610271565b92508282019050808211156103e5576103e46102fe565b5b9291505056fea26469706673582212200f793501fb90124c9f60b4352efbace7474077a352eb9fd90952c24b2503567464736f6c63430008110033",
					"opcodes": "PUSH1 0x80 PUSH1 0x40 MSTORE CALLVALUE DUP1 ISZERO PUSH2 0x10 JUMPI PUSH1 0x0 DUP1 REVERT JUMPDEST POP PUSH2 0x421 DUP1 PUSH2 0x20 PUSH1 0x0 CODECOPY PUSH1 0x0 RETURN INVALID PUSH1 0x80 PUSH1 0x40 MSTORE CALLVALUE DUP1 ISZERO PUSH2 0x10 JUMPI PUSH1 0x0 DUP1 REVERT JUMPDEST POP PUSH1 0x4 CALLDATASIZE LT PUSH2 0x57 JUMPI PUSH1 0x0 CALLDATALOAD PUSH1 0xE0 SHR DUP1 PUSH4 0x3D41C222 EQ PUSH2 0x5C JUMPI DUP1 PUSH4 0x5F8932FF EQ PUSH2 0x8C JUMPI DUP1 PUSH4 0xAA509F41 EQ PUSH2 0xBC JUMPI DUP1 PUSH4 0xD231BFC9 EQ PUSH2 0xEC JUMPI DUP1 PUSH4 0xDF754454 EQ PUSH2 0xF6 JUMPI JUMPDEST PUSH1 0x0 DUP1 REVERT JUMPDEST PUSH2 0x76 PUSH1 0x4 DUP1 CALLDATASIZE SUB DUP2 ADD SWAP1 PUSH2 0x71 SWAP2 SWAP1 PUSH2 0x2A7 JUMP JUMPDEST PUSH2 0x126 JUMP JUMPDEST PUSH1 0x40 MLOAD PUSH2 0x83 SWAP2 SWAP1 PUSH2 0x2E3 JUMP JUMPDEST PUSH1 0x40 MLOAD DUP1 SWAP2 SUB SWAP1 RETURN JUMPDEST PUSH2 0xA6 PUSH1 0x4 DUP1 CALLDATASIZE SUB DUP2 ADD SWAP1 PUSH2 0xA1 SWAP2 SWAP1 PUSH2 0x2A7 JUMP JUMPDEST PUSH2 0x166 JUMP JUMPDEST PUSH1 0x40 MLOAD PUSH2 0xB3 SWAP2 SWAP1 PUSH2 0x2E3 JUMP JUMPDEST PUSH1 0x40 MLOAD DUP1 SWAP2 SUB SWAP1 RETURN JUMPDEST PUSH2 0xD6 PUSH1 0x4 DUP1 CALLDATASIZE SUB DUP2 ADD SWAP1 PUSH2 0xD1 SWAP2 SWAP1 PUSH2 0x2A7 JUMP JUMPDEST PUSH2 0x1A6 JUMP JUMPDEST PUSH1 0x40 MLOAD PUSH2 0xE3 SWAP2 SWAP1 PUSH2 0x2E3 JUMP JUMPDEST PUSH1 0x40 MLOAD DUP1 SWAP2 SUB SWAP1 RETURN JUMPDEST PUSH2 0xF4 PUSH2 0x1E2 JUMP JUMPDEST STOP JUMPDEST PUSH2 0x110 PUSH1 0x4 DUP1 CALLDATASIZE SUB DUP2 ADD SWAP1 PUSH2 0x10B SWAP2 SWAP1 PUSH2 0x2A7 JUMP JUMPDEST PUSH2 0x224 JUMP JUMPDEST PUSH1 0x40 MLOAD PUSH2 0x11D SWAP2 SWAP1 PUSH2 0x2E3 JUMP JUMPDEST PUSH1 0x40 MLOAD DUP1 SWAP2 SUB SWAP1 RETURN JUMPDEST PUSH1 0x0 DUP1 PUSH1 0x1 SWAP1 POP PUSH1 0x0 PUSH1 0x1 SWAP1 POP JUMPDEST DUP4 DUP2 GT PUSH2 0x15C JUMPI DUP1 DUP3 PUSH2 0x147 SWAP2 SWAP1 PUSH2 0x32D JUMP JUMPDEST SWAP2 POP DUP1 DUP1 PUSH2 0x154 SWAP1 PUSH2 0x36F JUMP JUMPDEST SWAP2 POP POP PUSH2 0x134 JUMP JUMPDEST POP DUP1 SWAP2 POP POP SWAP2 SWAP1 POP JUMP JUMPDEST PUSH1 0x0 DUP1 PUSH1 0x0 SWAP1 POP PUSH1 0x0 PUSH1 0x1 SWAP1 POP JUMPDEST DUP4 DUP2 GT PUSH2 0x19C JUMPI DUP1 DUP3 PUSH2 0x187 SWAP2 SWAP1 PUSH2 0x3B7 JUMP JUMPDEST SWAP2 POP DUP1 DUP1 PUSH2 0x194 SWAP1 PUSH2 0x36F JUMP JUMPDEST SWAP2 POP POP PUSH2 0x174 JUMP JUMPDEST DUP2 SWAP3 POP POP POP SWAP2 SWAP1 POP JUMP JUMPDEST PUSH1 0x0 DUP1 PUSH1 0x1 SWAP1 POP PUSH1 0x0 PUSH1 0x1 SWAP1 POP JUMPDEST DUP1 DUP3 PUSH2 0x1C0 SWAP2 SWAP1 PUSH2 0x32D JUMP JUMPDEST SWAP2 POP DUP1 DUP1 PUSH2 0x1CD SWAP1 PUSH2 0x36F JUMP JUMPDEST SWAP2 POP POP DUP4 DUP2 GT ISZERO PUSH2 0x1B4 JUMPI DUP2 SWAP3 POP POP POP SWAP2 SWAP1 POP JUMP JUMPDEST PUSH1 0x0 JUMPDEST PUSH1 0xA DUP2 LT ISZERO PUSH2 0x201 JUMPI DUP1 DUP1 PUSH2 0x1F9 SWAP1 PUSH2 0x36F JUMP JUMPDEST SWAP2 POP POP PUSH2 0x1E5 JUMP JUMPDEST POP PUSH1 0x0 JUMPDEST PUSH1 0xA DUP2 LT ISZERO PUSH2 0x221 JUMPI DUP1 DUP1 PUSH2 0x219 SWAP1 PUSH2 0x36F JUMP JUMPDEST SWAP2 POP POP PUSH2 0x205 JUMP JUMPDEST POP JUMP JUMPDEST PUSH1 0x0 DUP1 PUSH1 0x0 SWAP1 POP PUSH1 0x0 JUMPDEST DUP4 DUP2 LT ISZERO PUSH2 0x262 JUMPI DUP1 DUP2 PUSH2 0x242 SWAP2 SWAP1 PUSH2 0x32D JUMP JUMPDEST DUP3 PUSH2 0x24D SWAP2 SWAP1 PUSH2 0x3B7 JUMP JUMPDEST SWAP2 POP DUP1 DUP1 PUSH2 0x25A SWAP1 PUSH2 0x36F JUMP JUMPDEST SWAP2 POP POP PUSH2 0x22E JUMP JUMPDEST POP DUP1 SWAP2 POP POP SWAP2 SWAP1 POP JUMP JUMPDEST PUSH1 0x0 DUP1 REVERT JUMPDEST PUSH1 0x0 DUP2 SWAP1 POP SWAP2 SWAP1 POP JUMP JUMPDEST PUSH2 0x284 DUP2 PUSH2 0x271 JUMP JUMPDEST DUP2 EQ PUSH2 0x28F JUMPI PUSH1 0x0 DUP1 REVERT JUMPDEST POP JUMP JUMPDEST PUSH1 0x0 DUP2 CALLDATALOAD SWAP1 POP PUSH2 0x2A1 DUP2 PUSH2 0x27B JUMP JUMPDEST SWAP3 SWAP2 POP POP JUMP JUMPDEST PUSH1 0x0 PUSH1 0x20 DUP3 DUP5 SUB SLT ISZERO PUSH2 0x2BD JUMPI PUSH2 0x2BC PUSH2 0x26C JUMP JUMPDEST JUMPDEST PUSH1 0x0 PUSH2 0x2CB DUP5 DUP3 DUP6 ADD PUSH2 0x292 JUMP JUMPDEST SWAP2 POP POP SWAP3 SWAP2 POP POP JUMP JUMPDEST PUSH2 0x2DD DUP2 PUSH2 0x271 JUMP JUMPDEST DUP3 MSTORE POP POP JUMP JUMPDEST PUSH1 0x0 PUSH1 0x20 DUP3 ADD SWAP1 POP PUSH2 0x2F8 PUSH1 0x0 DUP4 ADD DUP5 PUSH2 0x2D4 JUMP JUMPDEST SWAP3 SWAP2 POP POP JUMP JUMPDEST PUSH32 0x4E487B7100000000000000000000000000000000000000000000000000000000 PUSH1 0x0 MSTORE PUSH1 0x11 PUSH1 0x4 MSTORE PUSH1 0x24 PUSH1 0x0 REVERT JUMPDEST PUSH1 0x0 PUSH2 0x338 DUP3 PUSH2 0x271 JUMP JUMPDEST SWAP2 POP PUSH2 0x343 DUP4 PUSH2 0x271 JUMP JUMPDEST SWAP3 POP DUP3 DUP3 MUL PUSH2 0x351 DUP2 PUSH2 0x271 JUMP JUMPDEST SWAP2 POP DUP3 DUP3 DIV DUP5 EQ DUP4 ISZERO OR PUSH2 0x368 JUMPI PUSH2 0x367 PUSH2 0x2FE JUMP JUMPDEST JUMPDEST POP SWAP3 SWAP2 POP POP JUMP JUMPDEST PUSH1 0x0 PUSH2 0x37A DUP3 PUSH2 0x271 JUMP JUMPDEST SWAP2 POP PUSH32 0xFFFFFFFFFFFFFFFFFFFFFFFFFFFFFFFFFFFFFFFFFFFFFFFFFFFFFFFFFFFFFFFF DUP3 SUB PUSH2 0x3AC JUMPI PUSH2 0x3AB PUSH2 0x2FE JUMP JUMPDEST JUMPDEST PUSH1 0x1 DUP3 ADD SWAP1 POP SWAP2 SWAP1 POP JUMP JUMPDEST PUSH1 0x0 PUSH2 0x3C2 DUP3 PUSH2 0x271 JUMP JUMPDEST SWAP2 POP PUSH2 0x3CD DUP4 PUSH2 0x271 JUMP JUMPDEST SWAP3 POP DUP3 DUP3 ADD SWAP1 POP DUP1 DUP3 GT ISZERO PUSH2 0x3E5 JUMPI PUSH2 0x3E4 PUSH2 0x2FE JUMP JUMPDEST JUMPDEST SWAP3 SWAP2 POP POP JUMP INVALID LOG2 PUSH5 0x6970667358 0x22 SLT KECCAK256 0xF PUSH26 0x3501FB90124C9F60B4352EFBACE7474077A352EB9FD90952C24B 0x25 SUB JUMP PUSH21 0x64736F6C6343000811003300000000000000000000 "
				},
				"gasEstimates": {
					"creation": {
						"codeDepositCost": "211400",
						"executionCost": "257",
						"totalCost": "211657"
					},
					"external": {
						"calculateFactorial(uint256)": "infinite",
						"calculateSum(uint256)": "infinite",
						"calculateSumOfSquares(uint256)": "infinite",
						"doWhileCalculateFactorial(uint256)": "infinite",
						"exampleLoops()": "infinite"
					}
				},
				"methodIdentifiers": {
					"calculateFactorial(uint256)": "3d41c222",
					"calculateSum(uint256)": "5f8932ff",
					"calculateSumOfSquares(uint256)": "df754454",
					"doWhileCalculateFactorial(uint256)": "aa509f41",
					"exampleLoops()": "d231bfc9"
				}
			},
			"storageLayout": {
				"storage": [],
				"types": null
			},
			"userdoc": {
				"kind": "user",
				"methods": {},
				"version": 1
			}
		}
	}
}