{
	"Week-4/structs.sol": {
		"structs": {
			"abi": [
				{
					"inputs": [
						{
							"internalType": "string",
							"name": "_name",
							"type": "string"
						},
						{
							"internalType": "uint256",
							"name": "_price",
							"type": "uint256"
						},
						{
							"internalType": "uint256",
							"name": "_quantity",
							"type": "uint256"
						}
					],
					"name": "UpdateProduct",
					"outputs": [],
					"stateMutability": "nonpayable",
					"type": "function"
				},
				{
					"inputs": [
						{
							"internalType": "address",
							"name": "_user",
							"type": "address"
						},
						{
							"internalType": "string",
							"name": "_name",
							"type": "string"
						},
						{
							"internalType": "uint256",
							"name": "_age",
							"type": "uint256"
						}
					],
					"name": "addUser",
					"outputs": [],
					"stateMutability": "nonpayable",
					"type": "function"
				},
				{
					"inputs": [],
					"name": "retrieveProduct",
					"outputs": [
						{
							"internalType": "string",
							"name": "",
							"type": "string"
						},
						{
							"internalType": "uint256",
							"name": "",
							"type": "uint256"
						},
						{
							"internalType": "uint256",
							"name": "",
							"type": "uint256"
						}
					],
					"stateMutability": "view",
					"type": "function"
				},
				{
					"inputs": [
						{
							"internalType": "address",
							"name": "",
							"type": "address"
						}
					],
					"name": "users",
					"outputs": [
						{
							"internalType": "uint256",
							"name": "age",
							"type": "uint256"
						},
						{
							"internalType": "string",
							"name": "name",
							"type": "string"
						}
					],
					"stateMutability": "view",
					"type": "function"
				}
			],
			"devdoc": {
				"kind": "dev",
				"methods": {},
				"version": 1
			},
			"evm": {
				"assembly": "    /* \"Week-4/structs.sol\":58:1456  contract structs{... */\n  mstore(0x40, 0x80)\n    /* \"Week-4/structs.sol\":310:336  Student(22, \"Bob\", \"Math\") */\n  mload(0x40)\n  dup1\n  0x60\n  add\n  0x40\n  mstore\n  dup1\n    /* \"Week-4/structs.sol\":318:320  22 */\n  0x16\n    /* \"Week-4/structs.sol\":310:336  Student(22, \"Bob\", \"Math\") */\n  dup2\n  mstore\n  0x20\n  add\n  mload(0x40)\n  dup1\n  0x40\n  add\n  0x40\n  mstore\n  dup1\n  0x03\n  dup2\n  mstore\n  0x20\n  add\n  0x426f620000000000000000000000000000000000000000000000000000000000\n  dup2\n  mstore\n  pop\n  dup2\n  mstore\n  0x20\n  add\n  mload(0x40)\n  dup1\n  0x40\n  add\n  0x40\n  mstore\n  dup1\n  0x04\n  dup2\n  mstore\n  0x20\n  add\n  0x4d61746800000000000000000000000000000000000000000000000000000000\n  dup2\n  mstore\n  pop\n  dup2\n  mstore\n  pop\n    /* \"Week-4/structs.sol\":297:336  Student me = Student(22, \"Bob\", \"Math\") */\n  0x00\n  dup1\n  dup3\n  add\n  mload\n  dup2\n  0x00\n  add\n  sstore\n  0x20\n  dup3\n  add\n  mload\n  dup2\n  0x01\n  add\n  swap1\n  dup2\n  tag_1\n  swap2\n  swap1\n  tag_2\n  jump\t// in\ntag_1:\n  pop\n  0x40\n  dup3\n  add\n  mload\n  dup2\n  0x02\n  add\n  swap1\n  dup2\n  tag_3\n  swap2\n  swap1\n  tag_2\n  jump\t// in\ntag_3:\n  pop\n  pop\n  pop\n    /* \"Week-4/structs.sol\":1049:1070  Product(\"Name\", 1, 1) */\n  mload(0x40)\n  dup1\n  0x60\n  add\n  0x40\n  mstore\n  dup1\n  mload(0x40)\n  dup1\n  0x40\n  add\n  0x40\n  mstore\n  dup1\n  0x04\n  dup2\n  mstore\n  0x20\n  add\n  0x4e616d6500000000000000000000000000000000000000000000000000000000\n  dup2\n  mstore\n  pop\n  dup2\n  mstore\n  0x20\n  add\n    /* \"Week-4/structs.sol\":1065:1066  1 */\n  0x01\n    /* \"Week-4/structs.sol\":1049:1070  Product(\"Name\", 1, 1) */\n  dup2\n  mstore\n  0x20\n  add\n    /* \"Week-4/structs.sol\":1068:1069  1 */\n  0x01\n    /* \"Week-4/structs.sol\":1049:1070  Product(\"Name\", 1, 1) */\n  dup2\n  mstore\n  pop\n    /* \"Week-4/structs.sol\":1031:1070  Product product = Product(\"Name\", 1, 1) */\n  0x04\n  0x00\n  dup3\n  add\n  mload\n  dup2\n  0x00\n  add\n  swap1\n  dup2\n  tag_4\n  swap2\n  swap1\n  tag_2\n  jump\t// in\ntag_4:\n  pop\n  0x20\n  dup3\n  add\n  mload\n  dup2\n  0x01\n  add\n  sstore\n  0x40\n  dup3\n  add\n  mload\n  dup2\n  0x02\n  add\n  sstore\n  pop\n  pop\n    /* \"Week-4/structs.sol\":58:1456  contract structs{... */\n  callvalue\n  dup1\n  iszero\n  tag_5\n  jumpi\n  0x00\n  dup1\n  revert\ntag_5:\n  pop\n  jump(tag_6)\n    /* \"#utility.yul\":7:106   */\ntag_7:\n    /* \"#utility.yul\":59:65   */\n  0x00\n    /* \"#utility.yul\":93:98   */\n  dup2\n    /* \"#utility.yul\":87:99   */\n  mload\n    /* \"#utility.yul\":77:99   */\n  swap1\n  pop\n    /* \"#utility.yul\":7:106   */\n  swap2\n  swap1\n  pop\n  jump\t// out\n    /* \"#utility.yul\":112:292   */\ntag_8:\n    /* \"#utility.yul\":160:237   */\n  0x4e487b7100000000000000000000000000000000000000000000000000000000\n    /* \"#utility.yul\":157:158   */\n  0x00\n    /* \"#utility.yul\":150:238   */\n  mstore\n    /* \"#utility.yul\":257:261   */\n  0x41\n    /* \"#utility.yul\":254:255   */\n  0x04\n    /* \"#utility.yul\":247:262   */\n  mstore\n    /* \"#utility.yul\":281:285   */\n  0x24\n    /* \"#utility.yul\":278:279   */\n  0x00\n    /* \"#utility.yul\":271:286   */\n  revert\n    /* \"#utility.yul\":298:478   */\ntag_9:\n    /* \"#utility.yul\":346:423   */\n  0x4e487b7100000000000000000000000000000000000000000000000000000000\n    /* \"#utility.yul\":343:344   */\n  0x00\n    /* \"#utility.yul\":336:424   */\n  mstore\n    /* \"#utility.yul\":443:447   */\n  0x22\n    /* \"#utility.yul\":440:441   */\n  0x04\n    /* \"#utility.yul\":433:448   */\n  mstore\n    /* \"#utility.yul\":467:471   */\n  0x24\n    /* \"#utility.yul\":464:465   */\n  0x00\n    /* \"#utility.yul\":457:472   */\n  revert\n    /* \"#utility.yul\":484:804   */\ntag_10:\n    /* \"#utility.yul\":528:534   */\n  0x00\n    /* \"#utility.yul\":565:566   */\n  0x02\n    /* \"#utility.yul\":559:563   */\n  dup3\n    /* \"#utility.yul\":555:567   */\n  div\n    /* \"#utility.yul\":545:567   */\n  swap1\n  pop\n    /* \"#utility.yul\":612:613   */\n  0x01\n    /* \"#utility.yul\":606:610   */\n  dup3\n    /* \"#utility.yul\":602:614   */\n  and\n    /* \"#utility.yul\":633:651   */\n  dup1\n    /* \"#utility.yul\":623:704   */\n  tag_32\n  jumpi\n    /* \"#utility.yul\":689:693   */\n  0x7f\n    /* \"#utility.yul\":681:687   */\n  dup3\n    /* \"#utility.yul\":677:694   */\n  and\n    /* \"#utility.yul\":667:694   */\n  swap2\n  pop\n    /* \"#utility.yul\":623:704   */\ntag_32:\n    /* \"#utility.yul\":751:753   */\n  0x20\n    /* \"#utility.yul\":743:749   */\n  dup3\n    /* \"#utility.yul\":740:754   */\n  lt\n    /* \"#utility.yul\":720:738   */\n  dup2\n    /* \"#utility.yul\":717:755   */\n  sub\n    /* \"#utility.yul\":714:798   */\n  tag_33\n  jumpi\n    /* \"#utility.yul\":770:788   */\n  tag_34\n  tag_9\n  jump\t// in\ntag_34:\n    /* \"#utility.yul\":714:798   */\ntag_33:\n    /* \"#utility.yul\":535:804   */\n  pop\n    /* \"#utility.yul\":484:804   */\n  swap2\n  swap1\n  pop\n  jump\t// out\n    /* \"#utility.yul\":810:951   */\ntag_11:\n    /* \"#utility.yul\":859:863   */\n  0x00\n    /* \"#utility.yul\":882:885   */\n  dup2\n    /* \"#utility.yul\":874:885   */\n  swap1\n  pop\n    /* \"#utility.yul\":905:908   */\n  dup2\n    /* \"#utility.yul\":902:903   */\n  0x00\n    /* \"#utility.yul\":895:909   */\n  mstore\n    /* \"#utility.yul\":939:943   */\n  0x20\n    /* \"#utility.yul\":936:937   */\n  0x00\n    /* \"#utility.yul\":926:944   */\n  keccak256\n    /* \"#utility.yul\":918:944   */\n  swap1\n  pop\n    /* \"#utility.yul\":810:951   */\n  swap2\n  swap1\n  pop\n  jump\t// out\n    /* \"#utility.yul\":957:1050   */\ntag_12:\n    /* \"#utility.yul\":994:1000   */\n  0x00\n    /* \"#utility.yul\":1041:1043   */\n  0x20\n    /* \"#utility.yul\":1036:1038   */\n  0x1f\n    /* \"#utility.yul\":1029:1034   */\n  dup4\n    /* \"#utility.yul\":1025:1039   */\n  add\n    /* \"#utility.yul\":1021:1044   */\n  div\n    /* \"#utility.yul\":1011:1044   */\n  swap1\n  pop\n    /* \"#utility.yul\":957:1050   */\n  swap2\n  swap1\n  pop\n  jump\t// out\n    /* \"#utility.yul\":1056:1163   */\ntag_13:\n    /* \"#utility.yul\":1100:1108   */\n  0x00\n    /* \"#utility.yul\":1150:1155   */\n  dup3\n    /* \"#utility.yul\":1144:1148   */\n  dup3\n    /* \"#utility.yul\":1140:1156   */\n  shl\n    /* \"#utility.yul\":1119:1156   */\n  swap1\n  pop\n    /* \"#utility.yul\":1056:1163   */\n  swap3\n  swap2\n  pop\n  pop\n  jump\t// out\n    /* \"#utility.yul\":1169:1562   */\ntag_14:\n    /* \"#utility.yul\":1238:1244   */\n  0x00\n    /* \"#utility.yul\":1288:1289   */\n  0x08\n    /* \"#utility.yul\":1276:1286   */\n  dup4\n    /* \"#utility.yul\":1272:1290   */\n  mul\n    /* \"#utility.yul\":1311:1408   */\n  tag_39\n    /* \"#utility.yul\":1341:1407   */\n  0xffffffffffffffffffffffffffffffffffffffffffffffffffffffffffffffff\n    /* \"#utility.yul\":1330:1339   */\n  dup3\n    /* \"#utility.yul\":1311:1408   */\n  tag_13\n  jump\t// in\ntag_39:\n    /* \"#utility.yul\":1429:1468   */\n  tag_40\n    /* \"#utility.yul\":1459:1467   */\n  dup7\n    /* \"#utility.yul\":1448:1457   */\n  dup4\n    /* \"#utility.yul\":1429:1468   */\n  tag_13\n  jump\t// in\ntag_40:\n    /* \"#utility.yul\":1417:1468   */\n  swap6\n  pop\n    /* \"#utility.yul\":1501:1505   */\n  dup1\n    /* \"#utility.yul\":1497:1506   */\n  not\n    /* \"#utility.yul\":1490:1495   */\n  dup5\n    /* \"#utility.yul\":1486:1507   */\n  and\n    /* \"#utility.yul\":1477:1507   */\n  swap4\n  pop\n    /* \"#utility.yul\":1550:1554   */\n  dup1\n    /* \"#utility.yul\":1540:1548   */\n  dup7\n    /* \"#utility.yul\":1536:1555   */\n  and\n    /* \"#utility.yul\":1529:1534   */\n  dup5\n    /* \"#utility.yul\":1526:1556   */\n  or\n    /* \"#utility.yul\":1516:1556   */\n  swap3\n  pop\n    /* \"#utility.yul\":1245:1562   */\n  pop\n  pop\n    /* \"#utility.yul\":1169:1562   */\n  swap4\n  swap3\n  pop\n  pop\n  pop\n  jump\t// out\n    /* \"#utility.yul\":1568:1645   */\ntag_15:\n    /* \"#utility.yul\":1605:1612   */\n  0x00\n    /* \"#utility.yul\":1634:1639   */\n  dup2\n    /* \"#utility.yul\":1623:1639   */\n  swap1\n  pop\n    /* \"#utility.yul\":1568:1645   */\n  swap2\n  swap1\n  pop\n  jump\t// out\n    /* \"#utility.yul\":1651:1711   */\ntag_16:\n    /* \"#utility.yul\":1679:1682   */\n  0x00\n    /* \"#utility.yul\":1700:1705   */\n  dup2\n    /* \"#utility.yul\":1693:1705   */\n  swap1\n  pop\n    /* \"#utility.yul\":1651:1711   */\n  swap2\n  swap1\n  pop\n  jump\t// out\n    /* \"#utility.yul\":1717:1859   */\ntag_17:\n    /* \"#utility.yul\":1767:1776   */\n  0x00\n    /* \"#utility.yul\":1800:1853   */\n  tag_44\n    /* \"#utility.yul\":1818:1852   */\n  tag_45\n    /* \"#utility.yul\":1827:1851   */\n  tag_46\n    /* \"#utility.yul\":1845:1850   */\n  dup5\n    /* \"#utility.yul\":1827:1851   */\n  tag_15\n  jump\t// in\ntag_46:\n    /* \"#utility.yul\":1818:1852   */\n  tag_16\n  jump\t// in\ntag_45:\n    /* \"#utility.yul\":1800:1853   */\n  tag_15\n  jump\t// in\ntag_44:\n    /* \"#utility.yul\":1787:1853   */\n  swap1\n  pop\n    /* \"#utility.yul\":1717:1859   */\n  swap2\n  swap1\n  pop\n  jump\t// out\n    /* \"#utility.yul\":1865:1940   */\ntag_18:\n    /* \"#utility.yul\":1908:1911   */\n  0x00\n    /* \"#utility.yul\":1929:1934   */\n  dup2\n    /* \"#utility.yul\":1922:1934   */\n  swap1\n  pop\n    /* \"#utility.yul\":1865:1940   */\n  swap2\n  swap1\n  pop\n  jump\t// out\n    /* \"#utility.yul\":1946:2215   */\ntag_19:\n    /* \"#utility.yul\":2056:2095   */\n  tag_49\n    /* \"#utility.yul\":2087:2094   */\n  dup4\n    /* \"#utility.yul\":2056:2095   */\n  tag_17\n  jump\t// in\ntag_49:\n    /* \"#utility.yul\":2117:2208   */\n  tag_50\n    /* \"#utility.yul\":2166:2207   */\n  tag_51\n    /* \"#utility.yul\":2190:2206   */\n  dup3\n    /* \"#utility.yul\":2166:2207   */\n  tag_18\n  jump\t// in\ntag_51:\n    /* \"#utility.yul\":2158:2164   */\n  dup5\n    /* \"#utility.yul\":2151:2155   */\n  dup5\n    /* \"#utility.yul\":2145:2156   */\n  sload\n    /* \"#utility.yul\":2117:2208   */\n  tag_14\n  jump\t// in\ntag_50:\n    /* \"#utility.yul\":2111:2115   */\n  dup3\n    /* \"#utility.yul\":2104:2209   */\n  sstore\n    /* \"#utility.yul\":2022:2215   */\n  pop\n    /* \"#utility.yul\":1946:2215   */\n  pop\n  pop\n  pop\n  jump\t// out\n    /* \"#utility.yul\":2221:2294   */\ntag_20:\n    /* \"#utility.yul\":2266:2269   */\n  0x00\n    /* \"#utility.yul\":2221:2294   */\n  swap1\n  jump\t// out\n    /* \"#utility.yul\":2300:2489   */\ntag_21:\n    /* \"#utility.yul\":2377:2409   */\n  tag_54\n  tag_20\n  jump\t// in\ntag_54:\n    /* \"#utility.yul\":2418:2483   */\n  tag_55\n    /* \"#utility.yul\":2476:2482   */\n  dup2\n    /* \"#utility.yul\":2468:2474   */\n  dup5\n    /* \"#utility.yul\":2462:2466   */\n  dup5\n    /* \"#utility.yul\":2418:2483   */\n  tag_19\n  jump\t// in\ntag_55:\n    /* \"#utility.yul\":2353:2489   */\n  pop\n    /* \"#utility.yul\":2300:2489   */\n  pop\n  pop\n  jump\t// out\n    /* \"#utility.yul\":2495:2681   */\ntag_22:\n    /* \"#utility.yul\":2555:2675   */\ntag_57:\n    /* \"#utility.yul\":2572:2575   */\n  dup2\n    /* \"#utility.yul\":2565:2570   */\n  dup2\n    /* \"#utility.yul\":2562:2576   */\n  lt\n    /* \"#utility.yul\":2555:2675   */\n  iszero\n  tag_59\n  jumpi\n    /* \"#utility.yul\":2626:2665   */\n  tag_60\n    /* \"#utility.yul\":2663:2664   */\n  0x00\n    /* \"#utility.yul\":2656:2661   */\n  dup3\n    /* \"#utility.yul\":2626:2665   */\n  tag_21\n  jump\t// in\ntag_60:\n    /* \"#utility.yul\":2599:2600   */\n  0x01\n    /* \"#utility.yul\":2592:2597   */\n  dup2\n    /* \"#utility.yul\":2588:2601   */\n  add\n    /* \"#utility.yul\":2579:2601   */\n  swap1\n  pop\n    /* \"#utility.yul\":2555:2675   */\n  jump(tag_57)\ntag_59:\n    /* \"#utility.yul\":2495:2681   */\n  pop\n  pop\n  jump\t// out\n    /* \"#utility.yul\":2687:3230   */\ntag_23:\n    /* \"#utility.yul\":2788:2790   */\n  0x1f\n    /* \"#utility.yul\":2783:2786   */\n  dup3\n    /* \"#utility.yul\":2780:2791   */\n  gt\n    /* \"#utility.yul\":2777:3223   */\n  iszero\n  tag_62\n  jumpi\n    /* \"#utility.yul\":2822:2860   */\n  tag_63\n    /* \"#utility.yul\":2854:2859   */\n  dup2\n    /* \"#utility.yul\":2822:2860   */\n  tag_11\n  jump\t// in\ntag_63:\n    /* \"#utility.yul\":2906:2935   */\n  tag_64\n    /* \"#utility.yul\":2924:2934   */\n  dup5\n    /* \"#utility.yul\":2906:2935   */\n  tag_12\n  jump\t// in\ntag_64:\n    /* \"#utility.yul\":2896:2904   */\n  dup2\n    /* \"#utility.yul\":2892:2936   */\n  add\n    /* \"#utility.yul\":3089:3091   */\n  0x20\n    /* \"#utility.yul\":3077:3087   */\n  dup6\n    /* \"#utility.yul\":3074:3092   */\n  lt\n    /* \"#utility.yul\":3071:3120   */\n  iszero\n  tag_65\n  jumpi\n    /* \"#utility.yul\":3110:3118   */\n  dup2\n    /* \"#utility.yul\":3095:3118   */\n  swap1\n  pop\n    /* \"#utility.yul\":3071:3120   */\ntag_65:\n    /* \"#utility.yul\":3133:3213   */\n  tag_66\n    /* \"#utility.yul\":3189:3211   */\n  tag_67\n    /* \"#utility.yul\":3207:3210   */\n  dup6\n    /* \"#utility.yul\":3189:3211   */\n  tag_12\n  jump\t// in\ntag_67:\n    /* \"#utility.yul\":3179:3187   */\n  dup4\n    /* \"#utility.yul\":3175:3212   */\n  add\n    /* \"#utility.yul\":3162:3173   */\n  dup3\n    /* \"#utility.yul\":3133:3213   */\n  tag_22\n  jump\t// in\ntag_66:\n    /* \"#utility.yul\":2792:3223   */\n  pop\n  pop\n    /* \"#utility.yul\":2777:3223   */\ntag_62:\n    /* \"#utility.yul\":2687:3230   */\n  pop\n  pop\n  pop\n  jump\t// out\n    /* \"#utility.yul\":3236:3353   */\ntag_24:\n    /* \"#utility.yul\":3290:3298   */\n  0x00\n    /* \"#utility.yul\":3340:3345   */\n  dup3\n    /* \"#utility.yul\":3334:3338   */\n  dup3\n    /* \"#utility.yul\":3330:3346   */\n  shr\n    /* \"#utility.yul\":3309:3346   */\n  swap1\n  pop\n    /* \"#utility.yul\":3236:3353   */\n  swap3\n  swap2\n  pop\n  pop\n  jump\t// out\n    /* \"#utility.yul\":3359:3528   */\ntag_25:\n    /* \"#utility.yul\":3403:3409   */\n  0x00\n    /* \"#utility.yul\":3436:3487   */\n  tag_70\n    /* \"#utility.yul\":3484:3485   */\n  0x00\n    /* \"#utility.yul\":3480:3486   */\n  not\n    /* \"#utility.yul\":3472:3477   */\n  dup5\n    /* \"#utility.yul\":3469:3470   */\n  0x08\n    /* \"#utility.yul\":3465:3478   */\n  mul\n    /* \"#utility.yul\":3436:3487   */\n  tag_24\n  jump\t// in\ntag_70:\n    /* \"#utility.yul\":3432:3488   */\n  not\n    /* \"#utility.yul\":3517:3521   */\n  dup1\n    /* \"#utility.yul\":3511:3515   */\n  dup4\n    /* \"#utility.yul\":3507:3522   */\n  and\n    /* \"#utility.yul\":3497:3522   */\n  swap2\n  pop\n    /* \"#utility.yul\":3410:3528   */\n  pop\n    /* \"#utility.yul\":3359:3528   */\n  swap3\n  swap2\n  pop\n  pop\n  jump\t// out\n    /* \"#utility.yul\":3533:3828   */\ntag_26:\n    /* \"#utility.yul\":3609:3613   */\n  0x00\n    /* \"#utility.yul\":3755:3784   */\n  tag_72\n    /* \"#utility.yul\":3780:3783   */\n  dup4\n    /* \"#utility.yul\":3774:3778   */\n  dup4\n    /* \"#utility.yul\":3755:3784   */\n  tag_25\n  jump\t// in\ntag_72:\n    /* \"#utility.yul\":3747:3784   */\n  swap2\n  pop\n    /* \"#utility.yul\":3817:3820   */\n  dup3\n    /* \"#utility.yul\":3814:3815   */\n  0x02\n    /* \"#utility.yul\":3810:3821   */\n  mul\n    /* \"#utility.yul\":3804:3808   */\n  dup3\n    /* \"#utility.yul\":3801:3822   */\n  or\n    /* \"#utility.yul\":3793:3822   */\n  swap1\n  pop\n    /* \"#utility.yul\":3533:3828   */\n  swap3\n  swap2\n  pop\n  pop\n  jump\t// out\n    /* \"#utility.yul\":3833:5228   */\ntag_2:\n    /* \"#utility.yul\":3950:3987   */\n  tag_74\n    /* \"#utility.yul\":3983:3986   */\n  dup3\n    /* \"#utility.yul\":3950:3987   */\n  tag_7\n  jump\t// in\ntag_74:\n    /* \"#utility.yul\":4052:4070   */\n  0xffffffffffffffff\n    /* \"#utility.yul\":4044:4050   */\n  dup2\n    /* \"#utility.yul\":4041:4071   */\n  gt\n    /* \"#utility.yul\":4038:4094   */\n  iszero\n  tag_75\n  jumpi\n    /* \"#utility.yul\":4074:4092   */\n  tag_76\n  tag_8\n  jump\t// in\ntag_76:\n    /* \"#utility.yul\":4038:4094   */\ntag_75:\n    /* \"#utility.yul\":4118:4156   */\n  tag_77\n    /* \"#utility.yul\":4150:4154   */\n  dup3\n    /* \"#utility.yul\":4144:4155   */\n  sload\n    /* \"#utility.yul\":4118:4156   */\n  tag_10\n  jump\t// in\ntag_77:\n    /* \"#utility.yul\":4203:4270   */\n  tag_78\n    /* \"#utility.yul\":4263:4269   */\n  dup3\n    /* \"#utility.yul\":4255:4261   */\n  dup3\n    /* \"#utility.yul\":4249:4253   */\n  dup6\n    /* \"#utility.yul\":4203:4270   */\n  tag_23\n  jump\t// in\ntag_78:\n    /* \"#utility.yul\":4297:4298   */\n  0x00\n    /* \"#utility.yul\":4321:4325   */\n  0x20\n    /* \"#utility.yul\":4308:4325   */\n  swap1\n  pop\n    /* \"#utility.yul\":4353:4355   */\n  0x1f\n    /* \"#utility.yul\":4345:4351   */\n  dup4\n    /* \"#utility.yul\":4342:4356   */\n  gt\n    /* \"#utility.yul\":4370:4371   */\n  0x01\n    /* \"#utility.yul\":4365:4983   */\n  dup2\n  eq\n  tag_80\n  jumpi\n    /* \"#utility.yul\":5027:5028   */\n  0x00\n    /* \"#utility.yul\":5044:5050   */\n  dup5\n    /* \"#utility.yul\":5041:5118   */\n  iszero\n  tag_81\n  jumpi\n    /* \"#utility.yul\":5093:5102   */\n  dup3\n    /* \"#utility.yul\":5088:5091   */\n  dup8\n    /* \"#utility.yul\":5084:5103   */\n  add\n    /* \"#utility.yul\":5078:5104   */\n  mload\n    /* \"#utility.yul\":5069:5104   */\n  swap1\n  pop\n    /* \"#utility.yul\":5041:5118   */\ntag_81:\n    /* \"#utility.yul\":5144:5211   */\n  tag_82\n    /* \"#utility.yul\":5204:5210   */\n  dup6\n    /* \"#utility.yul\":5197:5202   */\n  dup3\n    /* \"#utility.yul\":5144:5211   */\n  tag_26\n  jump\t// in\ntag_82:\n    /* \"#utility.yul\":5138:5142   */\n  dup7\n    /* \"#utility.yul\":5131:5212   */\n  sstore\n    /* \"#utility.yul\":5000:5222   */\n  pop\n    /* \"#utility.yul\":4335:5222   */\n  jump(tag_79)\n    /* \"#utility.yul\":4365:4983   */\ntag_80:\n    /* \"#utility.yul\":4417:4421   */\n  0x1f\n    /* \"#utility.yul\":4413:4422   */\n  not\n    /* \"#utility.yul\":4405:4411   */\n  dup5\n    /* \"#utility.yul\":4401:4423   */\n  and\n    /* \"#utility.yul\":4451:4488   */\n  tag_83\n    /* \"#utility.yul\":4483:4487   */\n  dup7\n    /* \"#utility.yul\":4451:4488   */\n  tag_11\n  jump\t// in\ntag_83:\n    /* \"#utility.yul\":4510:4511   */\n  0x00\n    /* \"#utility.yul\":4524:4732   */\ntag_84:\n    /* \"#utility.yul\":4538:4545   */\n  dup3\n    /* \"#utility.yul\":4535:4536   */\n  dup2\n    /* \"#utility.yul\":4532:4546   */\n  lt\n    /* \"#utility.yul\":4524:4732   */\n  iszero\n  tag_86\n  jumpi\n    /* \"#utility.yul\":4617:4626   */\n  dup5\n    /* \"#utility.yul\":4612:4615   */\n  dup10\n    /* \"#utility.yul\":4608:4627   */\n  add\n    /* \"#utility.yul\":4602:4628   */\n  mload\n    /* \"#utility.yul\":4594:4600   */\n  dup3\n    /* \"#utility.yul\":4587:4629   */\n  sstore\n    /* \"#utility.yul\":4668:4669   */\n  0x01\n    /* \"#utility.yul\":4660:4666   */\n  dup3\n    /* \"#utility.yul\":4656:4670   */\n  add\n    /* \"#utility.yul\":4646:4670   */\n  swap2\n  pop\n    /* \"#utility.yul\":4715:4717   */\n  0x20\n    /* \"#utility.yul\":4704:4713   */\n  dup6\n    /* \"#utility.yul\":4700:4718   */\n  add\n    /* \"#utility.yul\":4687:4718   */\n  swap5\n  pop\n    /* \"#utility.yul\":4561:4565   */\n  0x20\n    /* \"#utility.yul\":4558:4559   */\n  dup2\n    /* \"#utility.yul\":4554:4566   */\n  add\n    /* \"#utility.yul\":4549:4566   */\n  swap1\n  pop\n    /* \"#utility.yul\":4524:4732   */\n  jump(tag_84)\ntag_86:\n    /* \"#utility.yul\":4760:4766   */\n  dup7\n    /* \"#utility.yul\":4751:4758   */\n  dup4\n    /* \"#utility.yul\":4748:4767   */\n  lt\n    /* \"#utility.yul\":4745:4924   */\n  iszero\n  tag_87\n  jumpi\n    /* \"#utility.yul\":4818:4827   */\n  dup5\n    /* \"#utility.yul\":4813:4816   */\n  dup10\n    /* \"#utility.yul\":4809:4828   */\n  add\n    /* \"#utility.yul\":4803:4829   */\n  mload\n    /* \"#utility.yul\":4861:4909   */\n  tag_88\n    /* \"#utility.yul\":4903:4907   */\n  0x1f\n    /* \"#utility.yul\":4895:4901   */\n  dup10\n    /* \"#utility.yul\":4891:4908   */\n  and\n    /* \"#utility.yul\":4880:4889   */\n  dup3\n    /* \"#utility.yul\":4861:4909   */\n  tag_25\n  jump\t// in\ntag_88:\n    /* \"#utility.yul\":4853:4859   */\n  dup4\n    /* \"#utility.yul\":4846:4910   */\n  sstore\n    /* \"#utility.yul\":4768:4924   */\n  pop\n    /* \"#utility.yul\":4745:4924   */\ntag_87:\n    /* \"#utility.yul\":4970:4971   */\n  0x01\n    /* \"#utility.yul\":4966:4967   */\n  0x02\n    /* \"#utility.yul\":4958:4964   */\n  dup9\n    /* \"#utility.yul\":4954:4968   */\n  mul\n    /* \"#utility.yul\":4950:4972   */\n  add\n    /* \"#utility.yul\":4944:4948   */\n  dup9\n    /* \"#utility.yul\":4937:4973   */\n  sstore\n    /* \"#utility.yul\":4372:4983   */\n  pop\n  pop\n  pop\n    /* \"#utility.yul\":4335:5222   */\ntag_79:\n  pop\n    /* \"#utility.yul\":3925:5228   */\n  pop\n  pop\n  pop\n    /* \"#utility.yul\":3833:5228   */\n  pop\n  pop\n  jump\t// out\n    /* \"Week-4/structs.sol\":58:1456  contract structs{... */\ntag_6:\n  dataSize(sub_0)\n  dup1\n  dataOffset(sub_0)\n  0x00\n  codecopy\n  0x00\n  return\nstop\n\nsub_0: assembly {\n        /* \"Week-4/structs.sol\":58:1456  contract structs{... */\n      mstore(0x40, 0x80)\n      callvalue\n      dup1\n      iszero\n      tag_1\n      jumpi\n      0x00\n      dup1\n      revert\n    tag_1:\n      pop\n      jumpi(tag_2, lt(calldatasize, 0x04))\n      shr(0xe0, calldataload(0x00))\n      dup1\n      0x46daaeed\n      eq\n      tag_3\n      jumpi\n      dup1\n      0x66bfdb8f\n      eq\n      tag_4\n      jumpi\n      dup1\n      0xa87430ba\n      eq\n      tag_5\n      jumpi\n      dup1\n      0xf0384fb6\n      eq\n      tag_6\n      jumpi\n    tag_2:\n      0x00\n      dup1\n      revert\n        /* \"Week-4/structs.sol\":1159:1301  function UpdateProduct(string memory _name, uint _price, uint _quantity) external {... */\n    tag_3:\n      tag_7\n      0x04\n      dup1\n      calldatasize\n      sub\n      dup2\n      add\n      swap1\n      tag_8\n      swap2\n      swap1\n      tag_9\n      jump\t// in\n    tag_8:\n      tag_10\n      jump\t// in\n    tag_7:\n      stop\n        /* \"Week-4/structs.sol\":1307:1454  function retrieveProduct() external view returns (string memory, uint, uint){... */\n    tag_4:\n      tag_11\n      tag_12\n      jump\t// in\n    tag_11:\n      mload(0x40)\n      tag_13\n      swap4\n      swap3\n      swap2\n      swap1\n      tag_14\n      jump\t// in\n    tag_13:\n      mload(0x40)\n      dup1\n      swap2\n      sub\n      swap1\n      return\n        /* \"Week-4/structs.sol\":485:524  mapping(address => Person) public users */\n    tag_5:\n      tag_15\n      0x04\n      dup1\n      calldatasize\n      sub\n      dup2\n      add\n      swap1\n      tag_16\n      swap2\n      swap1\n      tag_17\n      jump\t// in\n    tag_16:\n      tag_18\n      jump\t// in\n    tag_15:\n      mload(0x40)\n      tag_19\n      swap3\n      swap2\n      swap1\n      tag_20\n      jump\t// in\n    tag_19:\n      mload(0x40)\n      dup1\n      swap2\n      sub\n      swap1\n      return\n        /* \"Week-4/structs.sol\":531:660  function addUser(address _user, string memory _name, uint256 _age) external { ... */\n    tag_6:\n      tag_21\n      0x04\n      dup1\n      calldatasize\n      sub\n      dup2\n      add\n      swap1\n      tag_22\n      swap2\n      swap1\n      tag_23\n      jump\t// in\n    tag_22:\n      tag_24\n      jump\t// in\n    tag_21:\n      stop\n        /* \"Week-4/structs.sol\":1159:1301  function UpdateProduct(string memory _name, uint _price, uint _quantity) external {... */\n    tag_10:\n        /* \"Week-4/structs.sol\":1261:1294  Product(_name, _price, _quantity) */\n      mload(0x40)\n      dup1\n      0x60\n      add\n      0x40\n      mstore\n      dup1\n        /* \"Week-4/structs.sol\":1269:1274  _name */\n      dup5\n        /* \"Week-4/structs.sol\":1261:1294  Product(_name, _price, _quantity) */\n      dup2\n      mstore\n      0x20\n      add\n        /* \"Week-4/structs.sol\":1276:1282  _price */\n      dup4\n        /* \"Week-4/structs.sol\":1261:1294  Product(_name, _price, _quantity) */\n      dup2\n      mstore\n      0x20\n      add\n        /* \"Week-4/structs.sol\":1284:1293  _quantity */\n      dup3\n        /* \"Week-4/structs.sol\":1261:1294  Product(_name, _price, _quantity) */\n      dup2\n      mstore\n      pop\n        /* \"Week-4/structs.sol\":1251:1258  product */\n      0x04\n        /* \"Week-4/structs.sol\":1251:1294  product = Product(_name, _price, _quantity) */\n      0x00\n      dup3\n      add\n      mload\n      dup2\n      0x00\n      add\n      swap1\n      dup2\n      tag_26\n      swap2\n      swap1\n      tag_27\n      jump\t// in\n    tag_26:\n      pop\n      0x20\n      dup3\n      add\n      mload\n      dup2\n      0x01\n      add\n      sstore\n      0x40\n      dup3\n      add\n      mload\n      dup2\n      0x02\n      add\n      sstore\n      swap1\n      pop\n      pop\n        /* \"Week-4/structs.sol\":1159:1301  function UpdateProduct(string memory _name, uint _price, uint _quantity) external {... */\n      pop\n      pop\n      pop\n      jump\t// out\n        /* \"Week-4/structs.sol\":1307:1454  function retrieveProduct() external view returns (string memory, uint, uint){... */\n    tag_12:\n        /* \"Week-4/structs.sol\":1357:1370  string memory */\n      0x60\n        /* \"Week-4/structs.sol\":1372:1376  uint */\n      0x00\n        /* \"Week-4/structs.sol\":1378:1382  uint */\n      dup1\n        /* \"Week-4/structs.sol\":1401:1408  product */\n      0x04\n        /* \"Week-4/structs.sol\":1401:1413  product.name */\n      0x00\n      add\n        /* \"Week-4/structs.sol\":1415:1422  product */\n      0x04\n        /* \"Week-4/structs.sol\":1415:1428  product.price */\n      0x01\n      add\n      sload\n        /* \"Week-4/structs.sol\":1430:1437  product */\n      0x04\n        /* \"Week-4/structs.sol\":1430:1446  product.quantity */\n      0x02\n      add\n      sload\n        /* \"Week-4/structs.sol\":1393:1447  return (product.name, product.price, product.quantity) */\n      dup3\n      dup1\n      sload\n      tag_29\n      swap1\n      tag_30\n      jump\t// in\n    tag_29:\n      dup1\n      0x1f\n      add\n      0x20\n      dup1\n      swap2\n      div\n      mul\n      0x20\n      add\n      mload(0x40)\n      swap1\n      dup2\n      add\n      0x40\n      mstore\n      dup1\n      swap3\n      swap2\n      swap1\n      dup2\n      dup2\n      mstore\n      0x20\n      add\n      dup3\n      dup1\n      sload\n      tag_31\n      swap1\n      tag_30\n      jump\t// in\n    tag_31:\n      dup1\n      iszero\n      tag_32\n      jumpi\n      dup1\n      0x1f\n      lt\n      tag_33\n      jumpi\n      0x0100\n      dup1\n      dup4\n      sload\n      div\n      mul\n      dup4\n      mstore\n      swap2\n      0x20\n      add\n      swap2\n      jump(tag_32)\n    tag_33:\n      dup3\n      add\n      swap2\n      swap1\n      0x00\n      mstore\n      keccak256(0x00, 0x20)\n      swap1\n    tag_34:\n      dup2\n      sload\n      dup2\n      mstore\n      swap1\n      0x01\n      add\n      swap1\n      0x20\n      add\n      dup1\n      dup4\n      gt\n      tag_34\n      jumpi\n      dup3\n      swap1\n      sub\n      0x1f\n      and\n      dup3\n      add\n      swap2\n    tag_32:\n      pop\n      pop\n      pop\n      pop\n      pop\n      swap3\n      pop\n      swap3\n      pop\n      swap3\n      pop\n      swap3\n      pop\n        /* \"Week-4/structs.sol\":1307:1454  function retrieveProduct() external view returns (string memory, uint, uint){... */\n      swap1\n      swap2\n      swap3\n      jump\t// out\n        /* \"Week-4/structs.sol\":485:524  mapping(address => Person) public users */\n    tag_18:\n      mstore(0x20, 0x03)\n      dup1\n      0x00\n      mstore\n      keccak256(0x00, 0x40)\n      0x00\n      swap2\n      pop\n      swap1\n      pop\n      dup1\n      0x00\n      add\n      sload\n      swap1\n      dup1\n      0x01\n      add\n      dup1\n      sload\n      tag_35\n      swap1\n      tag_30\n      jump\t// in\n    tag_35:\n      dup1\n      0x1f\n      add\n      0x20\n      dup1\n      swap2\n      div\n      mul\n      0x20\n      add\n      mload(0x40)\n      swap1\n      dup2\n      add\n      0x40\n      mstore\n      dup1\n      swap3\n      swap2\n      swap1\n      dup2\n      dup2\n      mstore\n      0x20\n      add\n      dup3\n      dup1\n      sload\n      tag_36\n      swap1\n      tag_30\n      jump\t// in\n    tag_36:\n      dup1\n      iszero\n      tag_37\n      jumpi\n      dup1\n      0x1f\n      lt\n      tag_38\n      jumpi\n      0x0100\n      dup1\n      dup4\n      sload\n      div\n      mul\n      dup4\n      mstore\n      swap2\n      0x20\n      add\n      swap2\n      jump(tag_37)\n    tag_38:\n      dup3\n      add\n      swap2\n      swap1\n      0x00\n      mstore\n      keccak256(0x00, 0x20)\n      swap1\n    tag_39:\n      dup2\n      sload\n      dup2\n      mstore\n      swap1\n      0x01\n      add\n      swap1\n      0x20\n      add\n      dup1\n      dup4\n      gt\n      tag_39\n      jumpi\n      dup3\n      swap1\n      sub\n      0x1f\n      and\n      dup3\n      add\n      swap2\n    tag_37:\n      pop\n      pop\n      pop\n      pop\n      pop\n      swap1\n      pop\n      dup3\n      jump\t// out\n        /* \"Week-4/structs.sol\":531:660  function addUser(address _user, string memory _name, uint256 _age) external { ... */\n    tag_24:\n        /* \"Week-4/structs.sol\":633:652  Person(_age, _name) */\n      mload(0x40)\n      dup1\n      0x40\n      add\n      0x40\n      mstore\n      dup1\n        /* \"Week-4/structs.sol\":640:644  _age */\n      dup3\n        /* \"Week-4/structs.sol\":633:652  Person(_age, _name) */\n      dup2\n      mstore\n      0x20\n      add\n        /* \"Week-4/structs.sol\":646:651  _name */\n      dup4\n        /* \"Week-4/structs.sol\":633:652  Person(_age, _name) */\n      dup2\n      mstore\n      pop\n        /* \"Week-4/structs.sol\":618:623  users */\n      0x03\n        /* \"Week-4/structs.sol\":618:630  users[_user] */\n      0x00\n        /* \"Week-4/structs.sol\":624:629  _user */\n      dup6\n        /* \"Week-4/structs.sol\":618:630  users[_user] */\n      0xffffffffffffffffffffffffffffffffffffffff\n      and\n      0xffffffffffffffffffffffffffffffffffffffff\n      and\n      dup2\n      mstore\n      0x20\n      add\n      swap1\n      dup2\n      mstore\n      0x20\n      add\n      0x00\n      keccak256\n        /* \"Week-4/structs.sol\":618:652  users[_user] = Person(_age, _name) */\n      0x00\n      dup3\n      add\n      mload\n      dup2\n      0x00\n      add\n      sstore\n      0x20\n      dup3\n      add\n      mload\n      dup2\n      0x01\n      add\n      swap1\n      dup2\n      tag_41\n      swap2\n      swap1\n      tag_27\n      jump\t// in\n    tag_41:\n      pop\n      swap1\n      pop\n      pop\n        /* \"Week-4/structs.sol\":531:660  function addUser(address _user, string memory _name, uint256 _age) external { ... */\n      pop\n      pop\n      pop\n      jump\t// out\n        /* \"#utility.yul\":7:82   */\n    tag_42:\n        /* \"#utility.yul\":40:46   */\n      0x00\n        /* \"#utility.yul\":73:75   */\n      0x40\n        /* \"#utility.yul\":67:76   */\n      mload\n        /* \"#utility.yul\":57:76   */\n      swap1\n      pop\n        /* \"#utility.yul\":7:82   */\n      swap1\n      jump\t// out\n        /* \"#utility.yul\":88:205   */\n    tag_43:\n        /* \"#utility.yul\":197:198   */\n      0x00\n        /* \"#utility.yul\":194:195   */\n      dup1\n        /* \"#utility.yul\":187:199   */\n      revert\n        /* \"#utility.yul\":211:328   */\n    tag_44:\n        /* \"#utility.yul\":320:321   */\n      0x00\n        /* \"#utility.yul\":317:318   */\n      dup1\n        /* \"#utility.yul\":310:322   */\n      revert\n        /* \"#utility.yul\":334:451   */\n    tag_45:\n        /* \"#utility.yul\":443:444   */\n      0x00\n        /* \"#utility.yul\":440:441   */\n      dup1\n        /* \"#utility.yul\":433:445   */\n      revert\n        /* \"#utility.yul\":457:574   */\n    tag_46:\n        /* \"#utility.yul\":566:567   */\n      0x00\n        /* \"#utility.yul\":563:564   */\n      dup1\n        /* \"#utility.yul\":556:568   */\n      revert\n        /* \"#utility.yul\":580:682   */\n    tag_47:\n        /* \"#utility.yul\":621:627   */\n      0x00\n        /* \"#utility.yul\":672:674   */\n      0x1f\n        /* \"#utility.yul\":668:675   */\n      not\n        /* \"#utility.yul\":663:665   */\n      0x1f\n        /* \"#utility.yul\":656:661   */\n      dup4\n        /* \"#utility.yul\":652:666   */\n      add\n        /* \"#utility.yul\":648:676   */\n      and\n        /* \"#utility.yul\":638:676   */\n      swap1\n      pop\n        /* \"#utility.yul\":580:682   */\n      swap2\n      swap1\n      pop\n      jump\t// out\n        /* \"#utility.yul\":688:868   */\n    tag_48:\n        /* \"#utility.yul\":736:813   */\n      0x4e487b7100000000000000000000000000000000000000000000000000000000\n        /* \"#utility.yul\":733:734   */\n      0x00\n        /* \"#utility.yul\":726:814   */\n      mstore\n        /* \"#utility.yul\":833:837   */\n      0x41\n        /* \"#utility.yul\":830:831   */\n      0x04\n        /* \"#utility.yul\":823:838   */\n      mstore\n        /* \"#utility.yul\":857:861   */\n      0x24\n        /* \"#utility.yul\":854:855   */\n      0x00\n        /* \"#utility.yul\":847:862   */\n      revert\n        /* \"#utility.yul\":874:1155   */\n    tag_49:\n        /* \"#utility.yul\":957:984   */\n      tag_92\n        /* \"#utility.yul\":979:983   */\n      dup3\n        /* \"#utility.yul\":957:984   */\n      tag_47\n      jump\t// in\n    tag_92:\n        /* \"#utility.yul\":949:955   */\n      dup2\n        /* \"#utility.yul\":945:985   */\n      add\n        /* \"#utility.yul\":1087:1093   */\n      dup2\n        /* \"#utility.yul\":1075:1085   */\n      dup2\n        /* \"#utility.yul\":1072:1094   */\n      lt\n        /* \"#utility.yul\":1051:1069   */\n      0xffffffffffffffff\n        /* \"#utility.yul\":1039:1049   */\n      dup3\n        /* \"#utility.yul\":1036:1070   */\n      gt\n        /* \"#utility.yul\":1033:1095   */\n      or\n        /* \"#utility.yul\":1030:1118   */\n      iszero\n      tag_93\n      jumpi\n        /* \"#utility.yul\":1098:1116   */\n      tag_94\n      tag_48\n      jump\t// in\n    tag_94:\n        /* \"#utility.yul\":1030:1118   */\n    tag_93:\n        /* \"#utility.yul\":1138:1148   */\n      dup1\n        /* \"#utility.yul\":1134:1136   */\n      0x40\n        /* \"#utility.yul\":1127:1149   */\n      mstore\n        /* \"#utility.yul\":917:1155   */\n      pop\n        /* \"#utility.yul\":874:1155   */\n      pop\n      pop\n      jump\t// out\n        /* \"#utility.yul\":1161:1290   */\n    tag_50:\n        /* \"#utility.yul\":1195:1201   */\n      0x00\n        /* \"#utility.yul\":1222:1242   */\n      tag_96\n      tag_42\n      jump\t// in\n    tag_96:\n        /* \"#utility.yul\":1212:1242   */\n      swap1\n      pop\n        /* \"#utility.yul\":1251:1284   */\n      tag_97\n        /* \"#utility.yul\":1279:1283   */\n      dup3\n        /* \"#utility.yul\":1271:1277   */\n      dup3\n        /* \"#utility.yul\":1251:1284   */\n      tag_49\n      jump\t// in\n    tag_97:\n        /* \"#utility.yul\":1161:1290   */\n      swap2\n      swap1\n      pop\n      jump\t// out\n        /* \"#utility.yul\":1296:1604   */\n    tag_51:\n        /* \"#utility.yul\":1358:1362   */\n      0x00\n        /* \"#utility.yul\":1448:1466   */\n      0xffffffffffffffff\n        /* \"#utility.yul\":1440:1446   */\n      dup3\n        /* \"#utility.yul\":1437:1467   */\n      gt\n        /* \"#utility.yul\":1434:1490   */\n      iszero\n      tag_99\n      jumpi\n        /* \"#utility.yul\":1470:1488   */\n      tag_100\n      tag_48\n      jump\t// in\n    tag_100:\n        /* \"#utility.yul\":1434:1490   */\n    tag_99:\n        /* \"#utility.yul\":1508:1537   */\n      tag_101\n        /* \"#utility.yul\":1530:1536   */\n      dup3\n        /* \"#utility.yul\":1508:1537   */\n      tag_47\n      jump\t// in\n    tag_101:\n        /* \"#utility.yul\":1500:1537   */\n      swap1\n      pop\n        /* \"#utility.yul\":1592:1596   */\n      0x20\n        /* \"#utility.yul\":1586:1590   */\n      dup2\n        /* \"#utility.yul\":1582:1597   */\n      add\n        /* \"#utility.yul\":1574:1597   */\n      swap1\n      pop\n        /* \"#utility.yul\":1296:1604   */\n      swap2\n      swap1\n      pop\n      jump\t// out\n        /* \"#utility.yul\":1610:1756   */\n    tag_52:\n        /* \"#utility.yul\":1707:1713   */\n      dup3\n        /* \"#utility.yul\":1702:1705   */\n      dup2\n        /* \"#utility.yul\":1697:1700   */\n      dup4\n        /* \"#utility.yul\":1684:1714   */\n      calldatacopy\n        /* \"#utility.yul\":1748:1749   */\n      0x00\n        /* \"#utility.yul\":1739:1745   */\n      dup4\n        /* \"#utility.yul\":1734:1737   */\n      dup4\n        /* \"#utility.yul\":1730:1746   */\n      add\n        /* \"#utility.yul\":1723:1750   */\n      mstore\n        /* \"#utility.yul\":1610:1756   */\n      pop\n      pop\n      pop\n      jump\t// out\n        /* \"#utility.yul\":1762:2187   */\n    tag_53:\n        /* \"#utility.yul\":1840:1845   */\n      0x00\n        /* \"#utility.yul\":1865:1931   */\n      tag_104\n        /* \"#utility.yul\":1881:1930   */\n      tag_105\n        /* \"#utility.yul\":1923:1929   */\n      dup5\n        /* \"#utility.yul\":1881:1930   */\n      tag_51\n      jump\t// in\n    tag_105:\n        /* \"#utility.yul\":1865:1931   */\n      tag_50\n      jump\t// in\n    tag_104:\n        /* \"#utility.yul\":1856:1931   */\n      swap1\n      pop\n        /* \"#utility.yul\":1954:1960   */\n      dup3\n        /* \"#utility.yul\":1947:1952   */\n      dup2\n        /* \"#utility.yul\":1940:1961   */\n      mstore\n        /* \"#utility.yul\":1992:1996   */\n      0x20\n        /* \"#utility.yul\":1985:1990   */\n      dup2\n        /* \"#utility.yul\":1981:1997   */\n      add\n        /* \"#utility.yul\":2030:2033   */\n      dup5\n        /* \"#utility.yul\":2021:2027   */\n      dup5\n        /* \"#utility.yul\":2016:2019   */\n      dup5\n        /* \"#utility.yul\":2012:2028   */\n      add\n        /* \"#utility.yul\":2009:2034   */\n      gt\n        /* \"#utility.yul\":2006:2118   */\n      iszero\n      tag_106\n      jumpi\n        /* \"#utility.yul\":2037:2116   */\n      tag_107\n      tag_46\n      jump\t// in\n    tag_107:\n        /* \"#utility.yul\":2006:2118   */\n    tag_106:\n        /* \"#utility.yul\":2127:2181   */\n      tag_108\n        /* \"#utility.yul\":2174:2180   */\n      dup5\n        /* \"#utility.yul\":2169:2172   */\n      dup3\n        /* \"#utility.yul\":2164:2167   */\n      dup6\n        /* \"#utility.yul\":2127:2181   */\n      tag_52\n      jump\t// in\n    tag_108:\n        /* \"#utility.yul\":1846:2187   */\n      pop\n        /* \"#utility.yul\":1762:2187   */\n      swap4\n      swap3\n      pop\n      pop\n      pop\n      jump\t// out\n        /* \"#utility.yul\":2207:2547   */\n    tag_54:\n        /* \"#utility.yul\":2263:2268   */\n      0x00\n        /* \"#utility.yul\":2312:2315   */\n      dup3\n        /* \"#utility.yul\":2305:2309   */\n      0x1f\n        /* \"#utility.yul\":2297:2303   */\n      dup4\n        /* \"#utility.yul\":2293:2310   */\n      add\n        /* \"#utility.yul\":2289:2316   */\n      slt\n        /* \"#utility.yul\":2279:2401   */\n      tag_110\n      jumpi\n        /* \"#utility.yul\":2320:2399   */\n      tag_111\n      tag_45\n      jump\t// in\n    tag_111:\n        /* \"#utility.yul\":2279:2401   */\n    tag_110:\n        /* \"#utility.yul\":2437:2443   */\n      dup2\n        /* \"#utility.yul\":2424:2444   */\n      calldataload\n        /* \"#utility.yul\":2462:2541   */\n      tag_112\n        /* \"#utility.yul\":2537:2540   */\n      dup5\n        /* \"#utility.yul\":2529:2535   */\n      dup3\n        /* \"#utility.yul\":2522:2526   */\n      0x20\n        /* \"#utility.yul\":2514:2520   */\n      dup7\n        /* \"#utility.yul\":2510:2527   */\n      add\n        /* \"#utility.yul\":2462:2541   */\n      tag_53\n      jump\t// in\n    tag_112:\n        /* \"#utility.yul\":2453:2541   */\n      swap2\n      pop\n        /* \"#utility.yul\":2269:2547   */\n      pop\n        /* \"#utility.yul\":2207:2547   */\n      swap3\n      swap2\n      pop\n      pop\n      jump\t// out\n        /* \"#utility.yul\":2553:2630   */\n    tag_55:\n        /* \"#utility.yul\":2590:2597   */\n      0x00\n        /* \"#utility.yul\":2619:2624   */\n      dup2\n        /* \"#utility.yul\":2608:2624   */\n      swap1\n      pop\n        /* \"#utility.yul\":2553:2630   */\n      swap2\n      swap1\n      pop\n      jump\t// out\n        /* \"#utility.yul\":2636:2758   */\n    tag_56:\n        /* \"#utility.yul\":2709:2733   */\n      tag_115\n        /* \"#utility.yul\":2727:2732   */\n      dup2\n        /* \"#utility.yul\":2709:2733   */\n      tag_55\n      jump\t// in\n    tag_115:\n        /* \"#utility.yul\":2702:2707   */\n      dup2\n        /* \"#utility.yul\":2699:2734   */\n      eq\n        /* \"#utility.yul\":2689:2752   */\n      tag_116\n      jumpi\n        /* \"#utility.yul\":2748:2749   */\n      0x00\n        /* \"#utility.yul\":2745:2746   */\n      dup1\n        /* \"#utility.yul\":2738:2750   */\n      revert\n        /* \"#utility.yul\":2689:2752   */\n    tag_116:\n        /* \"#utility.yul\":2636:2758   */\n      pop\n      jump\t// out\n        /* \"#utility.yul\":2764:2903   */\n    tag_57:\n        /* \"#utility.yul\":2810:2815   */\n      0x00\n        /* \"#utility.yul\":2848:2854   */\n      dup2\n        /* \"#utility.yul\":2835:2855   */\n      calldataload\n        /* \"#utility.yul\":2826:2855   */\n      swap1\n      pop\n        /* \"#utility.yul\":2864:2897   */\n      tag_118\n        /* \"#utility.yul\":2891:2896   */\n      dup2\n        /* \"#utility.yul\":2864:2897   */\n      tag_56\n      jump\t// in\n    tag_118:\n        /* \"#utility.yul\":2764:2903   */\n      swap3\n      swap2\n      pop\n      pop\n      jump\t// out\n        /* \"#utility.yul\":2909:3708   */\n    tag_9:\n        /* \"#utility.yul\":2996:3002   */\n      0x00\n        /* \"#utility.yul\":3004:3010   */\n      dup1\n        /* \"#utility.yul\":3012:3018   */\n      0x00\n        /* \"#utility.yul\":3061:3063   */\n      0x60\n        /* \"#utility.yul\":3049:3058   */\n      dup5\n        /* \"#utility.yul\":3040:3047   */\n      dup7\n        /* \"#utility.yul\":3036:3059   */\n      sub\n        /* \"#utility.yul\":3032:3064   */\n      slt\n        /* \"#utility.yul\":3029:3148   */\n      iszero\n      tag_120\n      jumpi\n        /* \"#utility.yul\":3067:3146   */\n      tag_121\n      tag_43\n      jump\t// in\n    tag_121:\n        /* \"#utility.yul\":3029:3148   */\n    tag_120:\n        /* \"#utility.yul\":3215:3216   */\n      0x00\n        /* \"#utility.yul\":3204:3213   */\n      dup5\n        /* \"#utility.yul\":3200:3217   */\n      add\n        /* \"#utility.yul\":3187:3218   */\n      calldataload\n        /* \"#utility.yul\":3245:3263   */\n      0xffffffffffffffff\n        /* \"#utility.yul\":3237:3243   */\n      dup2\n        /* \"#utility.yul\":3234:3264   */\n      gt\n        /* \"#utility.yul\":3231:3348   */\n      iszero\n      tag_122\n      jumpi\n        /* \"#utility.yul\":3267:3346   */\n      tag_123\n      tag_44\n      jump\t// in\n    tag_123:\n        /* \"#utility.yul\":3231:3348   */\n    tag_122:\n        /* \"#utility.yul\":3372:3435   */\n      tag_124\n        /* \"#utility.yul\":3427:3434   */\n      dup7\n        /* \"#utility.yul\":3418:3424   */\n      dup3\n        /* \"#utility.yul\":3407:3416   */\n      dup8\n        /* \"#utility.yul\":3403:3425   */\n      add\n        /* \"#utility.yul\":3372:3435   */\n      tag_54\n      jump\t// in\n    tag_124:\n        /* \"#utility.yul\":3362:3435   */\n      swap4\n      pop\n        /* \"#utility.yul\":3158:3445   */\n      pop\n        /* \"#utility.yul\":3484:3486   */\n      0x20\n        /* \"#utility.yul\":3510:3563   */\n      tag_125\n        /* \"#utility.yul\":3555:3562   */\n      dup7\n        /* \"#utility.yul\":3546:3552   */\n      dup3\n        /* \"#utility.yul\":3535:3544   */\n      dup8\n        /* \"#utility.yul\":3531:3553   */\n      add\n        /* \"#utility.yul\":3510:3563   */\n      tag_57\n      jump\t// in\n    tag_125:\n        /* \"#utility.yul\":3500:3563   */\n      swap3\n      pop\n        /* \"#utility.yul\":3455:3573   */\n      pop\n        /* \"#utility.yul\":3612:3614   */\n      0x40\n        /* \"#utility.yul\":3638:3691   */\n      tag_126\n        /* \"#utility.yul\":3683:3690   */\n      dup7\n        /* \"#utility.yul\":3674:3680   */\n      dup3\n        /* \"#utility.yul\":3663:3672   */\n      dup8\n        /* \"#utility.yul\":3659:3681   */\n      add\n        /* \"#utility.yul\":3638:3691   */\n      tag_57\n      jump\t// in\n    tag_126:\n        /* \"#utility.yul\":3628:3691   */\n      swap2\n      pop\n        /* \"#utility.yul\":3583:3701   */\n      pop\n        /* \"#utility.yul\":2909:3708   */\n      swap3\n      pop\n      swap3\n      pop\n      swap3\n      jump\t// out\n        /* \"#utility.yul\":3714:3813   */\n    tag_58:\n        /* \"#utility.yul\":3766:3772   */\n      0x00\n        /* \"#utility.yul\":3800:3805   */\n      dup2\n        /* \"#utility.yul\":3794:3806   */\n      mload\n        /* \"#utility.yul\":3784:3806   */\n      swap1\n      pop\n        /* \"#utility.yul\":3714:3813   */\n      swap2\n      swap1\n      pop\n      jump\t// out\n        /* \"#utility.yul\":3819:3988   */\n    tag_59:\n        /* \"#utility.yul\":3903:3914   */\n      0x00\n        /* \"#utility.yul\":3937:3943   */\n      dup3\n        /* \"#utility.yul\":3932:3935   */\n      dup3\n        /* \"#utility.yul\":3925:3944   */\n      mstore\n        /* \"#utility.yul\":3977:3981   */\n      0x20\n        /* \"#utility.yul\":3972:3975   */\n      dup3\n        /* \"#utility.yul\":3968:3982   */\n      add\n        /* \"#utility.yul\":3953:3982   */\n      swap1\n      pop\n        /* \"#utility.yul\":3819:3988   */\n      swap3\n      swap2\n      pop\n      pop\n      jump\t// out\n        /* \"#utility.yul\":3994:4240   */\n    tag_60:\n        /* \"#utility.yul\":4075:4076   */\n      0x00\n        /* \"#utility.yul\":4085:4198   */\n    tag_130:\n        /* \"#utility.yul\":4099:4105   */\n      dup4\n        /* \"#utility.yul\":4096:4097   */\n      dup2\n        /* \"#utility.yul\":4093:4106   */\n      lt\n        /* \"#utility.yul\":4085:4198   */\n      iszero\n      tag_132\n      jumpi\n        /* \"#utility.yul\":4184:4185   */\n      dup1\n        /* \"#utility.yul\":4179:4182   */\n      dup3\n        /* \"#utility.yul\":4175:4186   */\n      add\n        /* \"#utility.yul\":4169:4187   */\n      mload\n        /* \"#utility.yul\":4165:4166   */\n      dup2\n        /* \"#utility.yul\":4160:4163   */\n      dup5\n        /* \"#utility.yul\":4156:4167   */\n      add\n        /* \"#utility.yul\":4149:4188   */\n      mstore\n        /* \"#utility.yul\":4121:4123   */\n      0x20\n        /* \"#utility.yul\":4118:4119   */\n      dup2\n        /* \"#utility.yul\":4114:4124   */\n      add\n        /* \"#utility.yul\":4109:4124   */\n      swap1\n      pop\n        /* \"#utility.yul\":4085:4198   */\n      jump(tag_130)\n    tag_132:\n        /* \"#utility.yul\":4232:4233   */\n      0x00\n        /* \"#utility.yul\":4223:4229   */\n      dup5\n        /* \"#utility.yul\":4218:4221   */\n      dup5\n        /* \"#utility.yul\":4214:4230   */\n      add\n        /* \"#utility.yul\":4207:4234   */\n      mstore\n        /* \"#utility.yul\":4056:4240   */\n      pop\n        /* \"#utility.yul\":3994:4240   */\n      pop\n      pop\n      pop\n      jump\t// out\n        /* \"#utility.yul\":4246:4623   */\n    tag_61:\n        /* \"#utility.yul\":4334:4337   */\n      0x00\n        /* \"#utility.yul\":4362:4401   */\n      tag_134\n        /* \"#utility.yul\":4395:4400   */\n      dup3\n        /* \"#utility.yul\":4362:4401   */\n      tag_58\n      jump\t// in\n    tag_134:\n        /* \"#utility.yul\":4417:4488   */\n      tag_135\n        /* \"#utility.yul\":4481:4487   */\n      dup2\n        /* \"#utility.yul\":4476:4479   */\n      dup6\n        /* \"#utility.yul\":4417:4488   */\n      tag_59\n      jump\t// in\n    tag_135:\n        /* \"#utility.yul\":4410:4488   */\n      swap4\n      pop\n        /* \"#utility.yul\":4497:4562   */\n      tag_136\n        /* \"#utility.yul\":4555:4561   */\n      dup2\n        /* \"#utility.yul\":4550:4553   */\n      dup6\n        /* \"#utility.yul\":4543:4547   */\n      0x20\n        /* \"#utility.yul\":4536:4541   */\n      dup7\n        /* \"#utility.yul\":4532:4548   */\n      add\n        /* \"#utility.yul\":4497:4562   */\n      tag_60\n      jump\t// in\n    tag_136:\n        /* \"#utility.yul\":4587:4616   */\n      tag_137\n        /* \"#utility.yul\":4609:4615   */\n      dup2\n        /* \"#utility.yul\":4587:4616   */\n      tag_47\n      jump\t// in\n    tag_137:\n        /* \"#utility.yul\":4582:4585   */\n      dup5\n        /* \"#utility.yul\":4578:4617   */\n      add\n        /* \"#utility.yul\":4571:4617   */\n      swap2\n      pop\n        /* \"#utility.yul\":4338:4623   */\n      pop\n        /* \"#utility.yul\":4246:4623   */\n      swap3\n      swap2\n      pop\n      pop\n      jump\t// out\n        /* \"#utility.yul\":4629:4747   */\n    tag_62:\n        /* \"#utility.yul\":4716:4740   */\n      tag_139\n        /* \"#utility.yul\":4734:4739   */\n      dup2\n        /* \"#utility.yul\":4716:4740   */\n      tag_55\n      jump\t// in\n    tag_139:\n        /* \"#utility.yul\":4711:4714   */\n      dup3\n        /* \"#utility.yul\":4704:4741   */\n      mstore\n        /* \"#utility.yul\":4629:4747   */\n      pop\n      pop\n      jump\t// out\n        /* \"#utility.yul\":4753:5286   */\n    tag_14:\n        /* \"#utility.yul\":4922:4926   */\n      0x00\n        /* \"#utility.yul\":4960:4962   */\n      0x60\n        /* \"#utility.yul\":4949:4958   */\n      dup3\n        /* \"#utility.yul\":4945:4963   */\n      add\n        /* \"#utility.yul\":4937:4963   */\n      swap1\n      pop\n        /* \"#utility.yul\":5009:5018   */\n      dup2\n        /* \"#utility.yul\":5003:5007   */\n      dup2\n        /* \"#utility.yul\":4999:5019   */\n      sub\n        /* \"#utility.yul\":4995:4996   */\n      0x00\n        /* \"#utility.yul\":4984:4993   */\n      dup4\n        /* \"#utility.yul\":4980:4997   */\n      add\n        /* \"#utility.yul\":4973:5020   */\n      mstore\n        /* \"#utility.yul\":5037:5115   */\n      tag_141\n        /* \"#utility.yul\":5110:5114   */\n      dup2\n        /* \"#utility.yul\":5101:5107   */\n      dup7\n        /* \"#utility.yul\":5037:5115   */\n      tag_61\n      jump\t// in\n    tag_141:\n        /* \"#utility.yul\":5029:5115   */\n      swap1\n      pop\n        /* \"#utility.yul\":5125:5197   */\n      tag_142\n        /* \"#utility.yul\":5193:5195   */\n      0x20\n        /* \"#utility.yul\":5182:5191   */\n      dup4\n        /* \"#utility.yul\":5178:5196   */\n      add\n        /* \"#utility.yul\":5169:5175   */\n      dup6\n        /* \"#utility.yul\":5125:5197   */\n      tag_62\n      jump\t// in\n    tag_142:\n        /* \"#utility.yul\":5207:5279   */\n      tag_143\n        /* \"#utility.yul\":5275:5277   */\n      0x40\n        /* \"#utility.yul\":5264:5273   */\n      dup4\n        /* \"#utility.yul\":5260:5278   */\n      add\n        /* \"#utility.yul\":5251:5257   */\n      dup5\n        /* \"#utility.yul\":5207:5279   */\n      tag_62\n      jump\t// in\n    tag_143:\n        /* \"#utility.yul\":4753:5286   */\n      swap5\n      swap4\n      pop\n      pop\n      pop\n      pop\n      jump\t// out\n        /* \"#utility.yul\":5292:5418   */\n    tag_63:\n        /* \"#utility.yul\":5329:5336   */\n      0x00\n        /* \"#utility.yul\":5369:5411   */\n      0xffffffffffffffffffffffffffffffffffffffff\n        /* \"#utility.yul\":5362:5367   */\n      dup3\n        /* \"#utility.yul\":5358:5412   */\n      and\n        /* \"#utility.yul\":5347:5412   */\n      swap1\n      pop\n        /* \"#utility.yul\":5292:5418   */\n      swap2\n      swap1\n      pop\n      jump\t// out\n        /* \"#utility.yul\":5424:5520   */\n    tag_64:\n        /* \"#utility.yul\":5461:5468   */\n      0x00\n        /* \"#utility.yul\":5490:5514   */\n      tag_146\n        /* \"#utility.yul\":5508:5513   */\n      dup3\n        /* \"#utility.yul\":5490:5514   */\n      tag_63\n      jump\t// in\n    tag_146:\n        /* \"#utility.yul\":5479:5514   */\n      swap1\n      pop\n        /* \"#utility.yul\":5424:5520   */\n      swap2\n      swap1\n      pop\n      jump\t// out\n        /* \"#utility.yul\":5526:5648   */\n    tag_65:\n        /* \"#utility.yul\":5599:5623   */\n      tag_148\n        /* \"#utility.yul\":5617:5622   */\n      dup2\n        /* \"#utility.yul\":5599:5623   */\n      tag_64\n      jump\t// in\n    tag_148:\n        /* \"#utility.yul\":5592:5597   */\n      dup2\n        /* \"#utility.yul\":5589:5624   */\n      eq\n        /* \"#utility.yul\":5579:5642   */\n      tag_149\n      jumpi\n        /* \"#utility.yul\":5638:5639   */\n      0x00\n        /* \"#utility.yul\":5635:5636   */\n      dup1\n        /* \"#utility.yul\":5628:5640   */\n      revert\n        /* \"#utility.yul\":5579:5642   */\n    tag_149:\n        /* \"#utility.yul\":5526:5648   */\n      pop\n      jump\t// out\n        /* \"#utility.yul\":5654:5793   */\n    tag_66:\n        /* \"#utility.yul\":5700:5705   */\n      0x00\n        /* \"#utility.yul\":5738:5744   */\n      dup2\n        /* \"#utility.yul\":5725:5745   */\n      calldataload\n        /* \"#utility.yul\":5716:5745   */\n      swap1\n      pop\n        /* \"#utility.yul\":5754:5787   */\n      tag_151\n        /* \"#utility.yul\":5781:5786   */\n      dup2\n        /* \"#utility.yul\":5754:5787   */\n      tag_65\n      jump\t// in\n    tag_151:\n        /* \"#utility.yul\":5654:5793   */\n      swap3\n      swap2\n      pop\n      pop\n      jump\t// out\n        /* \"#utility.yul\":5799:6128   */\n    tag_17:\n        /* \"#utility.yul\":5858:5864   */\n      0x00\n        /* \"#utility.yul\":5907:5909   */\n      0x20\n        /* \"#utility.yul\":5895:5904   */\n      dup3\n        /* \"#utility.yul\":5886:5893   */\n      dup5\n        /* \"#utility.yul\":5882:5905   */\n      sub\n        /* \"#utility.yul\":5878:5910   */\n      slt\n        /* \"#utility.yul\":5875:5994   */\n      iszero\n      tag_153\n      jumpi\n        /* \"#utility.yul\":5913:5992   */\n      tag_154\n      tag_43\n      jump\t// in\n    tag_154:\n        /* \"#utility.yul\":5875:5994   */\n    tag_153:\n        /* \"#utility.yul\":6033:6034   */\n      0x00\n        /* \"#utility.yul\":6058:6111   */\n      tag_155\n        /* \"#utility.yul\":6103:6110   */\n      dup5\n        /* \"#utility.yul\":6094:6100   */\n      dup3\n        /* \"#utility.yul\":6083:6092   */\n      dup6\n        /* \"#utility.yul\":6079:6101   */\n      add\n        /* \"#utility.yul\":6058:6111   */\n      tag_66\n      jump\t// in\n    tag_155:\n        /* \"#utility.yul\":6048:6111   */\n      swap2\n      pop\n        /* \"#utility.yul\":6004:6121   */\n      pop\n        /* \"#utility.yul\":5799:6128   */\n      swap3\n      swap2\n      pop\n      pop\n      jump\t// out\n        /* \"#utility.yul\":6134:6557   */\n    tag_20:\n        /* \"#utility.yul\":6275:6279   */\n      0x00\n        /* \"#utility.yul\":6313:6315   */\n      0x40\n        /* \"#utility.yul\":6302:6311   */\n      dup3\n        /* \"#utility.yul\":6298:6316   */\n      add\n        /* \"#utility.yul\":6290:6316   */\n      swap1\n      pop\n        /* \"#utility.yul\":6326:6397   */\n      tag_157\n        /* \"#utility.yul\":6394:6395   */\n      0x00\n        /* \"#utility.yul\":6383:6392   */\n      dup4\n        /* \"#utility.yul\":6379:6396   */\n      add\n        /* \"#utility.yul\":6370:6376   */\n      dup6\n        /* \"#utility.yul\":6326:6397   */\n      tag_62\n      jump\t// in\n    tag_157:\n        /* \"#utility.yul\":6444:6453   */\n      dup2\n        /* \"#utility.yul\":6438:6442   */\n      dup2\n        /* \"#utility.yul\":6434:6454   */\n      sub\n        /* \"#utility.yul\":6429:6431   */\n      0x20\n        /* \"#utility.yul\":6418:6427   */\n      dup4\n        /* \"#utility.yul\":6414:6432   */\n      add\n        /* \"#utility.yul\":6407:6455   */\n      mstore\n        /* \"#utility.yul\":6472:6550   */\n      tag_158\n        /* \"#utility.yul\":6545:6549   */\n      dup2\n        /* \"#utility.yul\":6536:6542   */\n      dup5\n        /* \"#utility.yul\":6472:6550   */\n      tag_61\n      jump\t// in\n    tag_158:\n        /* \"#utility.yul\":6464:6550   */\n      swap1\n      pop\n        /* \"#utility.yul\":6134:6557   */\n      swap4\n      swap3\n      pop\n      pop\n      pop\n      jump\t// out\n        /* \"#utility.yul\":6563:7362   */\n    tag_23:\n        /* \"#utility.yul\":6650:6656   */\n      0x00\n        /* \"#utility.yul\":6658:6664   */\n      dup1\n        /* \"#utility.yul\":6666:6672   */\n      0x00\n        /* \"#utility.yul\":6715:6717   */\n      0x60\n        /* \"#utility.yul\":6703:6712   */\n      dup5\n        /* \"#utility.yul\":6694:6701   */\n      dup7\n        /* \"#utility.yul\":6690:6713   */\n      sub\n        /* \"#utility.yul\":6686:6718   */\n      slt\n        /* \"#utility.yul\":6683:6802   */\n      iszero\n      tag_160\n      jumpi\n        /* \"#utility.yul\":6721:6800   */\n      tag_161\n      tag_43\n      jump\t// in\n    tag_161:\n        /* \"#utility.yul\":6683:6802   */\n    tag_160:\n        /* \"#utility.yul\":6841:6842   */\n      0x00\n        /* \"#utility.yul\":6866:6919   */\n      tag_162\n        /* \"#utility.yul\":6911:6918   */\n      dup7\n        /* \"#utility.yul\":6902:6908   */\n      dup3\n        /* \"#utility.yul\":6891:6900   */\n      dup8\n        /* \"#utility.yul\":6887:6909   */\n      add\n        /* \"#utility.yul\":6866:6919   */\n      tag_66\n      jump\t// in\n    tag_162:\n        /* \"#utility.yul\":6856:6919   */\n      swap4\n      pop\n        /* \"#utility.yul\":6812:6929   */\n      pop\n        /* \"#utility.yul\":6996:6998   */\n      0x20\n        /* \"#utility.yul\":6985:6994   */\n      dup5\n        /* \"#utility.yul\":6981:6999   */\n      add\n        /* \"#utility.yul\":6968:7000   */\n      calldataload\n        /* \"#utility.yul\":7027:7045   */\n      0xffffffffffffffff\n        /* \"#utility.yul\":7019:7025   */\n      dup2\n        /* \"#utility.yul\":7016:7046   */\n      gt\n        /* \"#utility.yul\":7013:7130   */\n      iszero\n      tag_163\n      jumpi\n        /* \"#utility.yul\":7049:7128   */\n      tag_164\n      tag_44\n      jump\t// in\n    tag_164:\n        /* \"#utility.yul\":7013:7130   */\n    tag_163:\n        /* \"#utility.yul\":7154:7217   */\n      tag_165\n        /* \"#utility.yul\":7209:7216   */\n      dup7\n        /* \"#utility.yul\":7200:7206   */\n      dup3\n        /* \"#utility.yul\":7189:7198   */\n      dup8\n        /* \"#utility.yul\":7185:7207   */\n      add\n        /* \"#utility.yul\":7154:7217   */\n      tag_54\n      jump\t// in\n    tag_165:\n        /* \"#utility.yul\":7144:7217   */\n      swap3\n      pop\n        /* \"#utility.yul\":6939:7227   */\n      pop\n        /* \"#utility.yul\":7266:7268   */\n      0x40\n        /* \"#utility.yul\":7292:7345   */\n      tag_166\n        /* \"#utility.yul\":7337:7344   */\n      dup7\n        /* \"#utility.yul\":7328:7334   */\n      dup3\n        /* \"#utility.yul\":7317:7326   */\n      dup8\n        /* \"#utility.yul\":7313:7335   */\n      add\n        /* \"#utility.yul\":7292:7345   */\n      tag_57\n      jump\t// in\n    tag_166:\n        /* \"#utility.yul\":7282:7345   */\n      swap2\n      pop\n        /* \"#utility.yul\":7237:7355   */\n      pop\n        /* \"#utility.yul\":6563:7362   */\n      swap3\n      pop\n      swap3\n      pop\n      swap3\n      jump\t// out\n        /* \"#utility.yul\":7368:7548   */\n    tag_67:\n        /* \"#utility.yul\":7416:7493   */\n      0x4e487b7100000000000000000000000000000000000000000000000000000000\n        /* \"#utility.yul\":7413:7414   */\n      0x00\n        /* \"#utility.yul\":7406:7494   */\n      mstore\n        /* \"#utility.yul\":7513:7517   */\n      0x22\n        /* \"#utility.yul\":7510:7511   */\n      0x04\n        /* \"#utility.yul\":7503:7518   */\n      mstore\n        /* \"#utility.yul\":7537:7541   */\n      0x24\n        /* \"#utility.yul\":7534:7535   */\n      0x00\n        /* \"#utility.yul\":7527:7542   */\n      revert\n        /* \"#utility.yul\":7554:7874   */\n    tag_30:\n        /* \"#utility.yul\":7598:7604   */\n      0x00\n        /* \"#utility.yul\":7635:7636   */\n      0x02\n        /* \"#utility.yul\":7629:7633   */\n      dup3\n        /* \"#utility.yul\":7625:7637   */\n      div\n        /* \"#utility.yul\":7615:7637   */\n      swap1\n      pop\n        /* \"#utility.yul\":7682:7683   */\n      0x01\n        /* \"#utility.yul\":7676:7680   */\n      dup3\n        /* \"#utility.yul\":7672:7684   */\n      and\n        /* \"#utility.yul\":7703:7721   */\n      dup1\n        /* \"#utility.yul\":7693:7774   */\n      tag_169\n      jumpi\n        /* \"#utility.yul\":7759:7763   */\n      0x7f\n        /* \"#utility.yul\":7751:7757   */\n      dup3\n        /* \"#utility.yul\":7747:7764   */\n      and\n        /* \"#utility.yul\":7737:7764   */\n      swap2\n      pop\n        /* \"#utility.yul\":7693:7774   */\n    tag_169:\n        /* \"#utility.yul\":7821:7823   */\n      0x20\n        /* \"#utility.yul\":7813:7819   */\n      dup3\n        /* \"#utility.yul\":7810:7824   */\n      lt\n        /* \"#utility.yul\":7790:7808   */\n      dup2\n        /* \"#utility.yul\":7787:7825   */\n      sub\n        /* \"#utility.yul\":7784:7868   */\n      tag_170\n      jumpi\n        /* \"#utility.yul\":7840:7858   */\n      tag_171\n      tag_67\n      jump\t// in\n    tag_171:\n        /* \"#utility.yul\":7784:7868   */\n    tag_170:\n        /* \"#utility.yul\":7605:7874   */\n      pop\n        /* \"#utility.yul\":7554:7874   */\n      swap2\n      swap1\n      pop\n      jump\t// out\n        /* \"#utility.yul\":7880:8021   */\n    tag_68:\n        /* \"#utility.yul\":7929:7933   */\n      0x00\n        /* \"#utility.yul\":7952:7955   */\n      dup2\n        /* \"#utility.yul\":7944:7955   */\n      swap1\n      pop\n        /* \"#utility.yul\":7975:7978   */\n      dup2\n        /* \"#utility.yul\":7972:7973   */\n      0x00\n        /* \"#utility.yul\":7965:7979   */\n      mstore\n        /* \"#utility.yul\":8009:8013   */\n      0x20\n        /* \"#utility.yul\":8006:8007   */\n      0x00\n        /* \"#utility.yul\":7996:8014   */\n      keccak256\n        /* \"#utility.yul\":7988:8014   */\n      swap1\n      pop\n        /* \"#utility.yul\":7880:8021   */\n      swap2\n      swap1\n      pop\n      jump\t// out\n        /* \"#utility.yul\":8027:8120   */\n    tag_69:\n        /* \"#utility.yul\":8064:8070   */\n      0x00\n        /* \"#utility.yul\":8111:8113   */\n      0x20\n        /* \"#utility.yul\":8106:8108   */\n      0x1f\n        /* \"#utility.yul\":8099:8104   */\n      dup4\n        /* \"#utility.yul\":8095:8109   */\n      add\n        /* \"#utility.yul\":8091:8114   */\n      div\n        /* \"#utility.yul\":8081:8114   */\n      swap1\n      pop\n        /* \"#utility.yul\":8027:8120   */\n      swap2\n      swap1\n      pop\n      jump\t// out\n        /* \"#utility.yul\":8126:8233   */\n    tag_70:\n        /* \"#utility.yul\":8170:8178   */\n      0x00\n        /* \"#utility.yul\":8220:8225   */\n      dup3\n        /* \"#utility.yul\":8214:8218   */\n      dup3\n        /* \"#utility.yul\":8210:8226   */\n      shl\n        /* \"#utility.yul\":8189:8226   */\n      swap1\n      pop\n        /* \"#utility.yul\":8126:8233   */\n      swap3\n      swap2\n      pop\n      pop\n      jump\t// out\n        /* \"#utility.yul\":8239:8632   */\n    tag_71:\n        /* \"#utility.yul\":8308:8314   */\n      0x00\n        /* \"#utility.yul\":8358:8359   */\n      0x08\n        /* \"#utility.yul\":8346:8356   */\n      dup4\n        /* \"#utility.yul\":8342:8360   */\n      mul\n        /* \"#utility.yul\":8381:8478   */\n      tag_176\n        /* \"#utility.yul\":8411:8477   */\n      0xffffffffffffffffffffffffffffffffffffffffffffffffffffffffffffffff\n        /* \"#utility.yul\":8400:8409   */\n      dup3\n        /* \"#utility.yul\":8381:8478   */\n      tag_70\n      jump\t// in\n    tag_176:\n        /* \"#utility.yul\":8499:8538   */\n      tag_177\n        /* \"#utility.yul\":8529:8537   */\n      dup7\n        /* \"#utility.yul\":8518:8527   */\n      dup4\n        /* \"#utility.yul\":8499:8538   */\n      tag_70\n      jump\t// in\n    tag_177:\n        /* \"#utility.yul\":8487:8538   */\n      swap6\n      pop\n        /* \"#utility.yul\":8571:8575   */\n      dup1\n        /* \"#utility.yul\":8567:8576   */\n      not\n        /* \"#utility.yul\":8560:8565   */\n      dup5\n        /* \"#utility.yul\":8556:8577   */\n      and\n        /* \"#utility.yul\":8547:8577   */\n      swap4\n      pop\n        /* \"#utility.yul\":8620:8624   */\n      dup1\n        /* \"#utility.yul\":8610:8618   */\n      dup7\n        /* \"#utility.yul\":8606:8625   */\n      and\n        /* \"#utility.yul\":8599:8604   */\n      dup5\n        /* \"#utility.yul\":8596:8626   */\n      or\n        /* \"#utility.yul\":8586:8626   */\n      swap3\n      pop\n        /* \"#utility.yul\":8315:8632   */\n      pop\n      pop\n        /* \"#utility.yul\":8239:8632   */\n      swap4\n      swap3\n      pop\n      pop\n      pop\n      jump\t// out\n        /* \"#utility.yul\":8638:8698   */\n    tag_72:\n        /* \"#utility.yul\":8666:8669   */\n      0x00\n        /* \"#utility.yul\":8687:8692   */\n      dup2\n        /* \"#utility.yul\":8680:8692   */\n      swap1\n      pop\n        /* \"#utility.yul\":8638:8698   */\n      swap2\n      swap1\n      pop\n      jump\t// out\n        /* \"#utility.yul\":8704:8846   */\n    tag_73:\n        /* \"#utility.yul\":8754:8763   */\n      0x00\n        /* \"#utility.yul\":8787:8840   */\n      tag_180\n        /* \"#utility.yul\":8805:8839   */\n      tag_181\n        /* \"#utility.yul\":8814:8838   */\n      tag_182\n        /* \"#utility.yul\":8832:8837   */\n      dup5\n        /* \"#utility.yul\":8814:8838   */\n      tag_55\n      jump\t// in\n    tag_182:\n        /* \"#utility.yul\":8805:8839   */\n      tag_72\n      jump\t// in\n    tag_181:\n        /* \"#utility.yul\":8787:8840   */\n      tag_55\n      jump\t// in\n    tag_180:\n        /* \"#utility.yul\":8774:8840   */\n      swap1\n      pop\n        /* \"#utility.yul\":8704:8846   */\n      swap2\n      swap1\n      pop\n      jump\t// out\n        /* \"#utility.yul\":8852:8927   */\n    tag_74:\n        /* \"#utility.yul\":8895:8898   */\n      0x00\n        /* \"#utility.yul\":8916:8921   */\n      dup2\n        /* \"#utility.yul\":8909:8921   */\n      swap1\n      pop\n        /* \"#utility.yul\":8852:8927   */\n      swap2\n      swap1\n      pop\n      jump\t// out\n        /* \"#utility.yul\":8933:9202   */\n    tag_75:\n        /* \"#utility.yul\":9043:9082   */\n      tag_185\n        /* \"#utility.yul\":9074:9081   */\n      dup4\n        /* \"#utility.yul\":9043:9082   */\n      tag_73\n      jump\t// in\n    tag_185:\n        /* \"#utility.yul\":9104:9195   */\n      tag_186\n        /* \"#utility.yul\":9153:9194   */\n      tag_187\n        /* \"#utility.yul\":9177:9193   */\n      dup3\n        /* \"#utility.yul\":9153:9194   */\n      tag_74\n      jump\t// in\n    tag_187:\n        /* \"#utility.yul\":9145:9151   */\n      dup5\n        /* \"#utility.yul\":9138:9142   */\n      dup5\n        /* \"#utility.yul\":9132:9143   */\n      sload\n        /* \"#utility.yul\":9104:9195   */\n      tag_71\n      jump\t// in\n    tag_186:\n        /* \"#utility.yul\":9098:9102   */\n      dup3\n        /* \"#utility.yul\":9091:9196   */\n      sstore\n        /* \"#utility.yul\":9009:9202   */\n      pop\n        /* \"#utility.yul\":8933:9202   */\n      pop\n      pop\n      pop\n      jump\t// out\n        /* \"#utility.yul\":9208:9281   */\n    tag_76:\n        /* \"#utility.yul\":9253:9256   */\n      0x00\n        /* \"#utility.yul\":9208:9281   */\n      swap1\n      jump\t// out\n        /* \"#utility.yul\":9287:9476   */\n    tag_77:\n        /* \"#utility.yul\":9364:9396   */\n      tag_190\n      tag_76\n      jump\t// in\n    tag_190:\n        /* \"#utility.yul\":9405:9470   */\n      tag_191\n        /* \"#utility.yul\":9463:9469   */\n      dup2\n        /* \"#utility.yul\":9455:9461   */\n      dup5\n        /* \"#utility.yul\":9449:9453   */\n      dup5\n        /* \"#utility.yul\":9405:9470   */\n      tag_75\n      jump\t// in\n    tag_191:\n        /* \"#utility.yul\":9340:9476   */\n      pop\n        /* \"#utility.yul\":9287:9476   */\n      pop\n      pop\n      jump\t// out\n        /* \"#utility.yul\":9482:9668   */\n    tag_78:\n        /* \"#utility.yul\":9542:9662   */\n    tag_193:\n        /* \"#utility.yul\":9559:9562   */\n      dup2\n        /* \"#utility.yul\":9552:9557   */\n      dup2\n        /* \"#utility.yul\":9549:9563   */\n      lt\n        /* \"#utility.yul\":9542:9662   */\n      iszero\n      tag_195\n      jumpi\n        /* \"#utility.yul\":9613:9652   */\n      tag_196\n        /* \"#utility.yul\":9650:9651   */\n      0x00\n        /* \"#utility.yul\":9643:9648   */\n      dup3\n        /* \"#utility.yul\":9613:9652   */\n      tag_77\n      jump\t// in\n    tag_196:\n        /* \"#utility.yul\":9586:9587   */\n      0x01\n        /* \"#utility.yul\":9579:9584   */\n      dup2\n        /* \"#utility.yul\":9575:9588   */\n      add\n        /* \"#utility.yul\":9566:9588   */\n      swap1\n      pop\n        /* \"#utility.yul\":9542:9662   */\n      jump(tag_193)\n    tag_195:\n        /* \"#utility.yul\":9482:9668   */\n      pop\n      pop\n      jump\t// out\n        /* \"#utility.yul\":9674:10217   */\n    tag_79:\n        /* \"#utility.yul\":9775:9777   */\n      0x1f\n        /* \"#utility.yul\":9770:9773   */\n      dup3\n        /* \"#utility.yul\":9767:9778   */\n      gt\n        /* \"#utility.yul\":9764:10210   */\n      iszero\n      tag_198\n      jumpi\n        /* \"#utility.yul\":9809:9847   */\n      tag_199\n        /* \"#utility.yul\":9841:9846   */\n      dup2\n        /* \"#utility.yul\":9809:9847   */\n      tag_68\n      jump\t// in\n    tag_199:\n        /* \"#utility.yul\":9893:9922   */\n      tag_200\n        /* \"#utility.yul\":9911:9921   */\n      dup5\n        /* \"#utility.yul\":9893:9922   */\n      tag_69\n      jump\t// in\n    tag_200:\n        /* \"#utility.yul\":9883:9891   */\n      dup2\n        /* \"#utility.yul\":9879:9923   */\n      add\n        /* \"#utility.yul\":10076:10078   */\n      0x20\n        /* \"#utility.yul\":10064:10074   */\n      dup6\n        /* \"#utility.yul\":10061:10079   */\n      lt\n        /* \"#utility.yul\":10058:10107   */\n      iszero\n      tag_201\n      jumpi\n        /* \"#utility.yul\":10097:10105   */\n      dup2\n        /* \"#utility.yul\":10082:10105   */\n      swap1\n      pop\n        /* \"#utility.yul\":10058:10107   */\n    tag_201:\n        /* \"#utility.yul\":10120:10200   */\n      tag_202\n        /* \"#utility.yul\":10176:10198   */\n      tag_203\n        /* \"#utility.yul\":10194:10197   */\n      dup6\n        /* \"#utility.yul\":10176:10198   */\n      tag_69\n      jump\t// in\n    tag_203:\n        /* \"#utility.yul\":10166:10174   */\n      dup4\n        /* \"#utility.yul\":10162:10199   */\n      add\n        /* \"#utility.yul\":10149:10160   */\n      dup3\n        /* \"#utility.yul\":10120:10200   */\n      tag_78\n      jump\t// in\n    tag_202:\n        /* \"#utility.yul\":9779:10210   */\n      pop\n      pop\n        /* \"#utility.yul\":9764:10210   */\n    tag_198:\n        /* \"#utility.yul\":9674:10217   */\n      pop\n      pop\n      pop\n      jump\t// out\n        /* \"#utility.yul\":10223:10340   */\n    tag_80:\n        /* \"#utility.yul\":10277:10285   */\n      0x00\n        /* \"#utility.yul\":10327:10332   */\n      dup3\n        /* \"#utility.yul\":10321:10325   */\n      dup3\n        /* \"#utility.yul\":10317:10333   */\n      shr\n        /* \"#utility.yul\":10296:10333   */\n      swap1\n      pop\n        /* \"#utility.yul\":10223:10340   */\n      swap3\n      swap2\n      pop\n      pop\n      jump\t// out\n        /* \"#utility.yul\":10346:10515   */\n    tag_81:\n        /* \"#utility.yul\":10390:10396   */\n      0x00\n        /* \"#utility.yul\":10423:10474   */\n      tag_206\n        /* \"#utility.yul\":10471:10472   */\n      0x00\n        /* \"#utility.yul\":10467:10473   */\n      not\n        /* \"#utility.yul\":10459:10464   */\n      dup5\n        /* \"#utility.yul\":10456:10457   */\n      0x08\n        /* \"#utility.yul\":10452:10465   */\n      mul\n        /* \"#utility.yul\":10423:10474   */\n      tag_80\n      jump\t// in\n    tag_206:\n        /* \"#utility.yul\":10419:10475   */\n      not\n        /* \"#utility.yul\":10504:10508   */\n      dup1\n        /* \"#utility.yul\":10498:10502   */\n      dup4\n        /* \"#utility.yul\":10494:10509   */\n      and\n        /* \"#utility.yul\":10484:10509   */\n      swap2\n      pop\n        /* \"#utility.yul\":10397:10515   */\n      pop\n        /* \"#utility.yul\":10346:10515   */\n      swap3\n      swap2\n      pop\n      pop\n      jump\t// out\n        /* \"#utility.yul\":10520:10815   */\n    tag_82:\n        /* \"#utility.yul\":10596:10600   */\n      0x00\n        /* \"#utility.yul\":10742:10771   */\n      tag_208\n        /* \"#utility.yul\":10767:10770   */\n      dup4\n        /* \"#utility.yul\":10761:10765   */\n      dup4\n        /* \"#utility.yul\":10742:10771   */\n      tag_81\n      jump\t// in\n    tag_208:\n        /* \"#utility.yul\":10734:10771   */\n      swap2\n      pop\n        /* \"#utility.yul\":10804:10807   */\n      dup3\n        /* \"#utility.yul\":10801:10802   */\n      0x02\n        /* \"#utility.yul\":10797:10808   */\n      mul\n        /* \"#utility.yul\":10791:10795   */\n      dup3\n        /* \"#utility.yul\":10788:10809   */\n      or\n        /* \"#utility.yul\":10780:10809   */\n      swap1\n      pop\n        /* \"#utility.yul\":10520:10815   */\n      swap3\n      swap2\n      pop\n      pop\n      jump\t// out\n        /* \"#utility.yul\":10820:12215   */\n    tag_27:\n        /* \"#utility.yul\":10937:10974   */\n      tag_210\n        /* \"#utility.yul\":10970:10973   */\n      dup3\n        /* \"#utility.yul\":10937:10974   */\n      tag_58\n      jump\t// in\n    tag_210:\n        /* \"#utility.yul\":11039:11057   */\n      0xffffffffffffffff\n        /* \"#utility.yul\":11031:11037   */\n      dup2\n        /* \"#utility.yul\":11028:11058   */\n      gt\n        /* \"#utility.yul\":11025:11081   */\n      iszero\n      tag_211\n      jumpi\n        /* \"#utility.yul\":11061:11079   */\n      tag_212\n      tag_48\n      jump\t// in\n    tag_212:\n        /* \"#utility.yul\":11025:11081   */\n    tag_211:\n        /* \"#utility.yul\":11105:11143   */\n      tag_213\n        /* \"#utility.yul\":11137:11141   */\n      dup3\n        /* \"#utility.yul\":11131:11142   */\n      sload\n        /* \"#utility.yul\":11105:11143   */\n      tag_30\n      jump\t// in\n    tag_213:\n        /* \"#utility.yul\":11190:11257   */\n      tag_214\n        /* \"#utility.yul\":11250:11256   */\n      dup3\n        /* \"#utility.yul\":11242:11248   */\n      dup3\n        /* \"#utility.yul\":11236:11240   */\n      dup6\n        /* \"#utility.yul\":11190:11257   */\n      tag_79\n      jump\t// in\n    tag_214:\n        /* \"#utility.yul\":11284:11285   */\n      0x00\n        /* \"#utility.yul\":11308:11312   */\n      0x20\n        /* \"#utility.yul\":11295:11312   */\n      swap1\n      pop\n        /* \"#utility.yul\":11340:11342   */\n      0x1f\n        /* \"#utility.yul\":11332:11338   */\n      dup4\n        /* \"#utility.yul\":11329:11343   */\n      gt\n        /* \"#utility.yul\":11357:11358   */\n      0x01\n        /* \"#utility.yul\":11352:11970   */\n      dup2\n      eq\n      tag_216\n      jumpi\n        /* \"#utility.yul\":12014:12015   */\n      0x00\n        /* \"#utility.yul\":12031:12037   */\n      dup5\n        /* \"#utility.yul\":12028:12105   */\n      iszero\n      tag_217\n      jumpi\n        /* \"#utility.yul\":12080:12089   */\n      dup3\n        /* \"#utility.yul\":12075:12078   */\n      dup8\n        /* \"#utility.yul\":12071:12090   */\n      add\n        /* \"#utility.yul\":12065:12091   */\n      mload\n        /* \"#utility.yul\":12056:12091   */\n      swap1\n      pop\n        /* \"#utility.yul\":12028:12105   */\n    tag_217:\n        /* \"#utility.yul\":12131:12198   */\n      tag_218\n        /* \"#utility.yul\":12191:12197   */\n      dup6\n        /* \"#utility.yul\":12184:12189   */\n      dup3\n        /* \"#utility.yul\":12131:12198   */\n      tag_82\n      jump\t// in\n    tag_218:\n        /* \"#utility.yul\":12125:12129   */\n      dup7\n        /* \"#utility.yul\":12118:12199   */\n      sstore\n        /* \"#utility.yul\":11987:12209   */\n      pop\n        /* \"#utility.yul\":11322:12209   */\n      jump(tag_215)\n        /* \"#utility.yul\":11352:11970   */\n    tag_216:\n        /* \"#utility.yul\":11404:11408   */\n      0x1f\n        /* \"#utility.yul\":11400:11409   */\n      not\n        /* \"#utility.yul\":11392:11398   */\n      dup5\n        /* \"#utility.yul\":11388:11410   */\n      and\n        /* \"#utility.yul\":11438:11475   */\n      tag_219\n        /* \"#utility.yul\":11470:11474   */\n      dup7\n        /* \"#utility.yul\":11438:11475   */\n      tag_68\n      jump\t// in\n    tag_219:\n        /* \"#utility.yul\":11497:11498   */\n      0x00\n        /* \"#utility.yul\":11511:11719   */\n    tag_220:\n        /* \"#utility.yul\":11525:11532   */\n      dup3\n        /* \"#utility.yul\":11522:11523   */\n      dup2\n        /* \"#utility.yul\":11519:11533   */\n      lt\n        /* \"#utility.yul\":11511:11719   */\n      iszero\n      tag_222\n      jumpi\n        /* \"#utility.yul\":11604:11613   */\n      dup5\n        /* \"#utility.yul\":11599:11602   */\n      dup10\n        /* \"#utility.yul\":11595:11614   */\n      add\n        /* \"#utility.yul\":11589:11615   */\n      mload\n        /* \"#utility.yul\":11581:11587   */\n      dup3\n        /* \"#utility.yul\":11574:11616   */\n      sstore\n        /* \"#utility.yul\":11655:11656   */\n      0x01\n        /* \"#utility.yul\":11647:11653   */\n      dup3\n        /* \"#utility.yul\":11643:11657   */\n      add\n        /* \"#utility.yul\":11633:11657   */\n      swap2\n      pop\n        /* \"#utility.yul\":11702:11704   */\n      0x20\n        /* \"#utility.yul\":11691:11700   */\n      dup6\n        /* \"#utility.yul\":11687:11705   */\n      add\n        /* \"#utility.yul\":11674:11705   */\n      swap5\n      pop\n        /* \"#utility.yul\":11548:11552   */\n      0x20\n        /* \"#utility.yul\":11545:11546   */\n      dup2\n        /* \"#utility.yul\":11541:11553   */\n      add\n        /* \"#utility.yul\":11536:11553   */\n      swap1\n      pop\n        /* \"#utility.yul\":11511:11719   */\n      jump(tag_220)\n    tag_222:\n        /* \"#utility.yul\":11747:11753   */\n      dup7\n        /* \"#utility.yul\":11738:11745   */\n      dup4\n        /* \"#utility.yul\":11735:11754   */\n      lt\n        /* \"#utility.yul\":11732:11911   */\n      iszero\n      tag_223\n      jumpi\n        /* \"#utility.yul\":11805:11814   */\n      dup5\n        /* \"#utility.yul\":11800:11803   */\n      dup10\n        /* \"#utility.yul\":11796:11815   */\n      add\n        /* \"#utility.yul\":11790:11816   */\n      mload\n        /* \"#utility.yul\":11848:11896   */\n      tag_224\n        /* \"#utility.yul\":11890:11894   */\n      0x1f\n        /* \"#utility.yul\":11882:11888   */\n      dup10\n        /* \"#utility.yul\":11878:11895   */\n      and\n        /* \"#utility.yul\":11867:11876   */\n      dup3\n        /* \"#utility.yul\":11848:11896   */\n      tag_81\n      jump\t// in\n    tag_224:\n        /* \"#utility.yul\":11840:11846   */\n      dup4\n        /* \"#utility.yul\":11833:11897   */\n      sstore\n        /* \"#utility.yul\":11755:11911   */\n      pop\n        /* \"#utility.yul\":11732:11911   */\n    tag_223:\n        /* \"#utility.yul\":11957:11958   */\n      0x01\n        /* \"#utility.yul\":11953:11954   */\n      0x02\n        /* \"#utility.yul\":11945:11951   */\n      dup9\n        /* \"#utility.yul\":11941:11955   */\n      mul\n        /* \"#utility.yul\":11937:11959   */\n      add\n        /* \"#utility.yul\":11931:11935   */\n      dup9\n        /* \"#utility.yul\":11924:11960   */\n      sstore\n        /* \"#utility.yul\":11359:11970   */\n      pop\n      pop\n      pop\n        /* \"#utility.yul\":11322:12209   */\n    tag_215:\n      pop\n        /* \"#utility.yul\":10912:12215   */\n      pop\n      pop\n      pop\n        /* \"#utility.yul\":10820:12215   */\n      pop\n      pop\n      jump\t// out\n\n    auxdata: 0xa2646970667358221220cfc3c8ba955c24c92c4b9b95fcec2fbe7fbdb93c997768239bbee68479d4813164736f6c63430008110033\n}\n",
				"bytecode": {
					"linkReferences": {},
					"object": "60806040526040518060600160405280601681526020016040518060400160405280600381526020017f426f62000000000000000000000000000000000000000000000000000000000081525081526020016040518060400160405280600481526020017f4d6174680000000000000000000000000000000000000000000000000000000081525081525060008082015181600001556020820151816001019081620000ac9190620003d7565b506040820151816002019081620000c49190620003d7565b50505060405180606001604052806040518060400160405280600481526020017f4e616d6500000000000000000000000000000000000000000000000000000000815250815260200160018152602001600181525060046000820151816000019081620001329190620003d7565b50602082015181600101556040820151816002015550503480156200015657600080fd5b50620004be565b600081519050919050565b7f4e487b7100000000000000000000000000000000000000000000000000000000600052604160045260246000fd5b7f4e487b7100000000000000000000000000000000000000000000000000000000600052602260045260246000fd5b60006002820490506001821680620001df57607f821691505b602082108103620001f557620001f462000197565b5b50919050565b60008190508160005260206000209050919050565b60006020601f8301049050919050565b600082821b905092915050565b6000600883026200025f7fffffffffffffffffffffffffffffffffffffffffffffffffffffffffffffffff8262000220565b6200026b868362000220565b95508019841693508086168417925050509392505050565b6000819050919050565b6000819050919050565b6000620002b8620002b2620002ac8462000283565b6200028d565b62000283565b9050919050565b6000819050919050565b620002d48362000297565b620002ec620002e382620002bf565b8484546200022d565b825550505050565b600090565b62000303620002f4565b62000310818484620002c9565b505050565b5b8181101562000338576200032c600082620002f9565b60018101905062000316565b5050565b601f82111562000387576200035181620001fb565b6200035c8462000210565b810160208510156200036c578190505b620003846200037b8562000210565b83018262000315565b50505b505050565b600082821c905092915050565b6000620003ac600019846008026200038c565b1980831691505092915050565b6000620003c7838362000399565b9150826002028217905092915050565b620003e2826200015d565b67ffffffffffffffff811115620003fe57620003fd62000168565b5b6200040a8254620001c6565b620004178282856200033c565b600060209050601f8311600181146200044f57600084156200043a578287015190505b620004468582620003b9565b865550620004b6565b601f1984166200045f86620001fb565b60005b82811015620004895784890151825560018201915060208501945060208101905062000462565b86831015620004a95784890151620004a5601f89168262000399565b8355505b6001600288020188555050505b505050505050565b610a0780620004ce6000396000f3fe608060405234801561001057600080fd5b506004361061004c5760003560e01c806346daaeed1461005157806366bfdb8f1461006d578063a87430ba1461008d578063f0384fb6146100be575b600080fd5b61006b6004803603810190610066919061048e565b6100da565b005b610075610129565b6040516100849392919061058b565b60405180910390f35b6100a760048036038101906100a29190610627565b6101d6565b6040516100b5929190610654565b60405180910390f35b6100d860048036038101906100d39190610684565b610282565b005b6040518060600160405280848152602001838152602001828152506004600082015181600001908161010c91906108ff565b506020820151816001015560408201518160020155905050505050565b6060600080600460000160046001015460046002015482805461014b90610722565b80601f016020809104026020016040519081016040528092919081815260200182805461017790610722565b80156101c45780601f10610199576101008083540402835291602001916101c4565b820191906000526020600020905b8154815290600101906020018083116101a757829003601f168201915b50505050509250925092509250909192565b60036020528060005260406000206000915090508060000154908060010180546101ff90610722565b80601f016020809104026020016040519081016040528092919081815260200182805461022b90610722565b80156102785780601f1061024d57610100808354040283529160200191610278565b820191906000526020600020905b81548152906001019060200180831161025b57829003601f168201915b5050505050905082565b604051806040016040528082815260200183815250600360008573ffffffffffffffffffffffffffffffffffffffff1673ffffffffffffffffffffffffffffffffffffffff1681526020019081526020016000206000820151816000015560208201518160010190816102f591906108ff565b50905050505050565b6000604051905090565b600080fd5b600080fd5b600080fd5b600080fd5b6000601f19601f8301169050919050565b7f4e487b7100000000000000000000000000000000000000000000000000000000600052604160045260246000fd5b6103658261031c565b810181811067ffffffffffffffff821117156103845761038361032d565b5b80604052505050565b60006103976102fe565b90506103a3828261035c565b919050565b600067ffffffffffffffff8211156103c3576103c261032d565b5b6103cc8261031c565b9050602081019050919050565b82818337600083830152505050565b60006103fb6103f6846103a8565b61038d565b90508281526020810184848401111561041757610416610317565b5b6104228482856103d9565b509392505050565b600082601f83011261043f5761043e610312565b5b813561044f8482602086016103e8565b91505092915050565b6000819050919050565b61046b81610458565b811461047657600080fd5b50565b60008135905061048881610462565b92915050565b6000806000606084860312156104a7576104a6610308565b5b600084013567ffffffffffffffff8111156104c5576104c461030d565b5b6104d18682870161042a565b93505060206104e286828701610479565b92505060406104f386828701610479565b9150509250925092565b600081519050919050565b600082825260208201905092915050565b60005b8381101561053757808201518184015260208101905061051c565b60008484015250505050565b600061054e826104fd565b6105588185610508565b9350610568818560208601610519565b6105718161031c565b840191505092915050565b61058581610458565b82525050565b600060608201905081810360008301526105a58186610543565b90506105b4602083018561057c565b6105c1604083018461057c565b949350505050565b600073ffffffffffffffffffffffffffffffffffffffff82169050919050565b60006105f4826105c9565b9050919050565b610604816105e9565b811461060f57600080fd5b50565b600081359050610621816105fb565b92915050565b60006020828403121561063d5761063c610308565b5b600061064b84828501610612565b91505092915050565b6000604082019050610669600083018561057c565b818103602083015261067b8184610543565b90509392505050565b60008060006060848603121561069d5761069c610308565b5b60006106ab86828701610612565b935050602084013567ffffffffffffffff8111156106cc576106cb61030d565b5b6106d88682870161042a565b92505060406106e986828701610479565b9150509250925092565b7f4e487b7100000000000000000000000000000000000000000000000000000000600052602260045260246000fd5b6000600282049050600182168061073a57607f821691505b60208210810361074d5761074c6106f3565b5b50919050565b60008190508160005260206000209050919050565b60006020601f8301049050919050565b600082821b905092915050565b6000600883026107b57fffffffffffffffffffffffffffffffffffffffffffffffffffffffffffffffff82610778565b6107bf8683610778565b95508019841693508086168417925050509392505050565b6000819050919050565b60006107fc6107f76107f284610458565b6107d7565b610458565b9050919050565b6000819050919050565b610816836107e1565b61082a61082282610803565b848454610785565b825550505050565b600090565b61083f610832565b61084a81848461080d565b505050565b5b8181101561086e57610863600082610837565b600181019050610850565b5050565b601f8211156108b35761088481610753565b61088d84610768565b8101602085101561089c578190505b6108b06108a885610768565b83018261084f565b50505b505050565b600082821c905092915050565b60006108d6600019846008026108b8565b1980831691505092915050565b60006108ef83836108c5565b9150826002028217905092915050565b610908826104fd565b67ffffffffffffffff8111156109215761092061032d565b5b61092b8254610722565b610936828285610872565b600060209050601f8311600181146109695760008415610957578287015190505b61096185826108e3565b8655506109c9565b601f19841661097786610753565b60005b8281101561099f5784890151825560018201915060208501945060208101905061097a565b868310156109bc57848901516109b8601f8916826108c5565b8355505b6001600288020188555050505b50505050505056fea2646970667358221220cfc3c8ba955c24c92c4b9b95fcec2fbe7fbdb93c997768239bbee68479d4813164736f6c63430008110033",
					"opcodes": "PUSH1 0x80 PUSH1 0x40 MSTORE PUSH1 0x40 MLOAD DUP1 PUSH1 0x60 ADD PUSH1 0x40 MSTORE DUP1 PUSH1 0x16 DUP2 MSTORE PUSH1 0x20 ADD PUSH1 0x40 MLOAD DUP1 PUSH1 0x40 ADD PUSH1 0x40 MSTORE DUP1 PUSH1 0x3 DUP2 MSTORE PUSH1 0x20 ADD PUSH32 0x426F620000000000000000000000000000000000000000000000000000000000 DUP2 MSTORE POP DUP2 MSTORE PUSH1 0x20 ADD PUSH1 0x40 MLOAD DUP1 PUSH1 0x40 ADD PUSH1 0x40 MSTORE DUP1 PUSH1 0x4 DUP2 MSTORE PUSH1 0x20 ADD PUSH32 0x4D61746800000000000000000000000000000000000000000000000000000000 DUP2 MSTORE POP DUP2 MSTORE POP PUSH1 0x0 DUP1 DUP3 ADD MLOAD DUP2 PUSH1 0x0 ADD SSTORE PUSH1 0x20 DUP3 ADD MLOAD DUP2 PUSH1 0x1 ADD SWAP1 DUP2 PUSH3 0xAC SWAP2 SWAP1 PUSH3 0x3D7 JUMP JUMPDEST POP PUSH1 0x40 DUP3 ADD MLOAD DUP2 PUSH1 0x2 ADD SWAP1 DUP2 PUSH3 0xC4 SWAP2 SWAP1 PUSH3 0x3D7 JUMP JUMPDEST POP POP POP PUSH1 0x40 MLOAD DUP1 PUSH1 0x60 ADD PUSH1 0x40 MSTORE DUP1 PUSH1 0x40 MLOAD DUP1 PUSH1 0x40 ADD PUSH1 0x40 MSTORE DUP1 PUSH1 0x4 DUP2 MSTORE PUSH1 0x20 ADD PUSH32 0x4E616D6500000000000000000000000000000000000000000000000000000000 DUP2 MSTORE POP DUP2 MSTORE PUSH1 0x20 ADD PUSH1 0x1 DUP2 MSTORE PUSH1 0x20 ADD PUSH1 0x1 DUP2 MSTORE POP PUSH1 0x4 PUSH1 0x0 DUP3 ADD MLOAD DUP2 PUSH1 0x0 ADD SWAP1 DUP2 PUSH3 0x132 SWAP2 SWAP1 PUSH3 0x3D7 JUMP JUMPDEST POP PUSH1 0x20 DUP3 ADD MLOAD DUP2 PUSH1 0x1 ADD SSTORE PUSH1 0x40 DUP3 ADD MLOAD DUP2 PUSH1 0x2 ADD SSTORE POP POP CALLVALUE DUP1 ISZERO PUSH3 0x156 JUMPI PUSH1 0x0 DUP1 REVERT JUMPDEST POP PUSH3 0x4BE JUMP JUMPDEST PUSH1 0x0 DUP2 MLOAD SWAP1 POP SWAP2 SWAP1 POP JUMP JUMPDEST PUSH32 0x4E487B7100000000000000000000000000000000000000000000000000000000 PUSH1 0x0 MSTORE PUSH1 0x41 PUSH1 0x4 MSTORE PUSH1 0x24 PUSH1 0x0 REVERT JUMPDEST PUSH32 0x4E487B7100000000000000000000000000000000000000000000000000000000 PUSH1 0x0 MSTORE PUSH1 0x22 PUSH1 0x4 MSTORE PUSH1 0x24 PUSH1 0x0 REVERT JUMPDEST PUSH1 0x0 PUSH1 0x2 DUP3 DIV SWAP1 POP PUSH1 0x1 DUP3 AND DUP1 PUSH3 0x1DF JUMPI PUSH1 0x7F DUP3 AND SWAP2 POP JUMPDEST PUSH1 0x20 DUP3 LT DUP2 SUB PUSH3 0x1F5 JUMPI PUSH3 0x1F4 PUSH3 0x197 JUMP JUMPDEST JUMPDEST POP SWAP2 SWAP1 POP JUMP JUMPDEST PUSH1 0x0 DUP2 SWAP1 POP DUP2 PUSH1 0x0 MSTORE PUSH1 0x20 PUSH1 0x0 KECCAK256 SWAP1 POP SWAP2 SWAP1 POP JUMP JUMPDEST PUSH1 0x0 PUSH1 0x20 PUSH1 0x1F DUP4 ADD DIV SWAP1 POP SWAP2 SWAP1 POP JUMP JUMPDEST PUSH1 0x0 DUP3 DUP3 SHL SWAP1 POP SWAP3 SWAP2 POP POP JUMP JUMPDEST PUSH1 0x0 PUSH1 0x8 DUP4 MUL PUSH3 0x25F PUSH32 0xFFFFFFFFFFFFFFFFFFFFFFFFFFFFFFFFFFFFFFFFFFFFFFFFFFFFFFFFFFFFFFFF DUP3 PUSH3 0x220 JUMP JUMPDEST PUSH3 0x26B DUP7 DUP4 PUSH3 0x220 JUMP JUMPDEST SWAP6 POP DUP1 NOT DUP5 AND SWAP4 POP DUP1 DUP7 AND DUP5 OR SWAP3 POP POP POP SWAP4 SWAP3 POP POP POP JUMP JUMPDEST PUSH1 0x0 DUP2 SWAP1 POP SWAP2 SWAP1 POP JUMP JUMPDEST PUSH1 0x0 DUP2 SWAP1 POP SWAP2 SWAP1 POP JUMP JUMPDEST PUSH1 0x0 PUSH3 0x2B8 PUSH3 0x2B2 PUSH3 0x2AC DUP5 PUSH3 0x283 JUMP JUMPDEST PUSH3 0x28D JUMP JUMPDEST PUSH3 0x283 JUMP JUMPDEST SWAP1 POP SWAP2 SWAP1 POP JUMP JUMPDEST PUSH1 0x0 DUP2 SWAP1 POP SWAP2 SWAP1 POP JUMP JUMPDEST PUSH3 0x2D4 DUP4 PUSH3 0x297 JUMP JUMPDEST PUSH3 0x2EC PUSH3 0x2E3 DUP3 PUSH3 0x2BF JUMP JUMPDEST DUP5 DUP5 SLOAD PUSH3 0x22D JUMP JUMPDEST DUP3 SSTORE POP POP POP POP JUMP JUMPDEST PUSH1 0x0 SWAP1 JUMP JUMPDEST PUSH3 0x303 PUSH3 0x2F4 JUMP JUMPDEST PUSH3 0x310 DUP2 DUP5 DUP5 PUSH3 0x2C9 JUMP JUMPDEST POP POP POP JUMP JUMPDEST JUMPDEST DUP2 DUP2 LT ISZERO PUSH3 0x338 JUMPI PUSH3 0x32C PUSH1 0x0 DUP3 PUSH3 0x2F9 JUMP JUMPDEST PUSH1 0x1 DUP2 ADD SWAP1 POP PUSH3 0x316 JUMP JUMPDEST POP POP JUMP JUMPDEST PUSH1 0x1F DUP3 GT ISZERO PUSH3 0x387 JUMPI PUSH3 0x351 DUP2 PUSH3 0x1FB JUMP JUMPDEST PUSH3 0x35C DUP5 PUSH3 0x210 JUMP JUMPDEST DUP2 ADD PUSH1 0x20 DUP6 LT ISZERO PUSH3 0x36C JUMPI DUP2 SWAP1 POP JUMPDEST PUSH3 0x384 PUSH3 0x37B DUP6 PUSH3 0x210 JUMP JUMPDEST DUP4 ADD DUP3 PUSH3 0x315 JUMP JUMPDEST POP POP JUMPDEST POP POP POP JUMP JUMPDEST PUSH1 0x0 DUP3 DUP3 SHR SWAP1 POP SWAP3 SWAP2 POP POP JUMP JUMPDEST PUSH1 0x0 PUSH3 0x3AC PUSH1 0x0 NOT DUP5 PUSH1 0x8 MUL PUSH3 0x38C JUMP JUMPDEST NOT DUP1 DUP4 AND SWAP2 POP POP SWAP3 SWAP2 POP POP JUMP JUMPDEST PUSH1 0x0 PUSH3 0x3C7 DUP4 DUP4 PUSH3 0x399 JUMP JUMPDEST SWAP2 POP DUP3 PUSH1 0x2 MUL DUP3 OR SWAP1 POP SWAP3 SWAP2 POP POP JUMP JUMPDEST PUSH3 0x3E2 DUP3 PUSH3 0x15D JUMP JUMPDEST PUSH8 0xFFFFFFFFFFFFFFFF DUP2 GT ISZERO PUSH3 0x3FE JUMPI PUSH3 0x3FD PUSH3 0x168 JUMP JUMPDEST JUMPDEST PUSH3 0x40A DUP3 SLOAD PUSH3 0x1C6 JUMP JUMPDEST PUSH3 0x417 DUP3 DUP3 DUP6 PUSH3 0x33C JUMP JUMPDEST PUSH1 0x0 PUSH1 0x20 SWAP1 POP PUSH1 0x1F DUP4 GT PUSH1 0x1 DUP2 EQ PUSH3 0x44F JUMPI PUSH1 0x0 DUP5 ISZERO PUSH3 0x43A JUMPI DUP3 DUP8 ADD MLOAD SWAP1 POP JUMPDEST PUSH3 0x446 DUP6 DUP3 PUSH3 0x3B9 JUMP JUMPDEST DUP7 SSTORE POP PUSH3 0x4B6 JUMP JUMPDEST PUSH1 0x1F NOT DUP5 AND PUSH3 0x45F DUP7 PUSH3 0x1FB JUMP JUMPDEST PUSH1 0x0 JUMPDEST DUP3 DUP2 LT ISZERO PUSH3 0x489 JUMPI DUP5 DUP10 ADD MLOAD DUP3 SSTORE PUSH1 0x1 DUP3 ADD SWAP2 POP PUSH1 0x20 DUP6 ADD SWAP5 POP PUSH1 0x20 DUP2 ADD SWAP1 POP PUSH3 0x462 JUMP JUMPDEST DUP7 DUP4 LT ISZERO PUSH3 0x4A9 JUMPI DUP5 DUP10 ADD MLOAD PUSH3 0x4A5 PUSH1 0x1F DUP10 AND DUP3 PUSH3 0x399 JUMP JUMPDEST DUP4 SSTORE POP JUMPDEST PUSH1 0x1 PUSH1 0x2 DUP9 MUL ADD DUP9 SSTORE POP POP POP JUMPDEST POP POP POP POP POP POP JUMP JUMPDEST PUSH2 0xA07 DUP1 PUSH3 0x4CE PUSH1 0x0 CODECOPY PUSH1 0x0 RETURN INVALID PUSH1 0x80 PUSH1 0x40 MSTORE CALLVALUE DUP1 ISZERO PUSH2 0x10 JUMPI PUSH1 0x0 DUP1 REVERT JUMPDEST POP PUSH1 0x4 CALLDATASIZE LT PUSH2 0x4C JUMPI PUSH1 0x0 CALLDATALOAD PUSH1 0xE0 SHR DUP1 PUSH4 0x46DAAEED EQ PUSH2 0x51 JUMPI DUP1 PUSH4 0x66BFDB8F EQ PUSH2 0x6D JUMPI DUP1 PUSH4 0xA87430BA EQ PUSH2 0x8D JUMPI DUP1 PUSH4 0xF0384FB6 EQ PUSH2 0xBE JUMPI JUMPDEST PUSH1 0x0 DUP1 REVERT JUMPDEST PUSH2 0x6B PUSH1 0x4 DUP1 CALLDATASIZE SUB DUP2 ADD SWAP1 PUSH2 0x66 SWAP2 SWAP1 PUSH2 0x48E JUMP JUMPDEST PUSH2 0xDA JUMP JUMPDEST STOP JUMPDEST PUSH2 0x75 PUSH2 0x129 JUMP JUMPDEST PUSH1 0x40 MLOAD PUSH2 0x84 SWAP4 SWAP3 SWAP2 SWAP1 PUSH2 0x58B JUMP JUMPDEST PUSH1 0x40 MLOAD DUP1 SWAP2 SUB SWAP1 RETURN JUMPDEST PUSH2 0xA7 PUSH1 0x4 DUP1 CALLDATASIZE SUB DUP2 ADD SWAP1 PUSH2 0xA2 SWAP2 SWAP1 PUSH2 0x627 JUMP JUMPDEST PUSH2 0x1D6 JUMP JUMPDEST PUSH1 0x40 MLOAD PUSH2 0xB5 SWAP3 SWAP2 SWAP1 PUSH2 0x654 JUMP JUMPDEST PUSH1 0x40 MLOAD DUP1 SWAP2 SUB SWAP1 RETURN JUMPDEST PUSH2 0xD8 PUSH1 0x4 DUP1 CALLDATASIZE SUB DUP2 ADD SWAP1 PUSH2 0xD3 SWAP2 SWAP1 PUSH2 0x684 JUMP JUMPDEST PUSH2 0x282 JUMP JUMPDEST STOP JUMPDEST PUSH1 0x40 MLOAD DUP1 PUSH1 0x60 ADD PUSH1 0x40 MSTORE DUP1 DUP5 DUP2 MSTORE PUSH1 0x20 ADD DUP4 DUP2 MSTORE PUSH1 0x20 ADD DUP3 DUP2 MSTORE POP PUSH1 0x4 PUSH1 0x0 DUP3 ADD MLOAD DUP2 PUSH1 0x0 ADD SWAP1 DUP2 PUSH2 0x10C SWAP2 SWAP1 PUSH2 0x8FF JUMP JUMPDEST POP PUSH1 0x20 DUP3 ADD MLOAD DUP2 PUSH1 0x1 ADD SSTORE PUSH1 0x40 DUP3 ADD MLOAD DUP2 PUSH1 0x2 ADD SSTORE SWAP1 POP POP POP POP POP JUMP JUMPDEST PUSH1 0x60 PUSH1 0x0 DUP1 PUSH1 0x4 PUSH1 0x0 ADD PUSH1 0x4 PUSH1 0x1 ADD SLOAD PUSH1 0x4 PUSH1 0x2 ADD SLOAD DUP3 DUP1 SLOAD PUSH2 0x14B SWAP1 PUSH2 0x722 JUMP JUMPDEST DUP1 PUSH1 0x1F ADD PUSH1 0x20 DUP1 SWAP2 DIV MUL PUSH1 0x20 ADD PUSH1 0x40 MLOAD SWAP1 DUP2 ADD PUSH1 0x40 MSTORE DUP1 SWAP3 SWAP2 SWAP1 DUP2 DUP2 MSTORE PUSH1 0x20 ADD DUP3 DUP1 SLOAD PUSH2 0x177 SWAP1 PUSH2 0x722 JUMP JUMPDEST DUP1 ISZERO PUSH2 0x1C4 JUMPI DUP1 PUSH1 0x1F LT PUSH2 0x199 JUMPI PUSH2 0x100 DUP1 DUP4 SLOAD DIV MUL DUP4 MSTORE SWAP2 PUSH1 0x20 ADD SWAP2 PUSH2 0x1C4 JUMP JUMPDEST DUP3 ADD SWAP2 SWAP1 PUSH1 0x0 MSTORE PUSH1 0x20 PUSH1 0x0 KECCAK256 SWAP1 JUMPDEST DUP2 SLOAD DUP2 MSTORE SWAP1 PUSH1 0x1 ADD SWAP1 PUSH1 0x20 ADD DUP1 DUP4 GT PUSH2 0x1A7 JUMPI DUP3 SWAP1 SUB PUSH1 0x1F AND DUP3 ADD SWAP2 JUMPDEST POP POP POP POP POP SWAP3 POP SWAP3 POP SWAP3 POP SWAP3 POP SWAP1 SWAP2 SWAP3 JUMP JUMPDEST PUSH1 0x3 PUSH1 0x20 MSTORE DUP1 PUSH1 0x0 MSTORE PUSH1 0x40 PUSH1 0x0 KECCAK256 PUSH1 0x0 SWAP2 POP SWAP1 POP DUP1 PUSH1 0x0 ADD SLOAD SWAP1 DUP1 PUSH1 0x1 ADD DUP1 SLOAD PUSH2 0x1FF SWAP1 PUSH2 0x722 JUMP JUMPDEST DUP1 PUSH1 0x1F ADD PUSH1 0x20 DUP1 SWAP2 DIV MUL PUSH1 0x20 ADD PUSH1 0x40 MLOAD SWAP1 DUP2 ADD PUSH1 0x40 MSTORE DUP1 SWAP3 SWAP2 SWAP1 DUP2 DUP2 MSTORE PUSH1 0x20 ADD DUP3 DUP1 SLOAD PUSH2 0x22B SWAP1 PUSH2 0x722 JUMP JUMPDEST DUP1 ISZERO PUSH2 0x278 JUMPI DUP1 PUSH1 0x1F LT PUSH2 0x24D JUMPI PUSH2 0x100 DUP1 DUP4 SLOAD DIV MUL DUP4 MSTORE SWAP2 PUSH1 0x20 ADD SWAP2 PUSH2 0x278 JUMP JUMPDEST DUP3 ADD SWAP2 SWAP1 PUSH1 0x0 MSTORE PUSH1 0x20 PUSH1 0x0 KECCAK256 SWAP1 JUMPDEST DUP2 SLOAD DUP2 MSTORE SWAP1 PUSH1 0x1 ADD SWAP1 PUSH1 0x20 ADD DUP1 DUP4 GT PUSH2 0x25B JUMPI DUP3 SWAP1 SUB PUSH1 0x1F AND DUP3 ADD SWAP2 JUMPDEST POP POP POP POP POP SWAP1 POP DUP3 JUMP JUMPDEST PUSH1 0x40 MLOAD DUP1 PUSH1 0x40 ADD PUSH1 0x40 MSTORE DUP1 DUP3 DUP2 MSTORE PUSH1 0x20 ADD DUP4 DUP2 MSTORE POP PUSH1 0x3 PUSH1 0x0 DUP6 PUSH20 0xFFFFFFFFFFFFFFFFFFFFFFFFFFFFFFFFFFFFFFFF AND PUSH20 0xFFFFFFFFFFFFFFFFFFFFFFFFFFFFFFFFFFFFFFFF AND DUP2 MSTORE PUSH1 0x20 ADD SWAP1 DUP2 MSTORE PUSH1 0x20 ADD PUSH1 0x0 KECCAK256 PUSH1 0x0 DUP3 ADD MLOAD DUP2 PUSH1 0x0 ADD SSTORE PUSH1 0x20 DUP3 ADD MLOAD DUP2 PUSH1 0x1 ADD SWAP1 DUP2 PUSH2 0x2F5 SWAP2 SWAP1 PUSH2 0x8FF JUMP JUMPDEST POP SWAP1 POP POP POP POP POP JUMP JUMPDEST PUSH1 0x0 PUSH1 0x40 MLOAD SWAP1 POP SWAP1 JUMP JUMPDEST PUSH1 0x0 DUP1 REVERT JUMPDEST PUSH1 0x0 DUP1 REVERT JUMPDEST PUSH1 0x0 DUP1 REVERT JUMPDEST PUSH1 0x0 DUP1 REVERT JUMPDEST PUSH1 0x0 PUSH1 0x1F NOT PUSH1 0x1F DUP4 ADD AND SWAP1 POP SWAP2 SWAP1 POP JUMP JUMPDEST PUSH32 0x4E487B7100000000000000000000000000000000000000000000000000000000 PUSH1 0x0 MSTORE PUSH1 0x41 PUSH1 0x4 MSTORE PUSH1 0x24 PUSH1 0x0 REVERT JUMPDEST PUSH2 0x365 DUP3 PUSH2 0x31C JUMP JUMPDEST DUP2 ADD DUP2 DUP2 LT PUSH8 0xFFFFFFFFFFFFFFFF DUP3 GT OR ISZERO PUSH2 0x384 JUMPI PUSH2 0x383 PUSH2 0x32D JUMP JUMPDEST JUMPDEST DUP1 PUSH1 0x40 MSTORE POP POP POP JUMP JUMPDEST PUSH1 0x0 PUSH2 0x397 PUSH2 0x2FE JUMP JUMPDEST SWAP1 POP PUSH2 0x3A3 DUP3 DUP3 PUSH2 0x35C JUMP JUMPDEST SWAP2 SWAP1 POP JUMP JUMPDEST PUSH1 0x0 PUSH8 0xFFFFFFFFFFFFFFFF DUP3 GT ISZERO PUSH2 0x3C3 JUMPI PUSH2 0x3C2 PUSH2 0x32D JUMP JUMPDEST JUMPDEST PUSH2 0x3CC DUP3 PUSH2 0x31C JUMP JUMPDEST SWAP1 POP PUSH1 0x20 DUP2 ADD SWAP1 POP SWAP2 SWAP1 POP JUMP JUMPDEST DUP3 DUP2 DUP4 CALLDATACOPY PUSH1 0x0 DUP4 DUP4 ADD MSTORE POP POP POP JUMP JUMPDEST PUSH1 0x0 PUSH2 0x3FB PUSH2 0x3F6 DUP5 PUSH2 0x3A8 JUMP JUMPDEST PUSH2 0x38D JUMP JUMPDEST SWAP1 POP DUP3 DUP2 MSTORE PUSH1 0x20 DUP2 ADD DUP5 DUP5 DUP5 ADD GT ISZERO PUSH2 0x417 JUMPI PUSH2 0x416 PUSH2 0x317 JUMP JUMPDEST JUMPDEST PUSH2 0x422 DUP5 DUP3 DUP6 PUSH2 0x3D9 JUMP JUMPDEST POP SWAP4 SWAP3 POP POP POP JUMP JUMPDEST PUSH1 0x0 DUP3 PUSH1 0x1F DUP4 ADD SLT PUSH2 0x43F JUMPI PUSH2 0x43E PUSH2 0x312 JUMP JUMPDEST JUMPDEST DUP2 CALLDATALOAD PUSH2 0x44F DUP5 DUP3 PUSH1 0x20 DUP7 ADD PUSH2 0x3E8 JUMP JUMPDEST SWAP2 POP POP SWAP3 SWAP2 POP POP JUMP JUMPDEST PUSH1 0x0 DUP2 SWAP1 POP SWAP2 SWAP1 POP JUMP JUMPDEST PUSH2 0x46B DUP2 PUSH2 0x458 JUMP JUMPDEST DUP2 EQ PUSH2 0x476 JUMPI PUSH1 0x0 DUP1 REVERT JUMPDEST POP JUMP JUMPDEST PUSH1 0x0 DUP2 CALLDATALOAD SWAP1 POP PUSH2 0x488 DUP2 PUSH2 0x462 JUMP JUMPDEST SWAP3 SWAP2 POP POP JUMP JUMPDEST PUSH1 0x0 DUP1 PUSH1 0x0 PUSH1 0x60 DUP5 DUP7 SUB SLT ISZERO PUSH2 0x4A7 JUMPI PUSH2 0x4A6 PUSH2 0x308 JUMP JUMPDEST JUMPDEST PUSH1 0x0 DUP5 ADD CALLDATALOAD PUSH8 0xFFFFFFFFFFFFFFFF DUP2 GT ISZERO PUSH2 0x4C5 JUMPI PUSH2 0x4C4 PUSH2 0x30D JUMP JUMPDEST JUMPDEST PUSH2 0x4D1 DUP7 DUP3 DUP8 ADD PUSH2 0x42A JUMP JUMPDEST SWAP4 POP POP PUSH1 0x20 PUSH2 0x4E2 DUP7 DUP3 DUP8 ADD PUSH2 0x479 JUMP JUMPDEST SWAP3 POP POP PUSH1 0x40 PUSH2 0x4F3 DUP7 DUP3 DUP8 ADD PUSH2 0x479 JUMP JUMPDEST SWAP2 POP POP SWAP3 POP SWAP3 POP SWAP3 JUMP JUMPDEST PUSH1 0x0 DUP2 MLOAD SWAP1 POP SWAP2 SWAP1 POP JUMP JUMPDEST PUSH1 0x0 DUP3 DUP3 MSTORE PUSH1 0x20 DUP3 ADD SWAP1 POP SWAP3 SWAP2 POP POP JUMP JUMPDEST PUSH1 0x0 JUMPDEST DUP4 DUP2 LT ISZERO PUSH2 0x537 JUMPI DUP1 DUP3 ADD MLOAD DUP2 DUP5 ADD MSTORE PUSH1 0x20 DUP2 ADD SWAP1 POP PUSH2 0x51C JUMP JUMPDEST PUSH1 0x0 DUP5 DUP5 ADD MSTORE POP POP POP POP JUMP JUMPDEST PUSH1 0x0 PUSH2 0x54E DUP3 PUSH2 0x4FD JUMP JUMPDEST PUSH2 0x558 DUP2 DUP6 PUSH2 0x508 JUMP JUMPDEST SWAP4 POP PUSH2 0x568 DUP2 DUP6 PUSH1 0x20 DUP7 ADD PUSH2 0x519 JUMP JUMPDEST PUSH2 0x571 DUP2 PUSH2 0x31C JUMP JUMPDEST DUP5 ADD SWAP2 POP POP SWAP3 SWAP2 POP POP JUMP JUMPDEST PUSH2 0x585 DUP2 PUSH2 0x458 JUMP JUMPDEST DUP3 MSTORE POP POP JUMP JUMPDEST PUSH1 0x0 PUSH1 0x60 DUP3 ADD SWAP1 POP DUP2 DUP2 SUB PUSH1 0x0 DUP4 ADD MSTORE PUSH2 0x5A5 DUP2 DUP7 PUSH2 0x543 JUMP JUMPDEST SWAP1 POP PUSH2 0x5B4 PUSH1 0x20 DUP4 ADD DUP6 PUSH2 0x57C JUMP JUMPDEST PUSH2 0x5C1 PUSH1 0x40 DUP4 ADD DUP5 PUSH2 0x57C JUMP JUMPDEST SWAP5 SWAP4 POP POP POP POP JUMP JUMPDEST PUSH1 0x0 PUSH20 0xFFFFFFFFFFFFFFFFFFFFFFFFFFFFFFFFFFFFFFFF DUP3 AND SWAP1 POP SWAP2 SWAP1 POP JUMP JUMPDEST PUSH1 0x0 PUSH2 0x5F4 DUP3 PUSH2 0x5C9 JUMP JUMPDEST SWAP1 POP SWAP2 SWAP1 POP JUMP JUMPDEST PUSH2 0x604 DUP2 PUSH2 0x5E9 JUMP JUMPDEST DUP2 EQ PUSH2 0x60F JUMPI PUSH1 0x0 DUP1 REVERT JUMPDEST POP JUMP JUMPDEST PUSH1 0x0 DUP2 CALLDATALOAD SWAP1 POP PUSH2 0x621 DUP2 PUSH2 0x5FB JUMP JUMPDEST SWAP3 SWAP2 POP POP JUMP JUMPDEST PUSH1 0x0 PUSH1 0x20 DUP3 DUP5 SUB SLT ISZERO PUSH2 0x63D JUMPI PUSH2 0x63C PUSH2 0x308 JUMP JUMPDEST JUMPDEST PUSH1 0x0 PUSH2 0x64B DUP5 DUP3 DUP6 ADD PUSH2 0x612 JUMP JUMPDEST SWAP2 POP POP SWAP3 SWAP2 POP POP JUMP JUMPDEST PUSH1 0x0 PUSH1 0x40 DUP3 ADD SWAP1 POP PUSH2 0x669 PUSH1 0x0 DUP4 ADD DUP6 PUSH2 0x57C JUMP JUMPDEST DUP2 DUP2 SUB PUSH1 0x20 DUP4 ADD MSTORE PUSH2 0x67B DUP2 DUP5 PUSH2 0x543 JUMP JUMPDEST SWAP1 POP SWAP4 SWAP3 POP POP POP JUMP JUMPDEST PUSH1 0x0 DUP1 PUSH1 0x0 PUSH1 0x60 DUP5 DUP7 SUB SLT ISZERO PUSH2 0x69D JUMPI PUSH2 0x69C PUSH2 0x308 JUMP JUMPDEST JUMPDEST PUSH1 0x0 PUSH2 0x6AB DUP7 DUP3 DUP8 ADD PUSH2 0x612 JUMP JUMPDEST SWAP4 POP POP PUSH1 0x20 DUP5 ADD CALLDATALOAD PUSH8 0xFFFFFFFFFFFFFFFF DUP2 GT ISZERO PUSH2 0x6CC JUMPI PUSH2 0x6CB PUSH2 0x30D JUMP JUMPDEST JUMPDEST PUSH2 0x6D8 DUP7 DUP3 DUP8 ADD PUSH2 0x42A JUMP JUMPDEST SWAP3 POP POP PUSH1 0x40 PUSH2 0x6E9 DUP7 DUP3 DUP8 ADD PUSH2 0x479 JUMP JUMPDEST SWAP2 POP POP SWAP3 POP SWAP3 POP SWAP3 JUMP JUMPDEST PUSH32 0x4E487B7100000000000000000000000000000000000000000000000000000000 PUSH1 0x0 MSTORE PUSH1 0x22 PUSH1 0x4 MSTORE PUSH1 0x24 PUSH1 0x0 REVERT JUMPDEST PUSH1 0x0 PUSH1 0x2 DUP3 DIV SWAP1 POP PUSH1 0x1 DUP3 AND DUP1 PUSH2 0x73A JUMPI PUSH1 0x7F DUP3 AND SWAP2 POP JUMPDEST PUSH1 0x20 DUP3 LT DUP2 SUB PUSH2 0x74D JUMPI PUSH2 0x74C PUSH2 0x6F3 JUMP JUMPDEST JUMPDEST POP SWAP2 SWAP1 POP JUMP JUMPDEST PUSH1 0x0 DUP2 SWAP1 POP DUP2 PUSH1 0x0 MSTORE PUSH1 0x20 PUSH1 0x0 KECCAK256 SWAP1 POP SWAP2 SWAP1 POP JUMP JUMPDEST PUSH1 0x0 PUSH1 0x20 PUSH1 0x1F DUP4 ADD DIV SWAP1 POP SWAP2 SWAP1 POP JUMP JUMPDEST PUSH1 0x0 DUP3 DUP3 SHL SWAP1 POP SWAP3 SWAP2 POP POP JUMP JUMPDEST PUSH1 0x0 PUSH1 0x8 DUP4 MUL PUSH2 0x7B5 PUSH32 0xFFFFFFFFFFFFFFFFFFFFFFFFFFFFFFFFFFFFFFFFFFFFFFFFFFFFFFFFFFFFFFFF DUP3 PUSH2 0x778 JUMP JUMPDEST PUSH2 0x7BF DUP7 DUP4 PUSH2 0x778 JUMP JUMPDEST SWAP6 POP DUP1 NOT DUP5 AND SWAP4 POP DUP1 DUP7 AND DUP5 OR SWAP3 POP POP POP SWAP4 SWAP3 POP POP POP JUMP JUMPDEST PUSH1 0x0 DUP2 SWAP1 POP SWAP2 SWAP1 POP JUMP JUMPDEST PUSH1 0x0 PUSH2 0x7FC PUSH2 0x7F7 PUSH2 0x7F2 DUP5 PUSH2 0x458 JUMP JUMPDEST PUSH2 0x7D7 JUMP JUMPDEST PUSH2 0x458 JUMP JUMPDEST SWAP1 POP SWAP2 SWAP1 POP JUMP JUMPDEST PUSH1 0x0 DUP2 SWAP1 POP SWAP2 SWAP1 POP JUMP JUMPDEST PUSH2 0x816 DUP4 PUSH2 0x7E1 JUMP JUMPDEST PUSH2 0x82A PUSH2 0x822 DUP3 PUSH2 0x803 JUMP JUMPDEST DUP5 DUP5 SLOAD PUSH2 0x785 JUMP JUMPDEST DUP3 SSTORE POP POP POP POP JUMP JUMPDEST PUSH1 0x0 SWAP1 JUMP JUMPDEST PUSH2 0x83F PUSH2 0x832 JUMP JUMPDEST PUSH2 0x84A DUP2 DUP5 DUP5 PUSH2 0x80D JUMP JUMPDEST POP POP POP JUMP JUMPDEST JUMPDEST DUP2 DUP2 LT ISZERO PUSH2 0x86E JUMPI PUSH2 0x863 PUSH1 0x0 DUP3 PUSH2 0x837 JUMP JUMPDEST PUSH1 0x1 DUP2 ADD SWAP1 POP PUSH2 0x850 JUMP JUMPDEST POP POP JUMP JUMPDEST PUSH1 0x1F DUP3 GT ISZERO PUSH2 0x8B3 JUMPI PUSH2 0x884 DUP2 PUSH2 0x753 JUMP JUMPDEST PUSH2 0x88D DUP5 PUSH2 0x768 JUMP JUMPDEST DUP2 ADD PUSH1 0x20 DUP6 LT ISZERO PUSH2 0x89C JUMPI DUP2 SWAP1 POP JUMPDEST PUSH2 0x8B0 PUSH2 0x8A8 DUP6 PUSH2 0x768 JUMP JUMPDEST DUP4 ADD DUP3 PUSH2 0x84F JUMP JUMPDEST POP POP JUMPDEST POP POP POP JUMP JUMPDEST PUSH1 0x0 DUP3 DUP3 SHR SWAP1 POP SWAP3 SWAP2 POP POP JUMP JUMPDEST PUSH1 0x0 PUSH2 0x8D6 PUSH1 0x0 NOT DUP5 PUSH1 0x8 MUL PUSH2 0x8B8 JUMP JUMPDEST NOT DUP1 DUP4 AND SWAP2 POP POP SWAP3 SWAP2 POP POP JUMP JUMPDEST PUSH1 0x0 PUSH2 0x8EF DUP4 DUP4 PUSH2 0x8C5 JUMP JUMPDEST SWAP2 POP DUP3 PUSH1 0x2 MUL DUP3 OR SWAP1 POP SWAP3 SWAP2 POP POP JUMP JUMPDEST PUSH2 0x908 DUP3 PUSH2 0x4FD JUMP JUMPDEST PUSH8 0xFFFFFFFFFFFFFFFF DUP2 GT ISZERO PUSH2 0x921 JUMPI PUSH2 0x920 PUSH2 0x32D JUMP JUMPDEST JUMPDEST PUSH2 0x92B DUP3 SLOAD PUSH2 0x722 JUMP JUMPDEST PUSH2 0x936 DUP3 DUP3 DUP6 PUSH2 0x872 JUMP JUMPDEST PUSH1 0x0 PUSH1 0x20 SWAP1 POP PUSH1 0x1F DUP4 GT PUSH1 0x1 DUP2 EQ PUSH2 0x969 JUMPI PUSH1 0x0 DUP5 ISZERO PUSH2 0x957 JUMPI DUP3 DUP8 ADD MLOAD SWAP1 POP JUMPDEST PUSH2 0x961 DUP6 DUP3 PUSH2 0x8E3 JUMP JUMPDEST DUP7 SSTORE POP PUSH2 0x9C9 JUMP JUMPDEST PUSH1 0x1F NOT DUP5 AND PUSH2 0x977 DUP7 PUSH2 0x753 JUMP JUMPDEST PUSH1 0x0 JUMPDEST DUP3 DUP2 LT ISZERO PUSH2 0x99F JUMPI DUP5 DUP10 ADD MLOAD DUP3 SSTORE PUSH1 0x1 DUP3 ADD SWAP2 POP PUSH1 0x20 DUP6 ADD SWAP5 POP PUSH1 0x20 DUP2 ADD SWAP1 POP PUSH2 0x97A JUMP JUMPDEST DUP7 DUP4 LT ISZERO PUSH2 0x9BC JUMPI DUP5 DUP10 ADD MLOAD PUSH2 0x9B8 PUSH1 0x1F DUP10 AND DUP3 PUSH2 0x8C5 JUMP JUMPDEST DUP4 SSTORE POP JUMPDEST PUSH1 0x1 PUSH1 0x2 DUP9 MUL ADD DUP9 SSTORE POP POP POP JUMPDEST POP POP POP POP POP POP JUMP INVALID LOG2 PUSH5 0x6970667358 0x22 SLT KECCAK256 0xCF 0xC3 0xC8 0xBA SWAP6 0x5C 0x24 0xC9 0x2C 0x4B SWAP12 SWAP6 0xFC 0xEC 0x2F 0xBE PUSH32 0xBDB93C997768239BBEE68479D4813164736F6C63430008110033000000000000 "
				},
				"gasEstimates": {
					"creation": {
						"codeDepositCost": "513400",
						"executionCost": "infinite",
						"totalCost": "infinite"
					},
					"external": {
						"UpdateProduct(string,uint256,uint256)": "infinite",
						"addUser(address,string,uint256)": "infinite",
						"retrieveProduct()": "infinite",
						"users(address)": "infinite"
					}
				},
				"methodIdentifiers": {
					"UpdateProduct(string,uint256,uint256)": "46daaeed",
					"addUser(address,string,uint256)": "f0384fb6",
					"retrieveProduct()": "66bfdb8f",
					"users(address)": "a87430ba"
				}
			},
			"storageLayout": {
				"storage": [
					{
						"astId": 16,
						"contract": "Week-4/structs.sol:structs",
						"label": "me",
						"offset": 0,
						"slot": "0",
						"type": "t_struct(Student)8_storage"
					},
					{
						"astId": 26,
						"contract": "Week-4/structs.sol:structs",
						"label": "users",
						"offset": 0,
						"slot": "3",
						"type": "t_mapping(t_address,t_struct(Person)21_storage)"
					},
					{
						"astId": 60,
						"contract": "Week-4/structs.sol:structs",
						"label": "product",
						"offset": 0,
						"slot": "4",
						"type": "t_struct(Product)52_storage"
					}
				],
				"types": {
					"t_address": {
						"encoding": "inplace",
						"label": "address",
						"numberOfBytes": "20"
					},
					"t_mapping(t_address,t_struct(Person)21_storage)": {
						"encoding": "mapping",
						"key": "t_address",
						"label": "mapping(address => struct structs.Person)",
						"numberOfBytes": "32",
						"value": "t_struct(Person)21_storage"
					},
					"t_string_storage": {
						"encoding": "bytes",
						"label": "string",
						"numberOfBytes": "32"
					},
					"t_struct(Person)21_storage": {
						"encoding": "inplace",
						"label": "struct structs.Person",
						"members": [
							{
								"astId": 18,
								"contract": "Week-4/structs.sol:structs",
								"label": "age",
								"offset": 0,
								"slot": "0",
								"type": "t_uint256"
							},
							{
								"astId": 20,
								"contract": "Week-4/structs.sol:structs",
								"label": "name",
								"offset": 0,
								"slot": "1",
								"type": "t_string_storage"
							}
						],
						"numberOfBytes": "64"
					},
					"t_struct(Product)52_storage": {
						"encoding": "inplace",
						"label": "struct structs.Product",
						"members": [
							{
								"astId": 47,
								"contract": "Week-4/structs.sol:structs",
								"label": "name",
								"offset": 0,
								"slot": "0",
								"type": "t_string_storage"
							},
							{
								"astId": 49,
								"contract": "Week-4/structs.sol:structs",
								"label": "price",
								"offset": 0,
								"slot": "1",
								"type": "t_uint256"
							},
							{
								"astId": 51,
								"contract": "Week-4/structs.sol:structs",
								"label": "quantity",
								"offset": 0,
								"slot": "2",
								"type": "t_uint256"
							}
						],
						"numberOfBytes": "96"
					},
					"t_struct(Student)8_storage": {
						"encoding": "inplace",
						"label": "struct structs.Student",
						"members": [
							{
								"astId": 3,
								"contract": "Week-4/structs.sol:structs",
								"label": "age",
								"offset": 0,
								"slot": "0",
								"type": "t_uint256"
							},
							{
								"astId": 5,
								"contract": "Week-4/structs.sol:structs",
								"label": "name",
								"offset": 0,
								"slot": "1",
								"type": "t_string_storage"
							},
							{
								"astId": 7,
								"contract": "Week-4/structs.sol:structs",
								"label": "program",
								"offset": 0,
								"slot": "2",
								"type": "t_string_storage"
							}
						],
						"numberOfBytes": "96"
					},
					"t_uint256": {
						"encoding": "inplace",
						"label": "uint256",
						"numberOfBytes": "32"
					}
				}
			},
			"userdoc": {
				"kind": "user",
				"methods": {},
				"version": 1
			}
		}
	}
}